{
	"contracts/thomasaurelien.sol": {
		"DocumentVerifier": {
			"abi": [
				{
					"anonymous": false,
					"inputs": [
						{
							"indexed": true,
							"internalType": "bytes32",
							"name": "docHash",
							"type": "bytes32"
						},
						{
							"indexed": false,
							"internalType": "string",
							"name": "title",
							"type": "string"
						}
					],
					"name": "DocumentRegistered",
					"type": "event"
				},
				{
					"anonymous": false,
					"inputs": [
						{
							"indexed": true,
							"internalType": "bytes32",
							"name": "docHash",
							"type": "bytes32"
						},
						{
							"indexed": false,
							"internalType": "bool",
							"name": "isValid",
							"type": "bool"
						}
					],
					"name": "DocumentVerified",
					"type": "event"
				},
				{
					"inputs": [
						{
							"internalType": "string",
							"name": "_title",
							"type": "string"
						},
						{
							"internalType": "uint256",
							"name": "_size",
							"type": "uint256"
						},
						{
							"internalType": "uint256",
							"name": "_publicationDate",
							"type": "uint256"
						}
					],
					"name": "registerDocument",
					"outputs": [],
					"stateMutability": "nonpayable",
					"type": "function"
				},
				{
					"inputs": [
						{
							"internalType": "bytes32",
							"name": "",
							"type": "bytes32"
						}
					],
					"name": "registeredDocuments",
					"outputs": [
						{
							"internalType": "string",
							"name": "title",
							"type": "string"
						},
						{
							"internalType": "uint256",
							"name": "size",
							"type": "uint256"
						},
						{
							"internalType": "uint256",
							"name": "publicationDate",
							"type": "uint256"
						},
						{
							"internalType": "bytes32",
							"name": "hash",
							"type": "bytes32"
						}
					],
					"stateMutability": "view",
					"type": "function"
				},
				{
					"inputs": [
						{
							"internalType": "string",
							"name": "_title",
							"type": "string"
						},
						{
							"internalType": "uint256",
							"name": "_size",
							"type": "uint256"
						},
						{
							"internalType": "uint256",
							"name": "_publicationDate",
							"type": "uint256"
						}
					],
					"name": "verifyDocument",
					"outputs": [
						{
							"internalType": "bool",
							"name": "",
							"type": "bool"
						}
					],
					"stateMutability": "view",
					"type": "function"
				}
			],
			"devdoc": {
				"kind": "dev",
				"methods": {},
				"version": 1
			},
			"evm": {
				"assembly": "    /* \"contracts/thomasaurelien.sol\":60:1486  contract DocumentVerifier {\r... */\n  mstore(0x40, 0x80)\n  callvalue\n  dup1\n  iszero\n  tag_1\n  jumpi\n  0x00\n  dup1\n  revert\ntag_1:\n  pop\n  dataSize(sub_0)\n  dup1\n  dataOffset(sub_0)\n  0x00\n  codecopy\n  0x00\n  return\nstop\n\nsub_0: assembly {\n        /* \"contracts/thomasaurelien.sol\":60:1486  contract DocumentVerifier {\r... */\n      mstore(0x40, 0x80)\n      callvalue\n      dup1\n      iszero\n      tag_1\n      jumpi\n      0x00\n      dup1\n      revert\n    tag_1:\n      pop\n      jumpi(tag_2, lt(calldatasize, 0x04))\n      shr(0xe0, calldataload(0x00))\n      dup1\n      0x289ac3ec\n      eq\n      tag_3\n      jumpi\n      dup1\n      0x53e1841e\n      eq\n      tag_4\n      jumpi\n      dup1\n      0xdf6e104d\n      eq\n      tag_5\n      jumpi\n    tag_2:\n      0x00\n      dup1\n      revert\n        /* \"contracts/thomasaurelien.sol\":432:1172  function registerDocument(\r... */\n    tag_3:\n      tag_6\n      0x04\n      dup1\n      calldatasize\n      sub\n      dup2\n      add\n      swap1\n      tag_7\n      swap2\n      swap1\n      tag_8\n      jump\t// in\n    tag_7:\n      tag_9\n      jump\t// in\n    tag_6:\n      stop\n        /* \"contracts/thomasaurelien.sol\":1180:1483  function verifyDocument(\r... */\n    tag_4:\n      tag_10\n      0x04\n      dup1\n      calldatasize\n      sub\n      dup2\n      add\n      swap1\n      tag_11\n      swap2\n      swap1\n      tag_8\n      jump\t// in\n    tag_11:\n      tag_12\n      jump\t// in\n    tag_10:\n      mload(0x40)\n      tag_13\n      swap2\n      swap1\n      tag_14\n      jump\t// in\n    tag_13:\n      mload(0x40)\n      dup1\n      swap2\n      sub\n      swap1\n      return\n        /* \"contracts/thomasaurelien.sol\":228:283  mapping(bytes32 => Document) public registeredDocuments */\n    tag_5:\n      tag_15\n      0x04\n      dup1\n      calldatasize\n      sub\n      dup2\n      add\n      swap1\n      tag_16\n      swap2\n      swap1\n      tag_17\n      jump\t// in\n    tag_16:\n      tag_18\n      jump\t// in\n    tag_15:\n      mload(0x40)\n      tag_19\n      swap5\n      swap4\n      swap3\n      swap2\n      swap1\n      tag_20\n      jump\t// in\n    tag_19:\n      mload(0x40)\n      dup1\n      swap2\n      sub\n      swap1\n      return\n        /* \"contracts/thomasaurelien.sol\":432:1172  function registerDocument(\r... */\n    tag_9:\n        /* \"contracts/thomasaurelien.sol\":604:605  0 */\n      0x00\n        /* \"contracts/thomasaurelien.sol\":587:593  _title */\n      dup4\n        /* \"contracts/thomasaurelien.sol\":581:601  bytes(_title).length */\n      mload\n        /* \"contracts/thomasaurelien.sol\":581:605  bytes(_title).length > 0 */\n      gt\n        /* \"contracts/thomasaurelien.sol\":573:624  require(bytes(_title).length > 0, \"Title required\") */\n      tag_22\n      jumpi\n      mload(0x40)\n      0x08c379a000000000000000000000000000000000000000000000000000000000\n      dup2\n      mstore\n      0x04\n      add\n      tag_23\n      swap1\n      tag_24\n      jump\t// in\n    tag_23:\n      mload(0x40)\n      dup1\n      swap2\n      sub\n      swap1\n      revert\n    tag_22:\n        /* \"contracts/thomasaurelien.sol\":651:652  0 */\n      0x00\n        /* \"contracts/thomasaurelien.sol\":643:648  _size */\n      dup3\n        /* \"contracts/thomasaurelien.sol\":643:652  _size > 0 */\n      gt\n        /* \"contracts/thomasaurelien.sol\":635:678  require(_size > 0, \"Size must be positive\") */\n      tag_25\n      jumpi\n      mload(0x40)\n      0x08c379a000000000000000000000000000000000000000000000000000000000\n      dup2\n      mstore\n      0x04\n      add\n      tag_26\n      swap1\n      tag_27\n      jump\t// in\n    tag_26:\n      mload(0x40)\n      dup1\n      swap2\n      sub\n      swap1\n      revert\n    tag_25:\n        /* \"contracts/thomasaurelien.sol\":716:717  0 */\n      0x00\n        /* \"contracts/thomasaurelien.sol\":697:713  _publicationDate */\n      dup2\n        /* \"contracts/thomasaurelien.sol\":697:717  _publicationDate > 0 */\n      gt\n        /* \"contracts/thomasaurelien.sol\":689:734  require(_publicationDate > 0, \"Invalid date\") */\n      tag_28\n      jumpi\n      mload(0x40)\n      0x08c379a000000000000000000000000000000000000000000000000000000000\n      dup2\n      mstore\n      0x04\n      add\n      tag_29\n      swap1\n      tag_30\n      jump\t// in\n    tag_29:\n      mload(0x40)\n      dup1\n      swap2\n      sub\n      swap1\n      revert\n    tag_28:\n        /* \"contracts/thomasaurelien.sol\":747:762  bytes32 docHash */\n      0x00\n        /* \"contracts/thomasaurelien.sol\":792:798  _title */\n      dup4\n        /* \"contracts/thomasaurelien.sol\":800:805  _size */\n      dup4\n        /* \"contracts/thomasaurelien.sol\":807:823  _publicationDate */\n      dup4\n        /* \"contracts/thomasaurelien.sol\":775:824  abi.encodePacked(_title, _size, _publicationDate) */\n      add(0x20, mload(0x40))\n      tag_31\n      swap4\n      swap3\n      swap2\n      swap1\n      tag_32\n      jump\t// in\n    tag_31:\n      mload(0x40)\n      0x20\n      dup2\n      dup4\n      sub\n      sub\n      dup2\n      mstore\n      swap1\n      0x40\n      mstore\n        /* \"contracts/thomasaurelien.sol\":765:825  keccak256(abi.encodePacked(_title, _size, _publicationDate)) */\n      dup1\n      mload\n      swap1\n      0x20\n      add\n      keccak256\n        /* \"contracts/thomasaurelien.sol\":747:825  bytes32 docHash = keccak256(abi.encodePacked(_title, _size, _publicationDate)) */\n      swap1\n      pop\n        /* \"contracts/thomasaurelien.sol\":881:884  0x0 */\n      0x00\n        /* \"contracts/thomasaurelien.sol\":844:884  registeredDocuments[docHash].hash == 0x0 */\n      dup1\n      shl\n        /* \"contracts/thomasaurelien.sol\":844:863  registeredDocuments */\n      0x00\n        /* \"contracts/thomasaurelien.sol\":844:872  registeredDocuments[docHash] */\n      dup1\n        /* \"contracts/thomasaurelien.sol\":864:871  docHash */\n      dup4\n        /* \"contracts/thomasaurelien.sol\":844:872  registeredDocuments[docHash] */\n      dup2\n      mstore\n      0x20\n      add\n      swap1\n      dup2\n      mstore\n      0x20\n      add\n      0x00\n      keccak256\n        /* \"contracts/thomasaurelien.sol\":844:877  registeredDocuments[docHash].hash */\n      0x03\n      add\n      sload\n        /* \"contracts/thomasaurelien.sol\":844:884  registeredDocuments[docHash].hash == 0x0 */\n      eq\n        /* \"contracts/thomasaurelien.sol\":836:916  require(registeredDocuments[docHash].hash == 0x0, \"Document already registered\") */\n      tag_33\n      jumpi\n      mload(0x40)\n      0x08c379a000000000000000000000000000000000000000000000000000000000\n      dup2\n      mstore\n      0x04\n      add\n      tag_34\n      swap1\n      tag_35\n      jump\t// in\n    tag_34:\n      mload(0x40)\n      dup1\n      swap2\n      sub\n      swap1\n      revert\n    tag_33:\n        /* \"contracts/thomasaurelien.sol\":960:1111  Document({\r... */\n      mload(0x40)\n      dup1\n      0x80\n      add\n      0x40\n      mstore\n      dup1\n        /* \"contracts/thomasaurelien.sol\":991:997  _title */\n      dup6\n        /* \"contracts/thomasaurelien.sol\":960:1111  Document({\r... */\n      dup2\n      mstore\n      0x20\n      add\n        /* \"contracts/thomasaurelien.sol\":1018:1023  _size */\n      dup5\n        /* \"contracts/thomasaurelien.sol\":960:1111  Document({\r... */\n      dup2\n      mstore\n      0x20\n      add\n        /* \"contracts/thomasaurelien.sol\":1055:1071  _publicationDate */\n      dup4\n        /* \"contracts/thomasaurelien.sol\":960:1111  Document({\r... */\n      dup2\n      mstore\n      0x20\n      add\n        /* \"contracts/thomasaurelien.sol\":1092:1099  docHash */\n      dup3\n        /* \"contracts/thomasaurelien.sol\":960:1111  Document({\r... */\n      dup2\n      mstore\n      pop\n        /* \"contracts/thomasaurelien.sol\":929:948  registeredDocuments */\n      0x00\n        /* \"contracts/thomasaurelien.sol\":929:957  registeredDocuments[docHash] */\n      dup1\n        /* \"contracts/thomasaurelien.sol\":949:956  docHash */\n      dup4\n        /* \"contracts/thomasaurelien.sol\":929:957  registeredDocuments[docHash] */\n      dup2\n      mstore\n      0x20\n      add\n      swap1\n      dup2\n      mstore\n      0x20\n      add\n      0x00\n      keccak256\n        /* \"contracts/thomasaurelien.sol\":929:1111  registeredDocuments[docHash] = Document({\r... */\n      0x00\n      dup3\n      add\n      mload\n      dup2\n      0x00\n      add\n      swap1\n      dup1\n      mload\n      swap1\n      0x20\n      add\n      swap1\n      tag_36\n      swap3\n      swap2\n      swap1\n      tag_37\n      jump\t// in\n    tag_36:\n      pop\n      0x20\n      dup3\n      add\n      mload\n      dup2\n      0x01\n      add\n      sstore\n      0x40\n      dup3\n      add\n      mload\n      dup2\n      0x02\n      add\n      sstore\n      0x60\n      dup3\n      add\n      mload\n      dup2\n      0x03\n      add\n      sstore\n      swap1\n      pop\n      pop\n        /* \"contracts/thomasaurelien.sol\":1148:1155  docHash */\n      dup1\n        /* \"contracts/thomasaurelien.sol\":1129:1164  DocumentRegistered(docHash, _title) */\n      0xa4ada3b82f1b3a8134556f3b7ead0975a2e4814f94ea2fb8c50f04848f8e5553\n        /* \"contracts/thomasaurelien.sol\":1157:1163  _title */\n      dup6\n        /* \"contracts/thomasaurelien.sol\":1129:1164  DocumentRegistered(docHash, _title) */\n      mload(0x40)\n      tag_38\n      swap2\n      swap1\n      tag_39\n      jump\t// in\n    tag_38:\n      mload(0x40)\n      dup1\n      swap2\n      sub\n      swap1\n      log2\n        /* \"contracts/thomasaurelien.sol\":432:1172  function registerDocument(\r... */\n      pop\n      pop\n      pop\n      pop\n      jump\t// out\n        /* \"contracts/thomasaurelien.sol\":1180:1483  function verifyDocument(\r... */\n    tag_12:\n        /* \"contracts/thomasaurelien.sol\":1322:1326  bool */\n      0x00\n        /* \"contracts/thomasaurelien.sol\":1339:1354  bytes32 docHash */\n      dup1\n        /* \"contracts/thomasaurelien.sol\":1384:1390  _title */\n      dup5\n        /* \"contracts/thomasaurelien.sol\":1392:1397  _size */\n      dup5\n        /* \"contracts/thomasaurelien.sol\":1399:1415  _publicationDate */\n      dup5\n        /* \"contracts/thomasaurelien.sol\":1367:1416  abi.encodePacked(_title, _size, _publicationDate) */\n      add(0x20, mload(0x40))\n      tag_41\n      swap4\n      swap3\n      swap2\n      swap1\n      tag_32\n      jump\t// in\n    tag_41:\n      mload(0x40)\n      0x20\n      dup2\n      dup4\n      sub\n      sub\n      dup2\n      mstore\n      swap1\n      0x40\n      mstore\n        /* \"contracts/thomasaurelien.sol\":1357:1417  keccak256(abi.encodePacked(_title, _size, _publicationDate)) */\n      dup1\n      mload\n      swap1\n      0x20\n      add\n      keccak256\n        /* \"contracts/thomasaurelien.sol\":1339:1417  bytes32 docHash = keccak256(abi.encodePacked(_title, _size, _publicationDate)) */\n      swap1\n      pop\n        /* \"contracts/thomasaurelien.sol\":1472:1475  0x0 */\n      0x00\n        /* \"contracts/thomasaurelien.sol\":1435:1475  registeredDocuments[docHash].hash != 0x0 */\n      dup1\n      shl\n        /* \"contracts/thomasaurelien.sol\":1435:1454  registeredDocuments */\n      0x00\n        /* \"contracts/thomasaurelien.sol\":1435:1463  registeredDocuments[docHash] */\n      dup1\n        /* \"contracts/thomasaurelien.sol\":1455:1462  docHash */\n      dup4\n        /* \"contracts/thomasaurelien.sol\":1435:1463  registeredDocuments[docHash] */\n      dup2\n      mstore\n      0x20\n      add\n      swap1\n      dup2\n      mstore\n      0x20\n      add\n      0x00\n      keccak256\n        /* \"contracts/thomasaurelien.sol\":1435:1468  registeredDocuments[docHash].hash */\n      0x03\n      add\n      sload\n        /* \"contracts/thomasaurelien.sol\":1435:1475  registeredDocuments[docHash].hash != 0x0 */\n      eq\n      iszero\n        /* \"contracts/thomasaurelien.sol\":1428:1475  return registeredDocuments[docHash].hash != 0x0 */\n      swap2\n      pop\n      pop\n        /* \"contracts/thomasaurelien.sol\":1180:1483  function verifyDocument(\r... */\n      swap4\n      swap3\n      pop\n      pop\n      pop\n      jump\t// out\n        /* \"contracts/thomasaurelien.sol\":228:283  mapping(bytes32 => Document) public registeredDocuments */\n    tag_18:\n      mstore(0x20, 0x00)\n      dup1\n      0x00\n      mstore\n      keccak256(0x00, 0x40)\n      0x00\n      swap2\n      pop\n      swap1\n      pop\n      dup1\n      0x00\n      add\n      dup1\n      sload\n      tag_42\n      swap1\n      tag_43\n      jump\t// in\n    tag_42:\n      dup1\n      0x1f\n      add\n      0x20\n      dup1\n      swap2\n      div\n      mul\n      0x20\n      add\n      mload(0x40)\n      swap1\n      dup2\n      add\n      0x40\n      mstore\n      dup1\n      swap3\n      swap2\n      swap1\n      dup2\n      dup2\n      mstore\n      0x20\n      add\n      dup3\n      dup1\n      sload\n      tag_44\n      swap1\n      tag_43\n      jump\t// in\n    tag_44:\n      dup1\n      iszero\n      tag_45\n      jumpi\n      dup1\n      0x1f\n      lt\n      tag_46\n      jumpi\n      0x0100\n      dup1\n      dup4\n      sload\n      div\n      mul\n      dup4\n      mstore\n      swap2\n      0x20\n      add\n      swap2\n      jump(tag_45)\n    tag_46:\n      dup3\n      add\n      swap2\n      swap1\n      0x00\n      mstore\n      keccak256(0x00, 0x20)\n      swap1\n    tag_47:\n      dup2\n      sload\n      dup2\n      mstore\n      swap1\n      0x01\n      add\n      swap1\n      0x20\n      add\n      dup1\n      dup4\n      gt\n      tag_47\n      jumpi\n      dup3\n      swap1\n      sub\n      0x1f\n      and\n      dup3\n      add\n      swap2\n    tag_45:\n      pop\n      pop\n      pop\n      pop\n      pop\n      swap1\n      dup1\n      0x01\n      add\n      sload\n      swap1\n      dup1\n      0x02\n      add\n      sload\n      swap1\n      dup1\n      0x03\n      add\n      sload\n      swap1\n      pop\n      dup5\n      jump\t// out\n    tag_37:\n      dup3\n      dup1\n      sload\n      tag_48\n      swap1\n      tag_43\n      jump\t// in\n    tag_48:\n      swap1\n      0x00\n      mstore\n      keccak256(0x00, 0x20)\n      swap1\n      0x1f\n      add\n      0x20\n      swap1\n      div\n      dup2\n      add\n      swap3\n      dup3\n      tag_50\n      jumpi\n      0x00\n      dup6\n      sstore\n      jump(tag_49)\n    tag_50:\n      dup3\n      0x1f\n      lt\n      tag_51\n      jumpi\n      dup1\n      mload\n      not(0xff)\n      and\n      dup4\n      dup1\n      add\n      or\n      dup6\n      sstore\n      jump(tag_49)\n    tag_51:\n      dup3\n      dup1\n      add\n      0x01\n      add\n      dup6\n      sstore\n      dup3\n      iszero\n      tag_49\n      jumpi\n      swap2\n      dup3\n      add\n    tag_52:\n      dup3\n      dup2\n      gt\n      iszero\n      tag_53\n      jumpi\n      dup3\n      mload\n      dup3\n      sstore\n      swap2\n      0x20\n      add\n      swap2\n      swap1\n      0x01\n      add\n      swap1\n      jump(tag_52)\n    tag_53:\n    tag_49:\n      pop\n      swap1\n      pop\n      tag_54\n      swap2\n      swap1\n      tag_55\n      jump\t// in\n    tag_54:\n      pop\n      swap1\n      jump\t// out\n    tag_55:\n    tag_56:\n      dup1\n      dup3\n      gt\n      iszero\n      tag_57\n      jumpi\n      0x00\n      dup2\n      0x00\n      swap1\n      sstore\n      pop\n      0x01\n      add\n      jump(tag_56)\n    tag_57:\n      pop\n      swap1\n      jump\t// out\n        /* \"#utility.yul\":7:351   */\n    tag_59:\n      0x00\n        /* \"#utility.yul\":110:175   */\n      tag_61\n        /* \"#utility.yul\":125:174   */\n      tag_62\n        /* \"#utility.yul\":167:173   */\n      dup5\n        /* \"#utility.yul\":125:174   */\n      tag_63\n      jump\t// in\n    tag_62:\n        /* \"#utility.yul\":110:175   */\n      tag_64\n      jump\t// in\n    tag_61:\n        /* \"#utility.yul\":101:175   */\n      swap1\n      pop\n        /* \"#utility.yul\":198:204   */\n      dup3\n        /* \"#utility.yul\":191:196   */\n      dup2\n        /* \"#utility.yul\":184:205   */\n      mstore\n        /* \"#utility.yul\":236:240   */\n      0x20\n        /* \"#utility.yul\":229:234   */\n      dup2\n        /* \"#utility.yul\":225:241   */\n      add\n        /* \"#utility.yul\":274:277   */\n      dup5\n        /* \"#utility.yul\":265:271   */\n      dup5\n        /* \"#utility.yul\":260:263   */\n      dup5\n        /* \"#utility.yul\":256:272   */\n      add\n        /* \"#utility.yul\":253:278   */\n      gt\n        /* \"#utility.yul\":250:252   */\n      iszero\n      tag_65\n      jumpi\n        /* \"#utility.yul\":291:292   */\n      0x00\n        /* \"#utility.yul\":288:289   */\n      dup1\n        /* \"#utility.yul\":281:293   */\n      revert\n        /* \"#utility.yul\":250:252   */\n    tag_65:\n        /* \"#utility.yul\":304:345   */\n      tag_66\n        /* \"#utility.yul\":338:344   */\n      dup5\n        /* \"#utility.yul\":333:336   */\n      dup3\n        /* \"#utility.yul\":328:331   */\n      dup6\n        /* \"#utility.yul\":304:345   */\n      tag_67\n      jump\t// in\n    tag_66:\n        /* \"#utility.yul\":91:351   */\n      pop\n      swap4\n      swap3\n      pop\n      pop\n      pop\n      jump\t// out\n        /* \"#utility.yul\":357:496   */\n    tag_68:\n      0x00\n        /* \"#utility.yul\":441:447   */\n      dup2\n        /* \"#utility.yul\":428:448   */\n      calldataload\n        /* \"#utility.yul\":419:448   */\n      swap1\n      pop\n        /* \"#utility.yul\":457:490   */\n      tag_70\n        /* \"#utility.yul\":484:489   */\n      dup2\n        /* \"#utility.yul\":457:490   */\n      tag_71\n      jump\t// in\n    tag_70:\n        /* \"#utility.yul\":409:496   */\n      swap3\n      swap2\n      pop\n      pop\n      jump\t// out\n        /* \"#utility.yul\":516:789   */\n    tag_72:\n      0x00\n        /* \"#utility.yul\":621:624   */\n      dup3\n        /* \"#utility.yul\":614:618   */\n      0x1f\n        /* \"#utility.yul\":606:612   */\n      dup4\n        /* \"#utility.yul\":602:619   */\n      add\n        /* \"#utility.yul\":598:625   */\n      slt\n        /* \"#utility.yul\":588:590   */\n      tag_74\n      jumpi\n        /* \"#utility.yul\":639:640   */\n      0x00\n        /* \"#utility.yul\":636:637   */\n      dup1\n        /* \"#utility.yul\":629:641   */\n      revert\n        /* \"#utility.yul\":588:590   */\n    tag_74:\n        /* \"#utility.yul\":679:685   */\n      dup2\n        /* \"#utility.yul\":666:686   */\n      calldataload\n        /* \"#utility.yul\":704:783   */\n      tag_75\n        /* \"#utility.yul\":779:782   */\n      dup5\n        /* \"#utility.yul\":771:777   */\n      dup3\n        /* \"#utility.yul\":764:768   */\n      0x20\n        /* \"#utility.yul\":756:762   */\n      dup7\n        /* \"#utility.yul\":752:769   */\n      add\n        /* \"#utility.yul\":704:783   */\n      tag_59\n      jump\t// in\n    tag_75:\n        /* \"#utility.yul\":695:783   */\n      swap2\n      pop\n        /* \"#utility.yul\":578:789   */\n      pop\n      swap3\n      swap2\n      pop\n      pop\n      jump\t// out\n        /* \"#utility.yul\":795:934   */\n    tag_76:\n      0x00\n        /* \"#utility.yul\":879:885   */\n      dup2\n        /* \"#utility.yul\":866:886   */\n      calldataload\n        /* \"#utility.yul\":857:886   */\n      swap1\n      pop\n        /* \"#utility.yul\":895:928   */\n      tag_78\n        /* \"#utility.yul\":922:927   */\n      dup2\n        /* \"#utility.yul\":895:928   */\n      tag_79\n      jump\t// in\n    tag_78:\n        /* \"#utility.yul\":847:934   */\n      swap3\n      swap2\n      pop\n      pop\n      jump\t// out\n        /* \"#utility.yul\":940:1202   */\n    tag_17:\n      0x00\n        /* \"#utility.yul\":1048:1050   */\n      0x20\n        /* \"#utility.yul\":1036:1045   */\n      dup3\n        /* \"#utility.yul\":1027:1034   */\n      dup5\n        /* \"#utility.yul\":1023:1046   */\n      sub\n        /* \"#utility.yul\":1019:1051   */\n      slt\n        /* \"#utility.yul\":1016:1018   */\n      iszero\n      tag_81\n      jumpi\n        /* \"#utility.yul\":1064:1065   */\n      0x00\n        /* \"#utility.yul\":1061:1062   */\n      dup1\n        /* \"#utility.yul\":1054:1066   */\n      revert\n        /* \"#utility.yul\":1016:1018   */\n    tag_81:\n        /* \"#utility.yul\":1107:1108   */\n      0x00\n        /* \"#utility.yul\":1132:1185   */\n      tag_82\n        /* \"#utility.yul\":1177:1184   */\n      dup5\n        /* \"#utility.yul\":1168:1174   */\n      dup3\n        /* \"#utility.yul\":1157:1166   */\n      dup6\n        /* \"#utility.yul\":1153:1175   */\n      add\n        /* \"#utility.yul\":1132:1185   */\n      tag_68\n      jump\t// in\n    tag_82:\n        /* \"#utility.yul\":1122:1185   */\n      swap2\n      pop\n        /* \"#utility.yul\":1078:1195   */\n      pop\n        /* \"#utility.yul\":1006:1202   */\n      swap3\n      swap2\n      pop\n      pop\n      jump\t// out\n        /* \"#utility.yul\":1208:1873   */\n    tag_8:\n      0x00\n      dup1\n      0x00\n        /* \"#utility.yul\":1360:1362   */\n      0x60\n        /* \"#utility.yul\":1348:1357   */\n      dup5\n        /* \"#utility.yul\":1339:1346   */\n      dup7\n        /* \"#utility.yul\":1335:1358   */\n      sub\n        /* \"#utility.yul\":1331:1363   */\n      slt\n        /* \"#utility.yul\":1328:1330   */\n      iszero\n      tag_84\n      jumpi\n        /* \"#utility.yul\":1376:1377   */\n      0x00\n        /* \"#utility.yul\":1373:1374   */\n      dup1\n        /* \"#utility.yul\":1366:1378   */\n      revert\n        /* \"#utility.yul\":1328:1330   */\n    tag_84:\n        /* \"#utility.yul\":1447:1448   */\n      0x00\n        /* \"#utility.yul\":1436:1445   */\n      dup5\n        /* \"#utility.yul\":1432:1449   */\n      add\n        /* \"#utility.yul\":1419:1450   */\n      calldataload\n        /* \"#utility.yul\":1477:1495   */\n      0xffffffffffffffff\n        /* \"#utility.yul\":1469:1475   */\n      dup2\n        /* \"#utility.yul\":1466:1496   */\n      gt\n        /* \"#utility.yul\":1463:1465   */\n      iszero\n      tag_85\n      jumpi\n        /* \"#utility.yul\":1509:1510   */\n      0x00\n        /* \"#utility.yul\":1506:1507   */\n      dup1\n        /* \"#utility.yul\":1499:1511   */\n      revert\n        /* \"#utility.yul\":1463:1465   */\n    tag_85:\n        /* \"#utility.yul\":1537:1600   */\n      tag_86\n        /* \"#utility.yul\":1592:1599   */\n      dup7\n        /* \"#utility.yul\":1583:1589   */\n      dup3\n        /* \"#utility.yul\":1572:1581   */\n      dup8\n        /* \"#utility.yul\":1568:1590   */\n      add\n        /* \"#utility.yul\":1537:1600   */\n      tag_72\n      jump\t// in\n    tag_86:\n        /* \"#utility.yul\":1527:1600   */\n      swap4\n      pop\n        /* \"#utility.yul\":1390:1610   */\n      pop\n        /* \"#utility.yul\":1649:1651   */\n      0x20\n        /* \"#utility.yul\":1675:1728   */\n      tag_87\n        /* \"#utility.yul\":1720:1727   */\n      dup7\n        /* \"#utility.yul\":1711:1717   */\n      dup3\n        /* \"#utility.yul\":1700:1709   */\n      dup8\n        /* \"#utility.yul\":1696:1718   */\n      add\n        /* \"#utility.yul\":1675:1728   */\n      tag_76\n      jump\t// in\n    tag_87:\n        /* \"#utility.yul\":1665:1728   */\n      swap3\n      pop\n        /* \"#utility.yul\":1620:1738   */\n      pop\n        /* \"#utility.yul\":1777:1779   */\n      0x40\n        /* \"#utility.yul\":1803:1856   */\n      tag_88\n        /* \"#utility.yul\":1848:1855   */\n      dup7\n        /* \"#utility.yul\":1839:1845   */\n      dup3\n        /* \"#utility.yul\":1828:1837   */\n      dup8\n        /* \"#utility.yul\":1824:1846   */\n      add\n        /* \"#utility.yul\":1803:1856   */\n      tag_76\n      jump\t// in\n    tag_88:\n        /* \"#utility.yul\":1793:1856   */\n      swap2\n      pop\n        /* \"#utility.yul\":1748:1866   */\n      pop\n        /* \"#utility.yul\":1318:1873   */\n      swap3\n      pop\n      swap3\n      pop\n      swap3\n      jump\t// out\n        /* \"#utility.yul\":1879:1988   */\n    tag_89:\n        /* \"#utility.yul\":1960:1981   */\n      tag_91\n        /* \"#utility.yul\":1975:1980   */\n      dup2\n        /* \"#utility.yul\":1960:1981   */\n      tag_92\n      jump\t// in\n    tag_91:\n        /* \"#utility.yul\":1955:1958   */\n      dup3\n        /* \"#utility.yul\":1948:1982   */\n      mstore\n        /* \"#utility.yul\":1938:1988   */\n      pop\n      pop\n      jump\t// out\n        /* \"#utility.yul\":1994:2112   */\n    tag_93:\n        /* \"#utility.yul\":2081:2105   */\n      tag_95\n        /* \"#utility.yul\":2099:2104   */\n      dup2\n        /* \"#utility.yul\":2081:2105   */\n      tag_96\n      jump\t// in\n    tag_95:\n        /* \"#utility.yul\":2076:2079   */\n      dup3\n        /* \"#utility.yul\":2069:2106   */\n      mstore\n        /* \"#utility.yul\":2059:2112   */\n      pop\n      pop\n      jump\t// out\n        /* \"#utility.yul\":2118:2482   */\n    tag_97:\n      0x00\n        /* \"#utility.yul\":2234:2273   */\n      tag_99\n        /* \"#utility.yul\":2267:2272   */\n      dup3\n        /* \"#utility.yul\":2234:2273   */\n      tag_100\n      jump\t// in\n    tag_99:\n        /* \"#utility.yul\":2289:2360   */\n      tag_101\n        /* \"#utility.yul\":2353:2359   */\n      dup2\n        /* \"#utility.yul\":2348:2351   */\n      dup6\n        /* \"#utility.yul\":2289:2360   */\n      tag_102\n      jump\t// in\n    tag_101:\n        /* \"#utility.yul\":2282:2360   */\n      swap4\n      pop\n        /* \"#utility.yul\":2369:2421   */\n      tag_103\n        /* \"#utility.yul\":2414:2420   */\n      dup2\n        /* \"#utility.yul\":2409:2412   */\n      dup6\n        /* \"#utility.yul\":2402:2406   */\n      0x20\n        /* \"#utility.yul\":2395:2400   */\n      dup7\n        /* \"#utility.yul\":2391:2407   */\n      add\n        /* \"#utility.yul\":2369:2421   */\n      tag_104\n      jump\t// in\n    tag_103:\n        /* \"#utility.yul\":2446:2475   */\n      tag_105\n        /* \"#utility.yul\":2468:2474   */\n      dup2\n        /* \"#utility.yul\":2446:2475   */\n      tag_106\n      jump\t// in\n    tag_105:\n        /* \"#utility.yul\":2441:2444   */\n      dup5\n        /* \"#utility.yul\":2437:2476   */\n      add\n        /* \"#utility.yul\":2430:2476   */\n      swap2\n      pop\n        /* \"#utility.yul\":2210:2482   */\n      pop\n      swap3\n      swap2\n      pop\n      pop\n      jump\t// out\n        /* \"#utility.yul\":2488:2865   */\n    tag_107:\n      0x00\n        /* \"#utility.yul\":2622:2661   */\n      tag_109\n        /* \"#utility.yul\":2655:2660   */\n      dup3\n        /* \"#utility.yul\":2622:2661   */\n      tag_100\n      jump\t// in\n    tag_109:\n        /* \"#utility.yul\":2677:2766   */\n      tag_110\n        /* \"#utility.yul\":2759:2765   */\n      dup2\n        /* \"#utility.yul\":2754:2757   */\n      dup6\n        /* \"#utility.yul\":2677:2766   */\n      tag_111\n      jump\t// in\n    tag_110:\n        /* \"#utility.yul\":2670:2766   */\n      swap4\n      pop\n        /* \"#utility.yul\":2775:2827   */\n      tag_112\n        /* \"#utility.yul\":2820:2826   */\n      dup2\n        /* \"#utility.yul\":2815:2818   */\n      dup6\n        /* \"#utility.yul\":2808:2812   */\n      0x20\n        /* \"#utility.yul\":2801:2806   */\n      dup7\n        /* \"#utility.yul\":2797:2813   */\n      add\n        /* \"#utility.yul\":2775:2827   */\n      tag_104\n      jump\t// in\n    tag_112:\n        /* \"#utility.yul\":2852:2858   */\n      dup1\n        /* \"#utility.yul\":2847:2850   */\n      dup5\n        /* \"#utility.yul\":2843:2859   */\n      add\n        /* \"#utility.yul\":2836:2859   */\n      swap2\n      pop\n        /* \"#utility.yul\":2598:2865   */\n      pop\n      swap3\n      swap2\n      pop\n      pop\n      jump\t// out\n        /* \"#utility.yul\":2871:3196   */\n    tag_113:\n      0x00\n        /* \"#utility.yul\":3034:3101   */\n      tag_115\n        /* \"#utility.yul\":3098:3100   */\n      0x1b\n        /* \"#utility.yul\":3093:3096   */\n      dup4\n        /* \"#utility.yul\":3034:3101   */\n      tag_102\n      jump\t// in\n    tag_115:\n        /* \"#utility.yul\":3027:3101   */\n      swap2\n      pop\n        /* \"#utility.yul\":3131:3160   */\n      0x446f63756d656e7420616c726561647920726567697374657265640000000000\n        /* \"#utility.yul\":3127:3128   */\n      0x00\n        /* \"#utility.yul\":3122:3125   */\n      dup4\n        /* \"#utility.yul\":3118:3129   */\n      add\n        /* \"#utility.yul\":3111:3161   */\n      mstore\n        /* \"#utility.yul\":3187:3189   */\n      0x20\n        /* \"#utility.yul\":3182:3185   */\n      dup3\n        /* \"#utility.yul\":3178:3190   */\n      add\n        /* \"#utility.yul\":3171:3190   */\n      swap1\n      pop\n        /* \"#utility.yul\":3017:3196   */\n      swap2\n      swap1\n      pop\n      jump\t// out\n        /* \"#utility.yul\":3202:3514   */\n    tag_116:\n      0x00\n        /* \"#utility.yul\":3365:3432   */\n      tag_118\n        /* \"#utility.yul\":3429:3431   */\n      0x0e\n        /* \"#utility.yul\":3424:3427   */\n      dup4\n        /* \"#utility.yul\":3365:3432   */\n      tag_102\n      jump\t// in\n    tag_118:\n        /* \"#utility.yul\":3358:3432   */\n      swap2\n      pop\n        /* \"#utility.yul\":3462:3478   */\n      0x5469746c65207265717569726564000000000000000000000000000000000000\n        /* \"#utility.yul\":3458:3459   */\n      0x00\n        /* \"#utility.yul\":3453:3456   */\n      dup4\n        /* \"#utility.yul\":3449:3460   */\n      add\n        /* \"#utility.yul\":3442:3479   */\n      mstore\n        /* \"#utility.yul\":3505:3507   */\n      0x20\n        /* \"#utility.yul\":3500:3503   */\n      dup3\n        /* \"#utility.yul\":3496:3508   */\n      add\n        /* \"#utility.yul\":3489:3508   */\n      swap1\n      pop\n        /* \"#utility.yul\":3348:3514   */\n      swap2\n      swap1\n      pop\n      jump\t// out\n        /* \"#utility.yul\":3520:3839   */\n    tag_119:\n      0x00\n        /* \"#utility.yul\":3683:3750   */\n      tag_121\n        /* \"#utility.yul\":3747:3749   */\n      0x15\n        /* \"#utility.yul\":3742:3745   */\n      dup4\n        /* \"#utility.yul\":3683:3750   */\n      tag_102\n      jump\t// in\n    tag_121:\n        /* \"#utility.yul\":3676:3750   */\n      swap2\n      pop\n        /* \"#utility.yul\":3780:3803   */\n      0x53697a65206d75737420626520706f7369746976650000000000000000000000\n        /* \"#utility.yul\":3776:3777   */\n      0x00\n        /* \"#utility.yul\":3771:3774   */\n      dup4\n        /* \"#utility.yul\":3767:3778   */\n      add\n        /* \"#utility.yul\":3760:3804   */\n      mstore\n        /* \"#utility.yul\":3830:3832   */\n      0x20\n        /* \"#utility.yul\":3825:3828   */\n      dup3\n        /* \"#utility.yul\":3821:3833   */\n      add\n        /* \"#utility.yul\":3814:3833   */\n      swap1\n      pop\n        /* \"#utility.yul\":3666:3839   */\n      swap2\n      swap1\n      pop\n      jump\t// out\n        /* \"#utility.yul\":3845:4155   */\n    tag_122:\n      0x00\n        /* \"#utility.yul\":4008:4075   */\n      tag_124\n        /* \"#utility.yul\":4072:4074   */\n      0x0c\n        /* \"#utility.yul\":4067:4070   */\n      dup4\n        /* \"#utility.yul\":4008:4075   */\n      tag_102\n      jump\t// in\n    tag_124:\n        /* \"#utility.yul\":4001:4075   */\n      swap2\n      pop\n        /* \"#utility.yul\":4105:4119   */\n      0x496e76616c696420646174650000000000000000000000000000000000000000\n        /* \"#utility.yul\":4101:4102   */\n      0x00\n        /* \"#utility.yul\":4096:4099   */\n      dup4\n        /* \"#utility.yul\":4092:4103   */\n      add\n        /* \"#utility.yul\":4085:4120   */\n      mstore\n        /* \"#utility.yul\":4146:4148   */\n      0x20\n        /* \"#utility.yul\":4141:4144   */\n      dup3\n        /* \"#utility.yul\":4137:4149   */\n      add\n        /* \"#utility.yul\":4130:4149   */\n      swap1\n      pop\n        /* \"#utility.yul\":3991:4155   */\n      swap2\n      swap1\n      pop\n      jump\t// out\n        /* \"#utility.yul\":4161:4279   */\n    tag_125:\n        /* \"#utility.yul\":4248:4272   */\n      tag_127\n        /* \"#utility.yul\":4266:4271   */\n      dup2\n        /* \"#utility.yul\":4248:4272   */\n      tag_128\n      jump\t// in\n    tag_127:\n        /* \"#utility.yul\":4243:4246   */\n      dup3\n        /* \"#utility.yul\":4236:4273   */\n      mstore\n        /* \"#utility.yul\":4226:4279   */\n      pop\n      pop\n      jump\t// out\n        /* \"#utility.yul\":4285:4442   */\n    tag_129:\n        /* \"#utility.yul\":4390:4435   */\n      tag_131\n        /* \"#utility.yul\":4410:4434   */\n      tag_132\n        /* \"#utility.yul\":4428:4433   */\n      dup3\n        /* \"#utility.yul\":4410:4434   */\n      tag_128\n      jump\t// in\n    tag_132:\n        /* \"#utility.yul\":4390:4435   */\n      tag_133\n      jump\t// in\n    tag_131:\n        /* \"#utility.yul\":4385:4388   */\n      dup3\n        /* \"#utility.yul\":4378:4436   */\n      mstore\n        /* \"#utility.yul\":4368:4442   */\n      pop\n      pop\n      jump\t// out\n        /* \"#utility.yul\":4448:5005   */\n    tag_32:\n      0x00\n        /* \"#utility.yul\":4658:4753   */\n      tag_135\n        /* \"#utility.yul\":4749:4752   */\n      dup3\n        /* \"#utility.yul\":4740:4746   */\n      dup7\n        /* \"#utility.yul\":4658:4753   */\n      tag_107\n      jump\t// in\n    tag_135:\n        /* \"#utility.yul\":4651:4753   */\n      swap2\n      pop\n        /* \"#utility.yul\":4763:4838   */\n      tag_136\n        /* \"#utility.yul\":4834:4837   */\n      dup3\n        /* \"#utility.yul\":4825:4831   */\n      dup6\n        /* \"#utility.yul\":4763:4838   */\n      tag_129\n      jump\t// in\n    tag_136:\n        /* \"#utility.yul\":4863:4865   */\n      0x20\n        /* \"#utility.yul\":4858:4861   */\n      dup3\n        /* \"#utility.yul\":4854:4866   */\n      add\n        /* \"#utility.yul\":4847:4866   */\n      swap2\n      pop\n        /* \"#utility.yul\":4876:4951   */\n      tag_137\n        /* \"#utility.yul\":4947:4950   */\n      dup3\n        /* \"#utility.yul\":4938:4944   */\n      dup5\n        /* \"#utility.yul\":4876:4951   */\n      tag_129\n      jump\t// in\n    tag_137:\n        /* \"#utility.yul\":4976:4978   */\n      0x20\n        /* \"#utility.yul\":4971:4974   */\n      dup3\n        /* \"#utility.yul\":4967:4979   */\n      add\n        /* \"#utility.yul\":4960:4979   */\n      swap2\n      pop\n        /* \"#utility.yul\":4996:4999   */\n      dup2\n        /* \"#utility.yul\":4989:4999   */\n      swap1\n      pop\n        /* \"#utility.yul\":4640:5005   */\n      swap5\n      swap4\n      pop\n      pop\n      pop\n      pop\n      jump\t// out\n        /* \"#utility.yul\":5011:5221   */\n    tag_14:\n      0x00\n        /* \"#utility.yul\":5136:5138   */\n      0x20\n        /* \"#utility.yul\":5125:5134   */\n      dup3\n        /* \"#utility.yul\":5121:5139   */\n      add\n        /* \"#utility.yul\":5113:5139   */\n      swap1\n      pop\n        /* \"#utility.yul\":5149:5214   */\n      tag_139\n        /* \"#utility.yul\":5211:5212   */\n      0x00\n        /* \"#utility.yul\":5200:5209   */\n      dup4\n        /* \"#utility.yul\":5196:5213   */\n      add\n        /* \"#utility.yul\":5187:5193   */\n      dup5\n        /* \"#utility.yul\":5149:5214   */\n      tag_89\n      jump\t// in\n    tag_139:\n        /* \"#utility.yul\":5103:5221   */\n      swap3\n      swap2\n      pop\n      pop\n      jump\t// out\n        /* \"#utility.yul\":5227:5540   */\n    tag_39:\n      0x00\n        /* \"#utility.yul\":5378:5380   */\n      0x20\n        /* \"#utility.yul\":5367:5376   */\n      dup3\n        /* \"#utility.yul\":5363:5381   */\n      add\n        /* \"#utility.yul\":5355:5381   */\n      swap1\n      pop\n        /* \"#utility.yul\":5427:5436   */\n      dup2\n        /* \"#utility.yul\":5421:5425   */\n      dup2\n        /* \"#utility.yul\":5417:5437   */\n      sub\n        /* \"#utility.yul\":5413:5414   */\n      0x00\n        /* \"#utility.yul\":5402:5411   */\n      dup4\n        /* \"#utility.yul\":5398:5415   */\n      add\n        /* \"#utility.yul\":5391:5438   */\n      mstore\n        /* \"#utility.yul\":5455:5533   */\n      tag_141\n        /* \"#utility.yul\":5528:5532   */\n      dup2\n        /* \"#utility.yul\":5519:5525   */\n      dup5\n        /* \"#utility.yul\":5455:5533   */\n      tag_97\n      jump\t// in\n    tag_141:\n        /* \"#utility.yul\":5447:5533   */\n      swap1\n      pop\n        /* \"#utility.yul\":5345:5540   */\n      swap3\n      swap2\n      pop\n      pop\n      jump\t// out\n        /* \"#utility.yul\":5546:6190   */\n    tag_20:\n      0x00\n        /* \"#utility.yul\":5781:5784   */\n      0x80\n        /* \"#utility.yul\":5770:5779   */\n      dup3\n        /* \"#utility.yul\":5766:5785   */\n      add\n        /* \"#utility.yul\":5758:5785   */\n      swap1\n      pop\n        /* \"#utility.yul\":5831:5840   */\n      dup2\n        /* \"#utility.yul\":5825:5829   */\n      dup2\n        /* \"#utility.yul\":5821:5841   */\n      sub\n        /* \"#utility.yul\":5817:5818   */\n      0x00\n        /* \"#utility.yul\":5806:5815   */\n      dup4\n        /* \"#utility.yul\":5802:5819   */\n      add\n        /* \"#utility.yul\":5795:5842   */\n      mstore\n        /* \"#utility.yul\":5859:5937   */\n      tag_143\n        /* \"#utility.yul\":5932:5936   */\n      dup2\n        /* \"#utility.yul\":5923:5929   */\n      dup8\n        /* \"#utility.yul\":5859:5937   */\n      tag_97\n      jump\t// in\n    tag_143:\n        /* \"#utility.yul\":5851:5937   */\n      swap1\n      pop\n        /* \"#utility.yul\":5947:6019   */\n      tag_144\n        /* \"#utility.yul\":6015:6017   */\n      0x20\n        /* \"#utility.yul\":6004:6013   */\n      dup4\n        /* \"#utility.yul\":6000:6018   */\n      add\n        /* \"#utility.yul\":5991:5997   */\n      dup7\n        /* \"#utility.yul\":5947:6019   */\n      tag_125\n      jump\t// in\n    tag_144:\n        /* \"#utility.yul\":6029:6101   */\n      tag_145\n        /* \"#utility.yul\":6097:6099   */\n      0x40\n        /* \"#utility.yul\":6086:6095   */\n      dup4\n        /* \"#utility.yul\":6082:6100   */\n      add\n        /* \"#utility.yul\":6073:6079   */\n      dup6\n        /* \"#utility.yul\":6029:6101   */\n      tag_125\n      jump\t// in\n    tag_145:\n        /* \"#utility.yul\":6111:6183   */\n      tag_146\n        /* \"#utility.yul\":6179:6181   */\n      0x60\n        /* \"#utility.yul\":6168:6177   */\n      dup4\n        /* \"#utility.yul\":6164:6182   */\n      add\n        /* \"#utility.yul\":6155:6161   */\n      dup5\n        /* \"#utility.yul\":6111:6183   */\n      tag_93\n      jump\t// in\n    tag_146:\n        /* \"#utility.yul\":5748:6190   */\n      swap6\n      swap5\n      pop\n      pop\n      pop\n      pop\n      pop\n      jump\t// out\n        /* \"#utility.yul\":6196:6615   */\n    tag_35:\n      0x00\n        /* \"#utility.yul\":6400:6402   */\n      0x20\n        /* \"#utility.yul\":6389:6398   */\n      dup3\n        /* \"#utility.yul\":6385:6403   */\n      add\n        /* \"#utility.yul\":6377:6403   */\n      swap1\n      pop\n        /* \"#utility.yul\":6449:6458   */\n      dup2\n        /* \"#utility.yul\":6443:6447   */\n      dup2\n        /* \"#utility.yul\":6439:6459   */\n      sub\n        /* \"#utility.yul\":6435:6436   */\n      0x00\n        /* \"#utility.yul\":6424:6433   */\n      dup4\n        /* \"#utility.yul\":6420:6437   */\n      add\n        /* \"#utility.yul\":6413:6460   */\n      mstore\n        /* \"#utility.yul\":6477:6608   */\n      tag_148\n        /* \"#utility.yul\":6603:6607   */\n      dup2\n        /* \"#utility.yul\":6477:6608   */\n      tag_113\n      jump\t// in\n    tag_148:\n        /* \"#utility.yul\":6469:6608   */\n      swap1\n      pop\n        /* \"#utility.yul\":6367:6615   */\n      swap2\n      swap1\n      pop\n      jump\t// out\n        /* \"#utility.yul\":6621:7040   */\n    tag_24:\n      0x00\n        /* \"#utility.yul\":6825:6827   */\n      0x20\n        /* \"#utility.yul\":6814:6823   */\n      dup3\n        /* \"#utility.yul\":6810:6828   */\n      add\n        /* \"#utility.yul\":6802:6828   */\n      swap1\n      pop\n        /* \"#utility.yul\":6874:6883   */\n      dup2\n        /* \"#utility.yul\":6868:6872   */\n      dup2\n        /* \"#utility.yul\":6864:6884   */\n      sub\n        /* \"#utility.yul\":6860:6861   */\n      0x00\n        /* \"#utility.yul\":6849:6858   */\n      dup4\n        /* \"#utility.yul\":6845:6862   */\n      add\n        /* \"#utility.yul\":6838:6885   */\n      mstore\n        /* \"#utility.yul\":6902:7033   */\n      tag_150\n        /* \"#utility.yul\":7028:7032   */\n      dup2\n        /* \"#utility.yul\":6902:7033   */\n      tag_116\n      jump\t// in\n    tag_150:\n        /* \"#utility.yul\":6894:7033   */\n      swap1\n      pop\n        /* \"#utility.yul\":6792:7040   */\n      swap2\n      swap1\n      pop\n      jump\t// out\n        /* \"#utility.yul\":7046:7465   */\n    tag_27:\n      0x00\n        /* \"#utility.yul\":7250:7252   */\n      0x20\n        /* \"#utility.yul\":7239:7248   */\n      dup3\n        /* \"#utility.yul\":7235:7253   */\n      add\n        /* \"#utility.yul\":7227:7253   */\n      swap1\n      pop\n        /* \"#utility.yul\":7299:7308   */\n      dup2\n        /* \"#utility.yul\":7293:7297   */\n      dup2\n        /* \"#utility.yul\":7289:7309   */\n      sub\n        /* \"#utility.yul\":7285:7286   */\n      0x00\n        /* \"#utility.yul\":7274:7283   */\n      dup4\n        /* \"#utility.yul\":7270:7287   */\n      add\n        /* \"#utility.yul\":7263:7310   */\n      mstore\n        /* \"#utility.yul\":7327:7458   */\n      tag_152\n        /* \"#utility.yul\":7453:7457   */\n      dup2\n        /* \"#utility.yul\":7327:7458   */\n      tag_119\n      jump\t// in\n    tag_152:\n        /* \"#utility.yul\":7319:7458   */\n      swap1\n      pop\n        /* \"#utility.yul\":7217:7465   */\n      swap2\n      swap1\n      pop\n      jump\t// out\n        /* \"#utility.yul\":7471:7890   */\n    tag_30:\n      0x00\n        /* \"#utility.yul\":7675:7677   */\n      0x20\n        /* \"#utility.yul\":7664:7673   */\n      dup3\n        /* \"#utility.yul\":7660:7678   */\n      add\n        /* \"#utility.yul\":7652:7678   */\n      swap1\n      pop\n        /* \"#utility.yul\":7724:7733   */\n      dup2\n        /* \"#utility.yul\":7718:7722   */\n      dup2\n        /* \"#utility.yul\":7714:7734   */\n      sub\n        /* \"#utility.yul\":7710:7711   */\n      0x00\n        /* \"#utility.yul\":7699:7708   */\n      dup4\n        /* \"#utility.yul\":7695:7712   */\n      add\n        /* \"#utility.yul\":7688:7735   */\n      mstore\n        /* \"#utility.yul\":7752:7883   */\n      tag_154\n        /* \"#utility.yul\":7878:7882   */\n      dup2\n        /* \"#utility.yul\":7752:7883   */\n      tag_122\n      jump\t// in\n    tag_154:\n        /* \"#utility.yul\":7744:7883   */\n      swap1\n      pop\n        /* \"#utility.yul\":7642:7890   */\n      swap2\n      swap1\n      pop\n      jump\t// out\n        /* \"#utility.yul\":7896:8179   */\n    tag_64:\n      0x00\n        /* \"#utility.yul\":7962:7964   */\n      0x40\n        /* \"#utility.yul\":7956:7965   */\n      mload\n        /* \"#utility.yul\":7946:7965   */\n      swap1\n      pop\n        /* \"#utility.yul\":8004:8008   */\n      dup2\n        /* \"#utility.yul\":7996:8002   */\n      dup2\n        /* \"#utility.yul\":7992:8009   */\n      add\n        /* \"#utility.yul\":8111:8117   */\n      dup2\n        /* \"#utility.yul\":8099:8109   */\n      dup2\n        /* \"#utility.yul\":8096:8118   */\n      lt\n        /* \"#utility.yul\":8075:8093   */\n      0xffffffffffffffff\n        /* \"#utility.yul\":8063:8073   */\n      dup3\n        /* \"#utility.yul\":8060:8094   */\n      gt\n        /* \"#utility.yul\":8057:8119   */\n      or\n        /* \"#utility.yul\":8054:8056   */\n      iszero\n      tag_156\n      jumpi\n        /* \"#utility.yul\":8122:8140   */\n      tag_157\n      tag_158\n      jump\t// in\n    tag_157:\n        /* \"#utility.yul\":8054:8056   */\n    tag_156:\n        /* \"#utility.yul\":8162:8172   */\n      dup1\n        /* \"#utility.yul\":8158:8160   */\n      0x40\n        /* \"#utility.yul\":8151:8173   */\n      mstore\n        /* \"#utility.yul\":7936:8179   */\n      pop\n      swap2\n      swap1\n      pop\n      jump\t// out\n        /* \"#utility.yul\":8185:8517   */\n    tag_63:\n      0x00\n        /* \"#utility.yul\":8337:8355   */\n      0xffffffffffffffff\n        /* \"#utility.yul\":8329:8335   */\n      dup3\n        /* \"#utility.yul\":8326:8356   */\n      gt\n        /* \"#utility.yul\":8323:8325   */\n      iszero\n      tag_160\n      jumpi\n        /* \"#utility.yul\":8359:8377   */\n      tag_161\n      tag_158\n      jump\t// in\n    tag_161:\n        /* \"#utility.yul\":8323:8325   */\n    tag_160:\n        /* \"#utility.yul\":8444:8448   */\n      0x1f\n        /* \"#utility.yul\":8440:8449   */\n      not\n        /* \"#utility.yul\":8433:8437   */\n      0x1f\n        /* \"#utility.yul\":8425:8431   */\n      dup4\n        /* \"#utility.yul\":8421:8438   */\n      add\n        /* \"#utility.yul\":8417:8450   */\n      and\n        /* \"#utility.yul\":8409:8450   */\n      swap1\n      pop\n        /* \"#utility.yul\":8505:8509   */\n      0x20\n        /* \"#utility.yul\":8499:8503   */\n      dup2\n        /* \"#utility.yul\":8495:8510   */\n      add\n        /* \"#utility.yul\":8487:8510   */\n      swap1\n      pop\n        /* \"#utility.yul\":8252:8517   */\n      swap2\n      swap1\n      pop\n      jump\t// out\n        /* \"#utility.yul\":8523:8622   */\n    tag_100:\n      0x00\n        /* \"#utility.yul\":8609:8614   */\n      dup2\n        /* \"#utility.yul\":8603:8615   */\n      mload\n        /* \"#utility.yul\":8593:8615   */\n      swap1\n      pop\n        /* \"#utility.yul\":8582:8622   */\n      swap2\n      swap1\n      pop\n      jump\t// out\n        /* \"#utility.yul\":8628:8797   */\n    tag_102:\n      0x00\n        /* \"#utility.yul\":8746:8752   */\n      dup3\n        /* \"#utility.yul\":8741:8744   */\n      dup3\n        /* \"#utility.yul\":8734:8753   */\n      mstore\n        /* \"#utility.yul\":8786:8790   */\n      0x20\n        /* \"#utility.yul\":8781:8784   */\n      dup3\n        /* \"#utility.yul\":8777:8791   */\n      add\n        /* \"#utility.yul\":8762:8791   */\n      swap1\n      pop\n        /* \"#utility.yul\":8724:8797   */\n      swap3\n      swap2\n      pop\n      pop\n      jump\t// out\n        /* \"#utility.yul\":8803:8951   */\n    tag_111:\n      0x00\n        /* \"#utility.yul\":8942:8945   */\n      dup2\n        /* \"#utility.yul\":8927:8945   */\n      swap1\n      pop\n        /* \"#utility.yul\":8917:8951   */\n      swap3\n      swap2\n      pop\n      pop\n      jump\t// out\n        /* \"#utility.yul\":8957:9047   */\n    tag_92:\n      0x00\n        /* \"#utility.yul\":9034:9039   */\n      dup2\n        /* \"#utility.yul\":9027:9040   */\n      iszero\n        /* \"#utility.yul\":9020:9041   */\n      iszero\n        /* \"#utility.yul\":9009:9041   */\n      swap1\n      pop\n        /* \"#utility.yul\":8999:9047   */\n      swap2\n      swap1\n      pop\n      jump\t// out\n        /* \"#utility.yul\":9053:9130   */\n    tag_96:\n      0x00\n        /* \"#utility.yul\":9119:9124   */\n      dup2\n        /* \"#utility.yul\":9108:9124   */\n      swap1\n      pop\n        /* \"#utility.yul\":9098:9130   */\n      swap2\n      swap1\n      pop\n      jump\t// out\n        /* \"#utility.yul\":9136:9213   */\n    tag_128:\n      0x00\n        /* \"#utility.yul\":9202:9207   */\n      dup2\n        /* \"#utility.yul\":9191:9207   */\n      swap1\n      pop\n        /* \"#utility.yul\":9181:9213   */\n      swap2\n      swap1\n      pop\n      jump\t// out\n        /* \"#utility.yul\":9219:9373   */\n    tag_67:\n        /* \"#utility.yul\":9303:9309   */\n      dup3\n        /* \"#utility.yul\":9298:9301   */\n      dup2\n        /* \"#utility.yul\":9293:9296   */\n      dup4\n        /* \"#utility.yul\":9280:9310   */\n      calldatacopy\n        /* \"#utility.yul\":9365:9366   */\n      0x00\n        /* \"#utility.yul\":9356:9362   */\n      dup4\n        /* \"#utility.yul\":9351:9354   */\n      dup4\n        /* \"#utility.yul\":9347:9363   */\n      add\n        /* \"#utility.yul\":9340:9367   */\n      mstore\n        /* \"#utility.yul\":9270:9373   */\n      pop\n      pop\n      pop\n      jump\t// out\n        /* \"#utility.yul\":9379:9686   */\n    tag_104:\n        /* \"#utility.yul\":9447:9448   */\n      0x00\n        /* \"#utility.yul\":9457:9570   */\n    tag_170:\n        /* \"#utility.yul\":9471:9477   */\n      dup4\n        /* \"#utility.yul\":9468:9469   */\n      dup2\n        /* \"#utility.yul\":9465:9478   */\n      lt\n        /* \"#utility.yul\":9457:9570   */\n      iszero\n      tag_172\n      jumpi\n        /* \"#utility.yul\":9556:9557   */\n      dup1\n        /* \"#utility.yul\":9551:9554   */\n      dup3\n        /* \"#utility.yul\":9547:9558   */\n      add\n        /* \"#utility.yul\":9541:9559   */\n      mload\n        /* \"#utility.yul\":9537:9538   */\n      dup2\n        /* \"#utility.yul\":9532:9535   */\n      dup5\n        /* \"#utility.yul\":9528:9539   */\n      add\n        /* \"#utility.yul\":9521:9560   */\n      mstore\n        /* \"#utility.yul\":9493:9495   */\n      0x20\n        /* \"#utility.yul\":9490:9491   */\n      dup2\n        /* \"#utility.yul\":9486:9496   */\n      add\n        /* \"#utility.yul\":9481:9496   */\n      swap1\n      pop\n        /* \"#utility.yul\":9457:9570   */\n      jump(tag_170)\n    tag_172:\n        /* \"#utility.yul\":9588:9594   */\n      dup4\n        /* \"#utility.yul\":9585:9586   */\n      dup2\n        /* \"#utility.yul\":9582:9595   */\n      gt\n        /* \"#utility.yul\":9579:9581   */\n      iszero\n      tag_173\n      jumpi\n        /* \"#utility.yul\":9668:9669   */\n      0x00\n        /* \"#utility.yul\":9659:9665   */\n      dup5\n        /* \"#utility.yul\":9654:9657   */\n      dup5\n        /* \"#utility.yul\":9650:9666   */\n      add\n        /* \"#utility.yul\":9643:9670   */\n      mstore\n        /* \"#utility.yul\":9579:9581   */\n    tag_173:\n        /* \"#utility.yul\":9428:9686   */\n      pop\n      pop\n      pop\n      pop\n      jump\t// out\n        /* \"#utility.yul\":9692:10012   */\n    tag_43:\n      0x00\n        /* \"#utility.yul\":9773:9774   */\n      0x02\n        /* \"#utility.yul\":9767:9771   */\n      dup3\n        /* \"#utility.yul\":9763:9775   */\n      div\n        /* \"#utility.yul\":9753:9775   */\n      swap1\n      pop\n        /* \"#utility.yul\":9820:9821   */\n      0x01\n        /* \"#utility.yul\":9814:9818   */\n      dup3\n        /* \"#utility.yul\":9810:9822   */\n      and\n        /* \"#utility.yul\":9841:9859   */\n      dup1\n        /* \"#utility.yul\":9831:9833   */\n      tag_175\n      jumpi\n        /* \"#utility.yul\":9897:9901   */\n      0x7f\n        /* \"#utility.yul\":9889:9895   */\n      dup3\n        /* \"#utility.yul\":9885:9902   */\n      and\n        /* \"#utility.yul\":9875:9902   */\n      swap2\n      pop\n        /* \"#utility.yul\":9831:9833   */\n    tag_175:\n        /* \"#utility.yul\":9959:9961   */\n      0x20\n        /* \"#utility.yul\":9951:9957   */\n      dup3\n        /* \"#utility.yul\":9948:9962   */\n      lt\n        /* \"#utility.yul\":9928:9946   */\n      dup2\n        /* \"#utility.yul\":9925:9963   */\n      eq\n        /* \"#utility.yul\":9922:9924   */\n      iszero\n      tag_176\n      jumpi\n        /* \"#utility.yul\":9978:9996   */\n      tag_177\n      tag_178\n      jump\t// in\n    tag_177:\n        /* \"#utility.yul\":9922:9924   */\n    tag_176:\n        /* \"#utility.yul\":9743:10012   */\n      pop\n      swap2\n      swap1\n      pop\n      jump\t// out\n        /* \"#utility.yul\":10018:10097   */\n    tag_133:\n      0x00\n        /* \"#utility.yul\":10086:10091   */\n      dup2\n        /* \"#utility.yul\":10075:10091   */\n      swap1\n      pop\n        /* \"#utility.yul\":10065:10097   */\n      swap2\n      swap1\n      pop\n      jump\t// out\n        /* \"#utility.yul\":10103:10283   */\n    tag_178:\n        /* \"#utility.yul\":10151:10228   */\n      0x4e487b7100000000000000000000000000000000000000000000000000000000\n        /* \"#utility.yul\":10148:10149   */\n      0x00\n        /* \"#utility.yul\":10141:10229   */\n      mstore\n        /* \"#utility.yul\":10248:10252   */\n      0x22\n        /* \"#utility.yul\":10245:10246   */\n      0x04\n        /* \"#utility.yul\":10238:10253   */\n      mstore\n        /* \"#utility.yul\":10272:10276   */\n      0x24\n        /* \"#utility.yul\":10269:10270   */\n      0x00\n        /* \"#utility.yul\":10262:10277   */\n      revert\n        /* \"#utility.yul\":10289:10469   */\n    tag_158:\n        /* \"#utility.yul\":10337:10414   */\n      0x4e487b7100000000000000000000000000000000000000000000000000000000\n        /* \"#utility.yul\":10334:10335   */\n      0x00\n        /* \"#utility.yul\":10327:10415   */\n      mstore\n        /* \"#utility.yul\":10434:10438   */\n      0x41\n        /* \"#utility.yul\":10431:10432   */\n      0x04\n        /* \"#utility.yul\":10424:10439   */\n      mstore\n        /* \"#utility.yul\":10458:10462   */\n      0x24\n        /* \"#utility.yul\":10455:10456   */\n      0x00\n        /* \"#utility.yul\":10448:10463   */\n      revert\n        /* \"#utility.yul\":10475:10577   */\n    tag_106:\n      0x00\n        /* \"#utility.yul\":10567:10569   */\n      0x1f\n        /* \"#utility.yul\":10563:10570   */\n      not\n        /* \"#utility.yul\":10558:10560   */\n      0x1f\n        /* \"#utility.yul\":10551:10556   */\n      dup4\n        /* \"#utility.yul\":10547:10561   */\n      add\n        /* \"#utility.yul\":10543:10571   */\n      and\n        /* \"#utility.yul\":10533:10571   */\n      swap1\n      pop\n        /* \"#utility.yul\":10523:10577   */\n      swap2\n      swap1\n      pop\n      jump\t// out\n        /* \"#utility.yul\":10583:10705   */\n    tag_71:\n        /* \"#utility.yul\":10656:10680   */\n      tag_184\n        /* \"#utility.yul\":10674:10679   */\n      dup2\n        /* \"#utility.yul\":10656:10680   */\n      tag_96\n      jump\t// in\n    tag_184:\n        /* \"#utility.yul\":10649:10654   */\n      dup2\n        /* \"#utility.yul\":10646:10681   */\n      eq\n        /* \"#utility.yul\":10636:10638   */\n      tag_185\n      jumpi\n        /* \"#utility.yul\":10695:10696   */\n      0x00\n        /* \"#utility.yul\":10692:10693   */\n      dup1\n        /* \"#utility.yul\":10685:10697   */\n      revert\n        /* \"#utility.yul\":10636:10638   */\n    tag_185:\n        /* \"#utility.yul\":10626:10705   */\n      pop\n      jump\t// out\n        /* \"#utility.yul\":10711:10833   */\n    tag_79:\n        /* \"#utility.yul\":10784:10808   */\n      tag_187\n        /* \"#utility.yul\":10802:10807   */\n      dup2\n        /* \"#utility.yul\":10784:10808   */\n      tag_128\n      jump\t// in\n    tag_187:\n        /* \"#utility.yul\":10777:10782   */\n      dup2\n        /* \"#utility.yul\":10774:10809   */\n      eq\n        /* \"#utility.yul\":10764:10766   */\n      tag_188\n      jumpi\n        /* \"#utility.yul\":10823:10824   */\n      0x00\n        /* \"#utility.yul\":10820:10821   */\n      dup1\n        /* \"#utility.yul\":10813:10825   */\n      revert\n        /* \"#utility.yul\":10764:10766   */\n    tag_188:\n        /* \"#utility.yul\":10754:10833   */\n      pop\n      jump\t// out\n\n    auxdata: 0xa2646970667358221220396a04b372f3fa5af032996e5e99dbea3797ac7bbcc848c13b4e9985cecc41a864736f6c63430008000033\n}\n",
				"bytecode": {
					"linkReferences": {},
					"object": "608060405234801561001057600080fd5b50610a83806100206000396000f3fe608060405234801561001057600080fd5b50600436106100415760003560e01c8063289ac3ec1461004657806353e1841e14610062578063df6e104d14610092575b600080fd5b610060600480360381019061005b9190610533565b6100c5565b005b61007c60048036038101906100779190610533565b6102c7565b6040516100899190610781565b60405180910390f35b6100ac60048036038101906100a7919061050a565b61031d565b6040516100bc94939291906107be565b60405180910390f35b6000835111610109576040517f08c379a00000000000000000000000000000000000000000000000000000000081526004016101009061082a565b60405180910390fd5b6000821161014c576040517f08c379a00000000000000000000000000000000000000000000000000000000081526004016101439061084a565b60405180910390fd5b6000811161018f576040517f08c379a00000000000000000000000000000000000000000000000000000000081526004016101869061086a565b60405180910390fd5b60008383836040516020016101a693929190610748565b6040516020818303038152906040528051906020012090506000801b6000808381526020019081526020016000206003015414610218576040517f08c379a000000000000000000000000000000000000000000000000000000000815260040161020f9061080a565b60405180910390fd5b60405180608001604052808581526020018481526020018381526020018281525060008083815260200190815260200160002060008201518160000190805190602001906102679291906103d5565b50602082015181600101556040820151816002015560608201518160030155905050807fa4ada3b82f1b3a8134556f3b7ead0975a2e4814f94ea2fb8c50f04848f8e5553856040516102b9919061079c565b60405180910390a250505050565b6000808484846040516020016102df93929190610748565b6040516020818303038152906040528051906020012090506000801b6000808381526020019081526020016000206003015414159150509392505050565b600060205280600052604060002060009150905080600001805461034090610974565b80601f016020809104026020016040519081016040528092919081815260200182805461036c90610974565b80156103b95780601f1061038e576101008083540402835291602001916103b9565b820191906000526020600020905b81548152906001019060200180831161039c57829003601f168201915b5050505050908060010154908060020154908060030154905084565b8280546103e190610974565b90600052602060002090601f016020900481019282610403576000855561044a565b82601f1061041c57805160ff191683800117855561044a565b8280016001018555821561044a579182015b8281111561044957825182559160200191906001019061042e565b5b509050610457919061045b565b5090565b5b8082111561047457600081600090555060010161045c565b5090565b600061048b610486846108bb565b61088a565b9050828152602081018484840111156104a357600080fd5b6104ae848285610932565b509392505050565b6000813590506104c581610a1f565b92915050565b600082601f8301126104dc57600080fd5b81356104ec848260208601610478565b91505092915050565b60008135905061050481610a36565b92915050565b60006020828403121561051c57600080fd5b600061052a848285016104b6565b91505092915050565b60008060006060848603121561054857600080fd5b600084013567ffffffffffffffff81111561056257600080fd5b61056e868287016104cb565b935050602061057f868287016104f5565b9250506040610590868287016104f5565b9150509250925092565b6105a381610912565b82525050565b6105b28161091e565b82525050565b60006105c3826108eb565b6105cd81856108f6565b93506105dd818560208601610941565b6105e681610a0e565b840191505092915050565b60006105fc826108eb565b6106068185610907565b9350610616818560208601610941565b80840191505092915050565b600061062f601b836108f6565b91507f446f63756d656e7420616c7265616479207265676973746572656400000000006000830152602082019050919050565b600061066f600e836108f6565b91507f5469746c652072657175697265640000000000000000000000000000000000006000830152602082019050919050565b60006106af6015836108f6565b91507f53697a65206d75737420626520706f73697469766500000000000000000000006000830152602082019050919050565b60006106ef600c836108f6565b91507f496e76616c6964206461746500000000000000000000000000000000000000006000830152602082019050919050565b61072b81610928565b82525050565b61074261073d82610928565b6109a6565b82525050565b600061075482866105f1565b91506107608285610731565b6020820191506107708284610731565b602082019150819050949350505050565b6000602082019050610796600083018461059a565b92915050565b600060208201905081810360008301526107b681846105b8565b905092915050565b600060808201905081810360008301526107d881876105b8565b90506107e76020830186610722565b6107f46040830185610722565b61080160608301846105a9565b95945050505050565b6000602082019050818103600083015261082381610622565b9050919050565b6000602082019050818103600083015261084381610662565b9050919050565b60006020820190508181036000830152610863816106a2565b9050919050565b60006020820190508181036000830152610883816106e2565b9050919050565b6000604051905081810181811067ffffffffffffffff821117156108b1576108b06109df565b5b8060405250919050565b600067ffffffffffffffff8211156108d6576108d56109df565b5b601f19601f8301169050602081019050919050565b600081519050919050565b600082825260208201905092915050565b600081905092915050565b60008115159050919050565b6000819050919050565b6000819050919050565b82818337600083830152505050565b60005b8381101561095f578082015181840152602081019050610944565b8381111561096e576000848401525b50505050565b6000600282049050600182168061098c57607f821691505b602082108114156109a05761099f6109b0565b5b50919050565b6000819050919050565b7f4e487b7100000000000000000000000000000000000000000000000000000000600052602260045260246000fd5b7f4e487b7100000000000000000000000000000000000000000000000000000000600052604160045260246000fd5b6000601f19601f8301169050919050565b610a288161091e565b8114610a3357600080fd5b50565b610a3f81610928565b8114610a4a57600080fd5b5056fea2646970667358221220396a04b372f3fa5af032996e5e99dbea3797ac7bbcc848c13b4e9985cecc41a864736f6c63430008000033",
					"opcodes": "PUSH1 0x80 PUSH1 0x40 MSTORE CALLVALUE DUP1 ISZERO PUSH2 0x10 JUMPI PUSH1 0x0 DUP1 REVERT JUMPDEST POP PUSH2 0xA83 DUP1 PUSH2 0x20 PUSH1 0x0 CODECOPY PUSH1 0x0 RETURN INVALID PUSH1 0x80 PUSH1 0x40 MSTORE CALLVALUE DUP1 ISZERO PUSH2 0x10 JUMPI PUSH1 0x0 DUP1 REVERT JUMPDEST POP PUSH1 0x4 CALLDATASIZE LT PUSH2 0x41 JUMPI PUSH1 0x0 CALLDATALOAD PUSH1 0xE0 SHR DUP1 PUSH4 0x289AC3EC EQ PUSH2 0x46 JUMPI DUP1 PUSH4 0x53E1841E EQ PUSH2 0x62 JUMPI DUP1 PUSH4 0xDF6E104D EQ PUSH2 0x92 JUMPI JUMPDEST PUSH1 0x0 DUP1 REVERT JUMPDEST PUSH2 0x60 PUSH1 0x4 DUP1 CALLDATASIZE SUB DUP2 ADD SWAP1 PUSH2 0x5B SWAP2 SWAP1 PUSH2 0x533 JUMP JUMPDEST PUSH2 0xC5 JUMP JUMPDEST STOP JUMPDEST PUSH2 0x7C PUSH1 0x4 DUP1 CALLDATASIZE SUB DUP2 ADD SWAP1 PUSH2 0x77 SWAP2 SWAP1 PUSH2 0x533 JUMP JUMPDEST PUSH2 0x2C7 JUMP JUMPDEST PUSH1 0x40 MLOAD PUSH2 0x89 SWAP2 SWAP1 PUSH2 0x781 JUMP JUMPDEST PUSH1 0x40 MLOAD DUP1 SWAP2 SUB SWAP1 RETURN JUMPDEST PUSH2 0xAC PUSH1 0x4 DUP1 CALLDATASIZE SUB DUP2 ADD SWAP1 PUSH2 0xA7 SWAP2 SWAP1 PUSH2 0x50A JUMP JUMPDEST PUSH2 0x31D JUMP JUMPDEST PUSH1 0x40 MLOAD PUSH2 0xBC SWAP5 SWAP4 SWAP3 SWAP2 SWAP1 PUSH2 0x7BE JUMP JUMPDEST PUSH1 0x40 MLOAD DUP1 SWAP2 SUB SWAP1 RETURN JUMPDEST PUSH1 0x0 DUP4 MLOAD GT PUSH2 0x109 JUMPI PUSH1 0x40 MLOAD PUSH32 0x8C379A000000000000000000000000000000000000000000000000000000000 DUP2 MSTORE PUSH1 0x4 ADD PUSH2 0x100 SWAP1 PUSH2 0x82A JUMP JUMPDEST PUSH1 0x40 MLOAD DUP1 SWAP2 SUB SWAP1 REVERT JUMPDEST PUSH1 0x0 DUP3 GT PUSH2 0x14C JUMPI PUSH1 0x40 MLOAD PUSH32 0x8C379A000000000000000000000000000000000000000000000000000000000 DUP2 MSTORE PUSH1 0x4 ADD PUSH2 0x143 SWAP1 PUSH2 0x84A JUMP JUMPDEST PUSH1 0x40 MLOAD DUP1 SWAP2 SUB SWAP1 REVERT JUMPDEST PUSH1 0x0 DUP2 GT PUSH2 0x18F JUMPI PUSH1 0x40 MLOAD PUSH32 0x8C379A000000000000000000000000000000000000000000000000000000000 DUP2 MSTORE PUSH1 0x4 ADD PUSH2 0x186 SWAP1 PUSH2 0x86A JUMP JUMPDEST PUSH1 0x40 MLOAD DUP1 SWAP2 SUB SWAP1 REVERT JUMPDEST PUSH1 0x0 DUP4 DUP4 DUP4 PUSH1 0x40 MLOAD PUSH1 0x20 ADD PUSH2 0x1A6 SWAP4 SWAP3 SWAP2 SWAP1 PUSH2 0x748 JUMP JUMPDEST PUSH1 0x40 MLOAD PUSH1 0x20 DUP2 DUP4 SUB SUB DUP2 MSTORE SWAP1 PUSH1 0x40 MSTORE DUP1 MLOAD SWAP1 PUSH1 0x20 ADD KECCAK256 SWAP1 POP PUSH1 0x0 DUP1 SHL PUSH1 0x0 DUP1 DUP4 DUP2 MSTORE PUSH1 0x20 ADD SWAP1 DUP2 MSTORE PUSH1 0x20 ADD PUSH1 0x0 KECCAK256 PUSH1 0x3 ADD SLOAD EQ PUSH2 0x218 JUMPI PUSH1 0x40 MLOAD PUSH32 0x8C379A000000000000000000000000000000000000000000000000000000000 DUP2 MSTORE PUSH1 0x4 ADD PUSH2 0x20F SWAP1 PUSH2 0x80A JUMP JUMPDEST PUSH1 0x40 MLOAD DUP1 SWAP2 SUB SWAP1 REVERT JUMPDEST PUSH1 0x40 MLOAD DUP1 PUSH1 0x80 ADD PUSH1 0x40 MSTORE DUP1 DUP6 DUP2 MSTORE PUSH1 0x20 ADD DUP5 DUP2 MSTORE PUSH1 0x20 ADD DUP4 DUP2 MSTORE PUSH1 0x20 ADD DUP3 DUP2 MSTORE POP PUSH1 0x0 DUP1 DUP4 DUP2 MSTORE PUSH1 0x20 ADD SWAP1 DUP2 MSTORE PUSH1 0x20 ADD PUSH1 0x0 KECCAK256 PUSH1 0x0 DUP3 ADD MLOAD DUP2 PUSH1 0x0 ADD SWAP1 DUP1 MLOAD SWAP1 PUSH1 0x20 ADD SWAP1 PUSH2 0x267 SWAP3 SWAP2 SWAP1 PUSH2 0x3D5 JUMP JUMPDEST POP PUSH1 0x20 DUP3 ADD MLOAD DUP2 PUSH1 0x1 ADD SSTORE PUSH1 0x40 DUP3 ADD MLOAD DUP2 PUSH1 0x2 ADD SSTORE PUSH1 0x60 DUP3 ADD MLOAD DUP2 PUSH1 0x3 ADD SSTORE SWAP1 POP POP DUP1 PUSH32 0xA4ADA3B82F1B3A8134556F3B7EAD0975A2E4814F94EA2FB8C50F04848F8E5553 DUP6 PUSH1 0x40 MLOAD PUSH2 0x2B9 SWAP2 SWAP1 PUSH2 0x79C JUMP JUMPDEST PUSH1 0x40 MLOAD DUP1 SWAP2 SUB SWAP1 LOG2 POP POP POP POP JUMP JUMPDEST PUSH1 0x0 DUP1 DUP5 DUP5 DUP5 PUSH1 0x40 MLOAD PUSH1 0x20 ADD PUSH2 0x2DF SWAP4 SWAP3 SWAP2 SWAP1 PUSH2 0x748 JUMP JUMPDEST PUSH1 0x40 MLOAD PUSH1 0x20 DUP2 DUP4 SUB SUB DUP2 MSTORE SWAP1 PUSH1 0x40 MSTORE DUP1 MLOAD SWAP1 PUSH1 0x20 ADD KECCAK256 SWAP1 POP PUSH1 0x0 DUP1 SHL PUSH1 0x0 DUP1 DUP4 DUP2 MSTORE PUSH1 0x20 ADD SWAP1 DUP2 MSTORE PUSH1 0x20 ADD PUSH1 0x0 KECCAK256 PUSH1 0x3 ADD SLOAD EQ ISZERO SWAP2 POP POP SWAP4 SWAP3 POP POP POP JUMP JUMPDEST PUSH1 0x0 PUSH1 0x20 MSTORE DUP1 PUSH1 0x0 MSTORE PUSH1 0x40 PUSH1 0x0 KECCAK256 PUSH1 0x0 SWAP2 POP SWAP1 POP DUP1 PUSH1 0x0 ADD DUP1 SLOAD PUSH2 0x340 SWAP1 PUSH2 0x974 JUMP JUMPDEST DUP1 PUSH1 0x1F ADD PUSH1 0x20 DUP1 SWAP2 DIV MUL PUSH1 0x20 ADD PUSH1 0x40 MLOAD SWAP1 DUP2 ADD PUSH1 0x40 MSTORE DUP1 SWAP3 SWAP2 SWAP1 DUP2 DUP2 MSTORE PUSH1 0x20 ADD DUP3 DUP1 SLOAD PUSH2 0x36C SWAP1 PUSH2 0x974 JUMP JUMPDEST DUP1 ISZERO PUSH2 0x3B9 JUMPI DUP1 PUSH1 0x1F LT PUSH2 0x38E JUMPI PUSH2 0x100 DUP1 DUP4 SLOAD DIV MUL DUP4 MSTORE SWAP2 PUSH1 0x20 ADD SWAP2 PUSH2 0x3B9 JUMP JUMPDEST DUP3 ADD SWAP2 SWAP1 PUSH1 0x0 MSTORE PUSH1 0x20 PUSH1 0x0 KECCAK256 SWAP1 JUMPDEST DUP2 SLOAD DUP2 MSTORE SWAP1 PUSH1 0x1 ADD SWAP1 PUSH1 0x20 ADD DUP1 DUP4 GT PUSH2 0x39C JUMPI DUP3 SWAP1 SUB PUSH1 0x1F AND DUP3 ADD SWAP2 JUMPDEST POP POP POP POP POP SWAP1 DUP1 PUSH1 0x1 ADD SLOAD SWAP1 DUP1 PUSH1 0x2 ADD SLOAD SWAP1 DUP1 PUSH1 0x3 ADD SLOAD SWAP1 POP DUP5 JUMP JUMPDEST DUP3 DUP1 SLOAD PUSH2 0x3E1 SWAP1 PUSH2 0x974 JUMP JUMPDEST SWAP1 PUSH1 0x0 MSTORE PUSH1 0x20 PUSH1 0x0 KECCAK256 SWAP1 PUSH1 0x1F ADD PUSH1 0x20 SWAP1 DIV DUP2 ADD SWAP3 DUP3 PUSH2 0x403 JUMPI PUSH1 0x0 DUP6 SSTORE PUSH2 0x44A JUMP JUMPDEST DUP3 PUSH1 0x1F LT PUSH2 0x41C JUMPI DUP1 MLOAD PUSH1 0xFF NOT AND DUP4 DUP1 ADD OR DUP6 SSTORE PUSH2 0x44A JUMP JUMPDEST DUP3 DUP1 ADD PUSH1 0x1 ADD DUP6 SSTORE DUP3 ISZERO PUSH2 0x44A JUMPI SWAP2 DUP3 ADD JUMPDEST DUP3 DUP2 GT ISZERO PUSH2 0x449 JUMPI DUP3 MLOAD DUP3 SSTORE SWAP2 PUSH1 0x20 ADD SWAP2 SWAP1 PUSH1 0x1 ADD SWAP1 PUSH2 0x42E JUMP JUMPDEST JUMPDEST POP SWAP1 POP PUSH2 0x457 SWAP2 SWAP1 PUSH2 0x45B JUMP JUMPDEST POP SWAP1 JUMP JUMPDEST JUMPDEST DUP1 DUP3 GT ISZERO PUSH2 0x474 JUMPI PUSH1 0x0 DUP2 PUSH1 0x0 SWAP1 SSTORE POP PUSH1 0x1 ADD PUSH2 0x45C JUMP JUMPDEST POP SWAP1 JUMP JUMPDEST PUSH1 0x0 PUSH2 0x48B PUSH2 0x486 DUP5 PUSH2 0x8BB JUMP JUMPDEST PUSH2 0x88A JUMP JUMPDEST SWAP1 POP DUP3 DUP2 MSTORE PUSH1 0x20 DUP2 ADD DUP5 DUP5 DUP5 ADD GT ISZERO PUSH2 0x4A3 JUMPI PUSH1 0x0 DUP1 REVERT JUMPDEST PUSH2 0x4AE DUP5 DUP3 DUP6 PUSH2 0x932 JUMP JUMPDEST POP SWAP4 SWAP3 POP POP POP JUMP JUMPDEST PUSH1 0x0 DUP2 CALLDATALOAD SWAP1 POP PUSH2 0x4C5 DUP2 PUSH2 0xA1F JUMP JUMPDEST SWAP3 SWAP2 POP POP JUMP JUMPDEST PUSH1 0x0 DUP3 PUSH1 0x1F DUP4 ADD SLT PUSH2 0x4DC JUMPI PUSH1 0x0 DUP1 REVERT JUMPDEST DUP2 CALLDATALOAD PUSH2 0x4EC DUP5 DUP3 PUSH1 0x20 DUP7 ADD PUSH2 0x478 JUMP JUMPDEST SWAP2 POP POP SWAP3 SWAP2 POP POP JUMP JUMPDEST PUSH1 0x0 DUP2 CALLDATALOAD SWAP1 POP PUSH2 0x504 DUP2 PUSH2 0xA36 JUMP JUMPDEST SWAP3 SWAP2 POP POP JUMP JUMPDEST PUSH1 0x0 PUSH1 0x20 DUP3 DUP5 SUB SLT ISZERO PUSH2 0x51C JUMPI PUSH1 0x0 DUP1 REVERT JUMPDEST PUSH1 0x0 PUSH2 0x52A DUP5 DUP3 DUP6 ADD PUSH2 0x4B6 JUMP JUMPDEST SWAP2 POP POP SWAP3 SWAP2 POP POP JUMP JUMPDEST PUSH1 0x0 DUP1 PUSH1 0x0 PUSH1 0x60 DUP5 DUP7 SUB SLT ISZERO PUSH2 0x548 JUMPI PUSH1 0x0 DUP1 REVERT JUMPDEST PUSH1 0x0 DUP5 ADD CALLDATALOAD PUSH8 0xFFFFFFFFFFFFFFFF DUP2 GT ISZERO PUSH2 0x562 JUMPI PUSH1 0x0 DUP1 REVERT JUMPDEST PUSH2 0x56E DUP7 DUP3 DUP8 ADD PUSH2 0x4CB JUMP JUMPDEST SWAP4 POP POP PUSH1 0x20 PUSH2 0x57F DUP7 DUP3 DUP8 ADD PUSH2 0x4F5 JUMP JUMPDEST SWAP3 POP POP PUSH1 0x40 PUSH2 0x590 DUP7 DUP3 DUP8 ADD PUSH2 0x4F5 JUMP JUMPDEST SWAP2 POP POP SWAP3 POP SWAP3 POP SWAP3 JUMP JUMPDEST PUSH2 0x5A3 DUP2 PUSH2 0x912 JUMP JUMPDEST DUP3 MSTORE POP POP JUMP JUMPDEST PUSH2 0x5B2 DUP2 PUSH2 0x91E JUMP JUMPDEST DUP3 MSTORE POP POP JUMP JUMPDEST PUSH1 0x0 PUSH2 0x5C3 DUP3 PUSH2 0x8EB JUMP JUMPDEST PUSH2 0x5CD DUP2 DUP6 PUSH2 0x8F6 JUMP JUMPDEST SWAP4 POP PUSH2 0x5DD DUP2 DUP6 PUSH1 0x20 DUP7 ADD PUSH2 0x941 JUMP JUMPDEST PUSH2 0x5E6 DUP2 PUSH2 0xA0E JUMP JUMPDEST DUP5 ADD SWAP2 POP POP SWAP3 SWAP2 POP POP JUMP JUMPDEST PUSH1 0x0 PUSH2 0x5FC DUP3 PUSH2 0x8EB JUMP JUMPDEST PUSH2 0x606 DUP2 DUP6 PUSH2 0x907 JUMP JUMPDEST SWAP4 POP PUSH2 0x616 DUP2 DUP6 PUSH1 0x20 DUP7 ADD PUSH2 0x941 JUMP JUMPDEST DUP1 DUP5 ADD SWAP2 POP POP SWAP3 SWAP2 POP POP JUMP JUMPDEST PUSH1 0x0 PUSH2 0x62F PUSH1 0x1B DUP4 PUSH2 0x8F6 JUMP JUMPDEST SWAP2 POP PUSH32 0x446F63756D656E7420616C726561647920726567697374657265640000000000 PUSH1 0x0 DUP4 ADD MSTORE PUSH1 0x20 DUP3 ADD SWAP1 POP SWAP2 SWAP1 POP JUMP JUMPDEST PUSH1 0x0 PUSH2 0x66F PUSH1 0xE DUP4 PUSH2 0x8F6 JUMP JUMPDEST SWAP2 POP PUSH32 0x5469746C65207265717569726564000000000000000000000000000000000000 PUSH1 0x0 DUP4 ADD MSTORE PUSH1 0x20 DUP3 ADD SWAP1 POP SWAP2 SWAP1 POP JUMP JUMPDEST PUSH1 0x0 PUSH2 0x6AF PUSH1 0x15 DUP4 PUSH2 0x8F6 JUMP JUMPDEST SWAP2 POP PUSH32 0x53697A65206D75737420626520706F7369746976650000000000000000000000 PUSH1 0x0 DUP4 ADD MSTORE PUSH1 0x20 DUP3 ADD SWAP1 POP SWAP2 SWAP1 POP JUMP JUMPDEST PUSH1 0x0 PUSH2 0x6EF PUSH1 0xC DUP4 PUSH2 0x8F6 JUMP JUMPDEST SWAP2 POP PUSH32 0x496E76616C696420646174650000000000000000000000000000000000000000 PUSH1 0x0 DUP4 ADD MSTORE PUSH1 0x20 DUP3 ADD SWAP1 POP SWAP2 SWAP1 POP JUMP JUMPDEST PUSH2 0x72B DUP2 PUSH2 0x928 JUMP JUMPDEST DUP3 MSTORE POP POP JUMP JUMPDEST PUSH2 0x742 PUSH2 0x73D DUP3 PUSH2 0x928 JUMP JUMPDEST PUSH2 0x9A6 JUMP JUMPDEST DUP3 MSTORE POP POP JUMP JUMPDEST PUSH1 0x0 PUSH2 0x754 DUP3 DUP7 PUSH2 0x5F1 JUMP JUMPDEST SWAP2 POP PUSH2 0x760 DUP3 DUP6 PUSH2 0x731 JUMP JUMPDEST PUSH1 0x20 DUP3 ADD SWAP2 POP PUSH2 0x770 DUP3 DUP5 PUSH2 0x731 JUMP JUMPDEST PUSH1 0x20 DUP3 ADD SWAP2 POP DUP2 SWAP1 POP SWAP5 SWAP4 POP POP POP POP JUMP JUMPDEST PUSH1 0x0 PUSH1 0x20 DUP3 ADD SWAP1 POP PUSH2 0x796 PUSH1 0x0 DUP4 ADD DUP5 PUSH2 0x59A JUMP JUMPDEST SWAP3 SWAP2 POP POP JUMP JUMPDEST PUSH1 0x0 PUSH1 0x20 DUP3 ADD SWAP1 POP DUP2 DUP2 SUB PUSH1 0x0 DUP4 ADD MSTORE PUSH2 0x7B6 DUP2 DUP5 PUSH2 0x5B8 JUMP JUMPDEST SWAP1 POP SWAP3 SWAP2 POP POP JUMP JUMPDEST PUSH1 0x0 PUSH1 0x80 DUP3 ADD SWAP1 POP DUP2 DUP2 SUB PUSH1 0x0 DUP4 ADD MSTORE PUSH2 0x7D8 DUP2 DUP8 PUSH2 0x5B8 JUMP JUMPDEST SWAP1 POP PUSH2 0x7E7 PUSH1 0x20 DUP4 ADD DUP7 PUSH2 0x722 JUMP JUMPDEST PUSH2 0x7F4 PUSH1 0x40 DUP4 ADD DUP6 PUSH2 0x722 JUMP JUMPDEST PUSH2 0x801 PUSH1 0x60 DUP4 ADD DUP5 PUSH2 0x5A9 JUMP JUMPDEST SWAP6 SWAP5 POP POP POP POP POP JUMP JUMPDEST PUSH1 0x0 PUSH1 0x20 DUP3 ADD SWAP1 POP DUP2 DUP2 SUB PUSH1 0x0 DUP4 ADD MSTORE PUSH2 0x823 DUP2 PUSH2 0x622 JUMP JUMPDEST SWAP1 POP SWAP2 SWAP1 POP JUMP JUMPDEST PUSH1 0x0 PUSH1 0x20 DUP3 ADD SWAP1 POP DUP2 DUP2 SUB PUSH1 0x0 DUP4 ADD MSTORE PUSH2 0x843 DUP2 PUSH2 0x662 JUMP JUMPDEST SWAP1 POP SWAP2 SWAP1 POP JUMP JUMPDEST PUSH1 0x0 PUSH1 0x20 DUP3 ADD SWAP1 POP DUP2 DUP2 SUB PUSH1 0x0 DUP4 ADD MSTORE PUSH2 0x863 DUP2 PUSH2 0x6A2 JUMP JUMPDEST SWAP1 POP SWAP2 SWAP1 POP JUMP JUMPDEST PUSH1 0x0 PUSH1 0x20 DUP3 ADD SWAP1 POP DUP2 DUP2 SUB PUSH1 0x0 DUP4 ADD MSTORE PUSH2 0x883 DUP2 PUSH2 0x6E2 JUMP JUMPDEST SWAP1 POP SWAP2 SWAP1 POP JUMP JUMPDEST PUSH1 0x0 PUSH1 0x40 MLOAD SWAP1 POP DUP2 DUP2 ADD DUP2 DUP2 LT PUSH8 0xFFFFFFFFFFFFFFFF DUP3 GT OR ISZERO PUSH2 0x8B1 JUMPI PUSH2 0x8B0 PUSH2 0x9DF JUMP JUMPDEST JUMPDEST DUP1 PUSH1 0x40 MSTORE POP SWAP2 SWAP1 POP JUMP JUMPDEST PUSH1 0x0 PUSH8 0xFFFFFFFFFFFFFFFF DUP3 GT ISZERO PUSH2 0x8D6 JUMPI PUSH2 0x8D5 PUSH2 0x9DF JUMP JUMPDEST JUMPDEST PUSH1 0x1F NOT PUSH1 0x1F DUP4 ADD AND SWAP1 POP PUSH1 0x20 DUP2 ADD SWAP1 POP SWAP2 SWAP1 POP JUMP JUMPDEST PUSH1 0x0 DUP2 MLOAD SWAP1 POP SWAP2 SWAP1 POP JUMP JUMPDEST PUSH1 0x0 DUP3 DUP3 MSTORE PUSH1 0x20 DUP3 ADD SWAP1 POP SWAP3 SWAP2 POP POP JUMP JUMPDEST PUSH1 0x0 DUP2 SWAP1 POP SWAP3 SWAP2 POP POP JUMP JUMPDEST PUSH1 0x0 DUP2 ISZERO ISZERO SWAP1 POP SWAP2 SWAP1 POP JUMP JUMPDEST PUSH1 0x0 DUP2 SWAP1 POP SWAP2 SWAP1 POP JUMP JUMPDEST PUSH1 0x0 DUP2 SWAP1 POP SWAP2 SWAP1 POP JUMP JUMPDEST DUP3 DUP2 DUP4 CALLDATACOPY PUSH1 0x0 DUP4 DUP4 ADD MSTORE POP POP POP JUMP JUMPDEST PUSH1 0x0 JUMPDEST DUP4 DUP2 LT ISZERO PUSH2 0x95F JUMPI DUP1 DUP3 ADD MLOAD DUP2 DUP5 ADD MSTORE PUSH1 0x20 DUP2 ADD SWAP1 POP PUSH2 0x944 JUMP JUMPDEST DUP4 DUP2 GT ISZERO PUSH2 0x96E JUMPI PUSH1 0x0 DUP5 DUP5 ADD MSTORE JUMPDEST POP POP POP POP JUMP JUMPDEST PUSH1 0x0 PUSH1 0x2 DUP3 DIV SWAP1 POP PUSH1 0x1 DUP3 AND DUP1 PUSH2 0x98C JUMPI PUSH1 0x7F DUP3 AND SWAP2 POP JUMPDEST PUSH1 0x20 DUP3 LT DUP2 EQ ISZERO PUSH2 0x9A0 JUMPI PUSH2 0x99F PUSH2 0x9B0 JUMP JUMPDEST JUMPDEST POP SWAP2 SWAP1 POP JUMP JUMPDEST PUSH1 0x0 DUP2 SWAP1 POP SWAP2 SWAP1 POP JUMP JUMPDEST PUSH32 0x4E487B7100000000000000000000000000000000000000000000000000000000 PUSH1 0x0 MSTORE PUSH1 0x22 PUSH1 0x4 MSTORE PUSH1 0x24 PUSH1 0x0 REVERT JUMPDEST PUSH32 0x4E487B7100000000000000000000000000000000000000000000000000000000 PUSH1 0x0 MSTORE PUSH1 0x41 PUSH1 0x4 MSTORE PUSH1 0x24 PUSH1 0x0 REVERT JUMPDEST PUSH1 0x0 PUSH1 0x1F NOT PUSH1 0x1F DUP4 ADD AND SWAP1 POP SWAP2 SWAP1 POP JUMP JUMPDEST PUSH2 0xA28 DUP2 PUSH2 0x91E JUMP JUMPDEST DUP2 EQ PUSH2 0xA33 JUMPI PUSH1 0x0 DUP1 REVERT JUMPDEST POP JUMP JUMPDEST PUSH2 0xA3F DUP2 PUSH2 0x928 JUMP JUMPDEST DUP2 EQ PUSH2 0xA4A JUMPI PUSH1 0x0 DUP1 REVERT JUMPDEST POP JUMP INVALID LOG2 PUSH5 0x6970667358 0x22 SLT KECCAK256 CODECOPY PUSH11 0x4B372F3FA5AF032996E5E SWAP10 0xDB 0xEA CALLDATACOPY SWAP8 0xAC PUSH28 0xBCC848C13B4E9985CECC41A864736F6C634300080000330000000000 "
				},
				"gasEstimates": {
					"creation": {
						"codeDepositCost": "538200",
						"executionCost": "575",
						"totalCost": "538775"
					},
					"external": {
						"registerDocument(string,uint256,uint256)": "infinite",
						"registeredDocuments(bytes32)": "infinite",
						"verifyDocument(string,uint256,uint256)": "infinite"
					}
				},
				"methodIdentifiers": {
					"registerDocument(string,uint256,uint256)": "289ac3ec",
					"registeredDocuments(bytes32)": "df6e104d",
					"verifyDocument(string,uint256,uint256)": "53e1841e"
				}
			},
			"storageLayout": {
				"storage": [
					{
						"astId": 15,
						"contract": "contracts/thomasaurelien.sol:DocumentVerifier",
						"label": "registeredDocuments",
						"offset": 0,
						"slot": "0",
						"type": "t_mapping(t_bytes32,t_struct(Document)10_storage)"
					}
				],
				"types": {
					"t_bytes32": {
						"encoding": "inplace",
						"label": "bytes32",
						"numberOfBytes": "32"
					},
					"t_mapping(t_bytes32,t_struct(Document)10_storage)": {
						"encoding": "mapping",
						"key": "t_bytes32",
						"label": "mapping(bytes32 => struct DocumentVerifier.Document)",
						"numberOfBytes": "32",
						"value": "t_struct(Document)10_storage"
					},
					"t_string_storage": {
						"encoding": "bytes",
						"label": "string",
						"numberOfBytes": "32"
					},
					"t_struct(Document)10_storage": {
						"encoding": "inplace",
						"label": "struct DocumentVerifier.Document",
						"members": [
							{
								"astId": 3,
								"contract": "contracts/thomasaurelien.sol:DocumentVerifier",
								"label": "title",
								"offset": 0,
								"slot": "0",
								"type": "t_string_storage"
							},
							{
								"astId": 5,
								"contract": "contracts/thomasaurelien.sol:DocumentVerifier",
								"label": "size",
								"offset": 0,
								"slot": "1",
								"type": "t_uint256"
							},
							{
								"astId": 7,
								"contract": "contracts/thomasaurelien.sol:DocumentVerifier",
								"label": "publicationDate",
								"offset": 0,
								"slot": "2",
								"type": "t_uint256"
							},
							{
								"astId": 9,
								"contract": "contracts/thomasaurelien.sol:DocumentVerifier",
								"label": "hash",
								"offset": 0,
								"slot": "3",
								"type": "t_bytes32"
							}
						],
						"numberOfBytes": "128"
					},
					"t_uint256": {
						"encoding": "inplace",
						"label": "uint256",
						"numberOfBytes": "32"
					}
				}
			},
			"userdoc": {
				"kind": "user",
				"methods": {},
				"version": 1
			}
		}
	}
}