{
	"contracts/contrat1.sol": {
		"DocumentVerifier": {
			"abi": [
				{
					"anonymous": false,
					"inputs": [
						{
							"indexed": true,
							"internalType": "bytes32",
							"name": "docHash",
							"type": "bytes32"
						},
						{
							"indexed": false,
							"internalType": "string",
							"name": "title",
							"type": "string"
						}
					],
					"name": "DocumentRegistered",
					"type": "event"
				},
				{
					"anonymous": false,
					"inputs": [
						{
							"indexed": true,
							"internalType": "bytes32",
							"name": "docHash",
							"type": "bytes32"
						},
						{
							"indexed": false,
							"internalType": "bool",
							"name": "isValid",
							"type": "bool"
						}
					],
					"name": "DocumentVerified",
					"type": "event"
				},
				{
					"inputs": [
						{
							"internalType": "string",
							"name": "_title",
							"type": "string"
						},
						{
							"internalType": "uint256",
							"name": "_size",
							"type": "uint256"
						},
						{
							"internalType": "uint256",
							"name": "_publicationDate",
							"type": "uint256"
						}
					],
					"name": "registerDocument",
					"outputs": [],
					"stateMutability": "nonpayable",
					"type": "function"
				},
				{
					"inputs": [
						{
							"internalType": "bytes32",
							"name": "",
							"type": "bytes32"
						}
					],
					"name": "registeredDocuments",
					"outputs": [
						{
							"internalType": "string",
							"name": "title",
							"type": "string"
						},
						{
							"internalType": "uint256",
							"name": "size",
							"type": "uint256"
						},
						{
							"internalType": "uint256",
							"name": "publicationDate",
							"type": "uint256"
						},
						{
							"internalType": "bytes32",
							"name": "hash",
							"type": "bytes32"
						}
					],
					"stateMutability": "view",
					"type": "function"
				},
				{
					"inputs": [
						{
							"internalType": "string",
							"name": "_title",
							"type": "string"
						},
						{
							"internalType": "uint256",
							"name": "_size",
							"type": "uint256"
						},
						{
							"internalType": "uint256",
							"name": "_publicationDate",
							"type": "uint256"
						}
					],
					"name": "verifyDocument",
					"outputs": [
						{
							"internalType": "bool",
							"name": "",
							"type": "bool"
						}
					],
					"stateMutability": "nonpayable",
					"type": "function"
				}
			],
			"devdoc": {
				"kind": "dev",
				"methods": {},
				"version": 1
			},
			"evm": {
				"assembly": "    /* \"contracts/contrat1.sol\":60:1899  contract DocumentVerifier {\r... */\n  mstore(0x40, 0x80)\n  callvalue\n  dup1\n  iszero\n  tag_1\n  jumpi\n  0x00\n  dup1\n  revert\ntag_1:\n  pop\n  dataSize(sub_0)\n  dup1\n  dataOffset(sub_0)\n  0x00\n  codecopy\n  0x00\n  return\nstop\n\nsub_0: assembly {\n        /* \"contracts/contrat1.sol\":60:1899  contract DocumentVerifier {\r... */\n      mstore(0x40, 0x80)\n      callvalue\n      dup1\n      iszero\n      tag_1\n      jumpi\n      0x00\n      dup1\n      revert\n    tag_1:\n      pop\n      jumpi(tag_2, lt(calldatasize, 0x04))\n      shr(0xe0, calldataload(0x00))\n      dup1\n      0x289ac3ec\n      eq\n      tag_3\n      jumpi\n      dup1\n      0x53e1841e\n      eq\n      tag_4\n      jumpi\n      dup1\n      0xdf6e104d\n      eq\n      tag_5\n      jumpi\n    tag_2:\n      0x00\n      dup1\n      revert\n        /* \"contracts/contrat1.sol\":432:1172  function registerDocument(\r... */\n    tag_3:\n      tag_6\n      0x04\n      dup1\n      calldatasize\n      sub\n      dup2\n      add\n      swap1\n      tag_7\n      swap2\n      swap1\n      tag_8\n      jump\t// in\n    tag_7:\n      tag_9\n      jump\t// in\n    tag_6:\n      stop\n        /* \"contracts/contrat1.sol\":1241:1896  function verifyDocument(\r... */\n    tag_4:\n      tag_10\n      0x04\n      dup1\n      calldatasize\n      sub\n      dup2\n      add\n      swap1\n      tag_11\n      swap2\n      swap1\n      tag_8\n      jump\t// in\n    tag_11:\n      tag_12\n      jump\t// in\n    tag_10:\n      mload(0x40)\n      tag_13\n      swap2\n      swap1\n      tag_14\n      jump\t// in\n    tag_13:\n      mload(0x40)\n      dup1\n      swap2\n      sub\n      swap1\n      return\n        /* \"contracts/contrat1.sol\":228:283  mapping(bytes32 => Document) public registeredDocuments */\n    tag_5:\n      tag_15\n      0x04\n      dup1\n      calldatasize\n      sub\n      dup2\n      add\n      swap1\n      tag_16\n      swap2\n      swap1\n      tag_17\n      jump\t// in\n    tag_16:\n      tag_18\n      jump\t// in\n    tag_15:\n      mload(0x40)\n      tag_19\n      swap5\n      swap4\n      swap3\n      swap2\n      swap1\n      tag_20\n      jump\t// in\n    tag_19:\n      mload(0x40)\n      dup1\n      swap2\n      sub\n      swap1\n      return\n        /* \"contracts/contrat1.sol\":432:1172  function registerDocument(\r... */\n    tag_9:\n        /* \"contracts/contrat1.sol\":604:605  0 */\n      0x00\n        /* \"contracts/contrat1.sol\":587:593  _title */\n      dup4\n        /* \"contracts/contrat1.sol\":581:601  bytes(_title).length */\n      mload\n        /* \"contracts/contrat1.sol\":581:605  bytes(_title).length > 0 */\n      gt\n        /* \"contracts/contrat1.sol\":573:624  require(bytes(_title).length > 0, \"Title required\") */\n      tag_22\n      jumpi\n      mload(0x40)\n      0x08c379a000000000000000000000000000000000000000000000000000000000\n      dup2\n      mstore\n      0x04\n      add\n      tag_23\n      swap1\n      tag_24\n      jump\t// in\n    tag_23:\n      mload(0x40)\n      dup1\n      swap2\n      sub\n      swap1\n      revert\n    tag_22:\n        /* \"contracts/contrat1.sol\":651:652  0 */\n      0x00\n        /* \"contracts/contrat1.sol\":643:648  _size */\n      dup3\n        /* \"contracts/contrat1.sol\":643:652  _size > 0 */\n      gt\n        /* \"contracts/contrat1.sol\":635:678  require(_size > 0, \"Size must be positive\") */\n      tag_25\n      jumpi\n      mload(0x40)\n      0x08c379a000000000000000000000000000000000000000000000000000000000\n      dup2\n      mstore\n      0x04\n      add\n      tag_26\n      swap1\n      tag_27\n      jump\t// in\n    tag_26:\n      mload(0x40)\n      dup1\n      swap2\n      sub\n      swap1\n      revert\n    tag_25:\n        /* \"contracts/contrat1.sol\":716:717  0 */\n      0x00\n        /* \"contracts/contrat1.sol\":697:713  _publicationDate */\n      dup2\n        /* \"contracts/contrat1.sol\":697:717  _publicationDate > 0 */\n      gt\n        /* \"contracts/contrat1.sol\":689:734  require(_publicationDate > 0, \"Invalid date\") */\n      tag_28\n      jumpi\n      mload(0x40)\n      0x08c379a000000000000000000000000000000000000000000000000000000000\n      dup2\n      mstore\n      0x04\n      add\n      tag_29\n      swap1\n      tag_30\n      jump\t// in\n    tag_29:\n      mload(0x40)\n      dup1\n      swap2\n      sub\n      swap1\n      revert\n    tag_28:\n        /* \"contracts/contrat1.sol\":747:762  bytes32 docHash */\n      0x00\n        /* \"contracts/contrat1.sol\":792:798  _title */\n      dup4\n        /* \"contracts/contrat1.sol\":800:805  _size */\n      dup4\n        /* \"contracts/contrat1.sol\":807:823  _publicationDate */\n      dup4\n        /* \"contracts/contrat1.sol\":775:824  abi.encodePacked(_title, _size, _publicationDate) */\n      add(0x20, mload(0x40))\n      tag_31\n      swap4\n      swap3\n      swap2\n      swap1\n      tag_32\n      jump\t// in\n    tag_31:\n      mload(0x40)\n      0x20\n      dup2\n      dup4\n      sub\n      sub\n      dup2\n      mstore\n      swap1\n      0x40\n      mstore\n        /* \"contracts/contrat1.sol\":765:825  keccak256(abi.encodePacked(_title, _size, _publicationDate)) */\n      dup1\n      mload\n      swap1\n      0x20\n      add\n      keccak256\n        /* \"contracts/contrat1.sol\":747:825  bytes32 docHash = keccak256(abi.encodePacked(_title, _size, _publicationDate)) */\n      swap1\n      pop\n        /* \"contracts/contrat1.sol\":881:884  0x0 */\n      0x00\n        /* \"contracts/contrat1.sol\":844:884  registeredDocuments[docHash].hash == 0x0 */\n      dup1\n      shl\n        /* \"contracts/contrat1.sol\":844:863  registeredDocuments */\n      0x00\n        /* \"contracts/contrat1.sol\":844:872  registeredDocuments[docHash] */\n      dup1\n        /* \"contracts/contrat1.sol\":864:871  docHash */\n      dup4\n        /* \"contracts/contrat1.sol\":844:872  registeredDocuments[docHash] */\n      dup2\n      mstore\n      0x20\n      add\n      swap1\n      dup2\n      mstore\n      0x20\n      add\n      0x00\n      keccak256\n        /* \"contracts/contrat1.sol\":844:877  registeredDocuments[docHash].hash */\n      0x03\n      add\n      sload\n        /* \"contracts/contrat1.sol\":844:884  registeredDocuments[docHash].hash == 0x0 */\n      eq\n        /* \"contracts/contrat1.sol\":836:916  require(registeredDocuments[docHash].hash == 0x0, \"Document already registered\") */\n      tag_33\n      jumpi\n      mload(0x40)\n      0x08c379a000000000000000000000000000000000000000000000000000000000\n      dup2\n      mstore\n      0x04\n      add\n      tag_34\n      swap1\n      tag_35\n      jump\t// in\n    tag_34:\n      mload(0x40)\n      dup1\n      swap2\n      sub\n      swap1\n      revert\n    tag_33:\n        /* \"contracts/contrat1.sol\":960:1111  Document({\r... */\n      mload(0x40)\n      dup1\n      0x80\n      add\n      0x40\n      mstore\n      dup1\n        /* \"contracts/contrat1.sol\":991:997  _title */\n      dup6\n        /* \"contracts/contrat1.sol\":960:1111  Document({\r... */\n      dup2\n      mstore\n      0x20\n      add\n        /* \"contracts/contrat1.sol\":1018:1023  _size */\n      dup5\n        /* \"contracts/contrat1.sol\":960:1111  Document({\r... */\n      dup2\n      mstore\n      0x20\n      add\n        /* \"contracts/contrat1.sol\":1055:1071  _publicationDate */\n      dup4\n        /* \"contracts/contrat1.sol\":960:1111  Document({\r... */\n      dup2\n      mstore\n      0x20\n      add\n        /* \"contracts/contrat1.sol\":1092:1099  docHash */\n      dup3\n        /* \"contracts/contrat1.sol\":960:1111  Document({\r... */\n      dup2\n      mstore\n      pop\n        /* \"contracts/contrat1.sol\":929:948  registeredDocuments */\n      0x00\n        /* \"contracts/contrat1.sol\":929:957  registeredDocuments[docHash] */\n      dup1\n        /* \"contracts/contrat1.sol\":949:956  docHash */\n      dup4\n        /* \"contracts/contrat1.sol\":929:957  registeredDocuments[docHash] */\n      dup2\n      mstore\n      0x20\n      add\n      swap1\n      dup2\n      mstore\n      0x20\n      add\n      0x00\n      keccak256\n        /* \"contracts/contrat1.sol\":929:1111  registeredDocuments[docHash] = Document({\r... */\n      0x00\n      dup3\n      add\n      mload\n      dup2\n      0x00\n      add\n      swap1\n      dup1\n      mload\n      swap1\n      0x20\n      add\n      swap1\n      tag_36\n      swap3\n      swap2\n      swap1\n      tag_37\n      jump\t// in\n    tag_36:\n      pop\n      0x20\n      dup3\n      add\n      mload\n      dup2\n      0x01\n      add\n      sstore\n      0x40\n      dup3\n      add\n      mload\n      dup2\n      0x02\n      add\n      sstore\n      0x60\n      dup3\n      add\n      mload\n      dup2\n      0x03\n      add\n      sstore\n      swap1\n      pop\n      pop\n        /* \"contracts/contrat1.sol\":1148:1155  docHash */\n      dup1\n        /* \"contracts/contrat1.sol\":1129:1164  DocumentRegistered(docHash, _title) */\n      0xa4ada3b82f1b3a8134556f3b7ead0975a2e4814f94ea2fb8c50f04848f8e5553\n        /* \"contracts/contrat1.sol\":1157:1163  _title */\n      dup6\n        /* \"contracts/contrat1.sol\":1129:1164  DocumentRegistered(docHash, _title) */\n      mload(0x40)\n      tag_38\n      swap2\n      swap1\n      tag_39\n      jump\t// in\n    tag_38:\n      mload(0x40)\n      dup1\n      swap2\n      sub\n      swap1\n      log2\n        /* \"contracts/contrat1.sol\":432:1172  function registerDocument(\r... */\n      pop\n      pop\n      pop\n      pop\n      jump\t// out\n        /* \"contracts/contrat1.sol\":1241:1896  function verifyDocument(\r... */\n    tag_12:\n        /* \"contracts/contrat1.sol\":1378:1382  bool */\n      0x00\n        /* \"contracts/contrat1.sol\":1426:1427  0 */\n      dup1\n        /* \"contracts/contrat1.sol\":1409:1415  _title */\n      dup5\n        /* \"contracts/contrat1.sol\":1403:1423  bytes(_title).length */\n      mload\n        /* \"contracts/contrat1.sol\":1403:1427  bytes(_title).length > 0 */\n      gt\n        /* \"contracts/contrat1.sol\":1395:1446  require(bytes(_title).length > 0, \"Title required\") */\n      tag_41\n      jumpi\n      mload(0x40)\n      0x08c379a000000000000000000000000000000000000000000000000000000000\n      dup2\n      mstore\n      0x04\n      add\n      tag_42\n      swap1\n      tag_24\n      jump\t// in\n    tag_42:\n      mload(0x40)\n      dup1\n      swap2\n      sub\n      swap1\n      revert\n    tag_41:\n        /* \"contracts/contrat1.sol\":1473:1474  0 */\n      0x00\n        /* \"contracts/contrat1.sol\":1465:1470  _size */\n      dup4\n        /* \"contracts/contrat1.sol\":1465:1474  _size > 0 */\n      gt\n        /* \"contracts/contrat1.sol\":1457:1500  require(_size > 0, \"Size must be positive\") */\n      tag_43\n      jumpi\n      mload(0x40)\n      0x08c379a000000000000000000000000000000000000000000000000000000000\n      dup2\n      mstore\n      0x04\n      add\n      tag_44\n      swap1\n      tag_27\n      jump\t// in\n    tag_44:\n      mload(0x40)\n      dup1\n      swap2\n      sub\n      swap1\n      revert\n    tag_43:\n        /* \"contracts/contrat1.sol\":1538:1539  0 */\n      0x00\n        /* \"contracts/contrat1.sol\":1519:1535  _publicationDate */\n      dup3\n        /* \"contracts/contrat1.sol\":1519:1539  _publicationDate > 0 */\n      gt\n        /* \"contracts/contrat1.sol\":1511:1556  require(_publicationDate > 0, \"Invalid date\") */\n      tag_45\n      jumpi\n      mload(0x40)\n      0x08c379a000000000000000000000000000000000000000000000000000000000\n      dup2\n      mstore\n      0x04\n      add\n      tag_46\n      swap1\n      tag_30\n      jump\t// in\n    tag_46:\n      mload(0x40)\n      dup1\n      swap2\n      sub\n      swap1\n      revert\n    tag_45:\n        /* \"contracts/contrat1.sol\":1595:1610  block.timestamp */\n      timestamp\n        /* \"contracts/contrat1.sol\":1575:1591  _publicationDate */\n      dup3\n        /* \"contracts/contrat1.sol\":1575:1610  _publicationDate <= block.timestamp */\n      gt\n      iszero\n        /* \"contracts/contrat1.sol\":1567:1655  require(_publicationDate <= block.timestamp, \"Publication date cannot be in the future\") */\n      tag_47\n      jumpi\n      mload(0x40)\n      0x08c379a000000000000000000000000000000000000000000000000000000000\n      dup2\n      mstore\n      0x04\n      add\n      tag_48\n      swap1\n      tag_49\n      jump\t// in\n    tag_48:\n      mload(0x40)\n      dup1\n      swap2\n      sub\n      swap1\n      revert\n    tag_47:\n        /* \"contracts/contrat1.sol\":1668:1683  bytes32 docHash */\n      0x00\n        /* \"contracts/contrat1.sol\":1713:1719  _title */\n      dup5\n        /* \"contracts/contrat1.sol\":1721:1726  _size */\n      dup5\n        /* \"contracts/contrat1.sol\":1728:1744  _publicationDate */\n      dup5\n        /* \"contracts/contrat1.sol\":1696:1745  abi.encodePacked(_title, _size, _publicationDate) */\n      add(0x20, mload(0x40))\n      tag_50\n      swap4\n      swap3\n      swap2\n      swap1\n      tag_32\n      jump\t// in\n    tag_50:\n      mload(0x40)\n      0x20\n      dup2\n      dup4\n      sub\n      sub\n      dup2\n      mstore\n      swap1\n      0x40\n      mstore\n        /* \"contracts/contrat1.sol\":1686:1746  keccak256(abi.encodePacked(_title, _size, _publicationDate)) */\n      dup1\n      mload\n      swap1\n      0x20\n      add\n      keccak256\n        /* \"contracts/contrat1.sol\":1668:1746  bytes32 docHash = keccak256(abi.encodePacked(_title, _size, _publicationDate)) */\n      swap1\n      pop\n        /* \"contracts/contrat1.sol\":1757:1768  bool exists */\n      0x00\n        /* \"contracts/contrat1.sol\":1809:1812  0x0 */\n      dup1\n        /* \"contracts/contrat1.sol\":1772:1812  registeredDocuments[docHash].hash != 0x0 */\n      0x00\n      shl\n        /* \"contracts/contrat1.sol\":1772:1791  registeredDocuments */\n      0x00\n        /* \"contracts/contrat1.sol\":1772:1800  registeredDocuments[docHash] */\n      dup1\n        /* \"contracts/contrat1.sol\":1792:1799  docHash */\n      dup5\n        /* \"contracts/contrat1.sol\":1772:1800  registeredDocuments[docHash] */\n      dup2\n      mstore\n      0x20\n      add\n      swap1\n      dup2\n      mstore\n      0x20\n      add\n      0x00\n      keccak256\n        /* \"contracts/contrat1.sol\":1772:1805  registeredDocuments[docHash].hash */\n      0x03\n      add\n      sload\n        /* \"contracts/contrat1.sol\":1772:1812  registeredDocuments[docHash].hash != 0x0 */\n      eq\n      iszero\n        /* \"contracts/contrat1.sol\":1757:1813  bool exists = (registeredDocuments[docHash].hash != 0x0) */\n      swap1\n      pop\n        /* \"contracts/contrat1.sol\":1848:1855  docHash */\n      dup2\n        /* \"contracts/contrat1.sol\":1831:1864  DocumentVerified(docHash, exists) */\n      0x60c74738e7245c18eb22f19c5721213f5a434f429689bba57898e5860189e92d\n        /* \"contracts/contrat1.sol\":1857:1863  exists */\n      dup3\n        /* \"contracts/contrat1.sol\":1831:1864  DocumentVerified(docHash, exists) */\n      mload(0x40)\n      tag_51\n      swap2\n      swap1\n      tag_14\n      jump\t// in\n    tag_51:\n      mload(0x40)\n      dup1\n      swap2\n      sub\n      swap1\n      log2\n        /* \"contracts/contrat1.sol\":1882:1888  exists */\n      dup1\n        /* \"contracts/contrat1.sol\":1875:1888  return exists */\n      swap3\n      pop\n      pop\n      pop\n        /* \"contracts/contrat1.sol\":1241:1896  function verifyDocument(\r... */\n      swap4\n      swap3\n      pop\n      pop\n      pop\n      jump\t// out\n        /* \"contracts/contrat1.sol\":228:283  mapping(bytes32 => Document) public registeredDocuments */\n    tag_18:\n      mstore(0x20, 0x00)\n      dup1\n      0x00\n      mstore\n      keccak256(0x00, 0x40)\n      0x00\n      swap2\n      pop\n      swap1\n      pop\n      dup1\n      0x00\n      add\n      dup1\n      sload\n      tag_52\n      swap1\n      tag_53\n      jump\t// in\n    tag_52:\n      dup1\n      0x1f\n      add\n      0x20\n      dup1\n      swap2\n      div\n      mul\n      0x20\n      add\n      mload(0x40)\n      swap1\n      dup2\n      add\n      0x40\n      mstore\n      dup1\n      swap3\n      swap2\n      swap1\n      dup2\n      dup2\n      mstore\n      0x20\n      add\n      dup3\n      dup1\n      sload\n      tag_54\n      swap1\n      tag_53\n      jump\t// in\n    tag_54:\n      dup1\n      iszero\n      tag_55\n      jumpi\n      dup1\n      0x1f\n      lt\n      tag_56\n      jumpi\n      0x0100\n      dup1\n      dup4\n      sload\n      div\n      mul\n      dup4\n      mstore\n      swap2\n      0x20\n      add\n      swap2\n      jump(tag_55)\n    tag_56:\n      dup3\n      add\n      swap2\n      swap1\n      0x00\n      mstore\n      keccak256(0x00, 0x20)\n      swap1\n    tag_57:\n      dup2\n      sload\n      dup2\n      mstore\n      swap1\n      0x01\n      add\n      swap1\n      0x20\n      add\n      dup1\n      dup4\n      gt\n      tag_57\n      jumpi\n      dup3\n      swap1\n      sub\n      0x1f\n      and\n      dup3\n      add\n      swap2\n    tag_55:\n      pop\n      pop\n      pop\n      pop\n      pop\n      swap1\n      dup1\n      0x01\n      add\n      sload\n      swap1\n      dup1\n      0x02\n      add\n      sload\n      swap1\n      dup1\n      0x03\n      add\n      sload\n      swap1\n      pop\n      dup5\n      jump\t// out\n    tag_37:\n      dup3\n      dup1\n      sload\n      tag_58\n      swap1\n      tag_53\n      jump\t// in\n    tag_58:\n      swap1\n      0x00\n      mstore\n      keccak256(0x00, 0x20)\n      swap1\n      0x1f\n      add\n      0x20\n      swap1\n      div\n      dup2\n      add\n      swap3\n      dup3\n      tag_60\n      jumpi\n      0x00\n      dup6\n      sstore\n      jump(tag_59)\n    tag_60:\n      dup3\n      0x1f\n      lt\n      tag_61\n      jumpi\n      dup1\n      mload\n      not(0xff)\n      and\n      dup4\n      dup1\n      add\n      or\n      dup6\n      sstore\n      jump(tag_59)\n    tag_61:\n      dup3\n      dup1\n      add\n      0x01\n      add\n      dup6\n      sstore\n      dup3\n      iszero\n      tag_59\n      jumpi\n      swap2\n      dup3\n      add\n    tag_62:\n      dup3\n      dup2\n      gt\n      iszero\n      tag_63\n      jumpi\n      dup3\n      mload\n      dup3\n      sstore\n      swap2\n      0x20\n      add\n      swap2\n      swap1\n      0x01\n      add\n      swap1\n      jump(tag_62)\n    tag_63:\n    tag_59:\n      pop\n      swap1\n      pop\n      tag_64\n      swap2\n      swap1\n      tag_65\n      jump\t// in\n    tag_64:\n      pop\n      swap1\n      jump\t// out\n    tag_65:\n    tag_66:\n      dup1\n      dup3\n      gt\n      iszero\n      tag_67\n      jumpi\n      0x00\n      dup2\n      0x00\n      swap1\n      sstore\n      pop\n      0x01\n      add\n      jump(tag_66)\n    tag_67:\n      pop\n      swap1\n      jump\t// out\n        /* \"#utility.yul\":7:351   */\n    tag_69:\n      0x00\n        /* \"#utility.yul\":110:175   */\n      tag_71\n        /* \"#utility.yul\":125:174   */\n      tag_72\n        /* \"#utility.yul\":167:173   */\n      dup5\n        /* \"#utility.yul\":125:174   */\n      tag_73\n      jump\t// in\n    tag_72:\n        /* \"#utility.yul\":110:175   */\n      tag_74\n      jump\t// in\n    tag_71:\n        /* \"#utility.yul\":101:175   */\n      swap1\n      pop\n        /* \"#utility.yul\":198:204   */\n      dup3\n        /* \"#utility.yul\":191:196   */\n      dup2\n        /* \"#utility.yul\":184:205   */\n      mstore\n        /* \"#utility.yul\":236:240   */\n      0x20\n        /* \"#utility.yul\":229:234   */\n      dup2\n        /* \"#utility.yul\":225:241   */\n      add\n        /* \"#utility.yul\":274:277   */\n      dup5\n        /* \"#utility.yul\":265:271   */\n      dup5\n        /* \"#utility.yul\":260:263   */\n      dup5\n        /* \"#utility.yul\":256:272   */\n      add\n        /* \"#utility.yul\":253:278   */\n      gt\n        /* \"#utility.yul\":250:252   */\n      iszero\n      tag_75\n      jumpi\n        /* \"#utility.yul\":291:292   */\n      0x00\n        /* \"#utility.yul\":288:289   */\n      dup1\n        /* \"#utility.yul\":281:293   */\n      revert\n        /* \"#utility.yul\":250:252   */\n    tag_75:\n        /* \"#utility.yul\":304:345   */\n      tag_76\n        /* \"#utility.yul\":338:344   */\n      dup5\n        /* \"#utility.yul\":333:336   */\n      dup3\n        /* \"#utility.yul\":328:331   */\n      dup6\n        /* \"#utility.yul\":304:345   */\n      tag_77\n      jump\t// in\n    tag_76:\n        /* \"#utility.yul\":91:351   */\n      pop\n      swap4\n      swap3\n      pop\n      pop\n      pop\n      jump\t// out\n        /* \"#utility.yul\":357:496   */\n    tag_78:\n      0x00\n        /* \"#utility.yul\":441:447   */\n      dup2\n        /* \"#utility.yul\":428:448   */\n      calldataload\n        /* \"#utility.yul\":419:448   */\n      swap1\n      pop\n        /* \"#utility.yul\":457:490   */\n      tag_80\n        /* \"#utility.yul\":484:489   */\n      dup2\n        /* \"#utility.yul\":457:490   */\n      tag_81\n      jump\t// in\n    tag_80:\n        /* \"#utility.yul\":409:496   */\n      swap3\n      swap2\n      pop\n      pop\n      jump\t// out\n        /* \"#utility.yul\":516:789   */\n    tag_82:\n      0x00\n        /* \"#utility.yul\":621:624   */\n      dup3\n        /* \"#utility.yul\":614:618   */\n      0x1f\n        /* \"#utility.yul\":606:612   */\n      dup4\n        /* \"#utility.yul\":602:619   */\n      add\n        /* \"#utility.yul\":598:625   */\n      slt\n        /* \"#utility.yul\":588:590   */\n      tag_84\n      jumpi\n        /* \"#utility.yul\":639:640   */\n      0x00\n        /* \"#utility.yul\":636:637   */\n      dup1\n        /* \"#utility.yul\":629:641   */\n      revert\n        /* \"#utility.yul\":588:590   */\n    tag_84:\n        /* \"#utility.yul\":679:685   */\n      dup2\n        /* \"#utility.yul\":666:686   */\n      calldataload\n        /* \"#utility.yul\":704:783   */\n      tag_85\n        /* \"#utility.yul\":779:782   */\n      dup5\n        /* \"#utility.yul\":771:777   */\n      dup3\n        /* \"#utility.yul\":764:768   */\n      0x20\n        /* \"#utility.yul\":756:762   */\n      dup7\n        /* \"#utility.yul\":752:769   */\n      add\n        /* \"#utility.yul\":704:783   */\n      tag_69\n      jump\t// in\n    tag_85:\n        /* \"#utility.yul\":695:783   */\n      swap2\n      pop\n        /* \"#utility.yul\":578:789   */\n      pop\n      swap3\n      swap2\n      pop\n      pop\n      jump\t// out\n        /* \"#utility.yul\":795:934   */\n    tag_86:\n      0x00\n        /* \"#utility.yul\":879:885   */\n      dup2\n        /* \"#utility.yul\":866:886   */\n      calldataload\n        /* \"#utility.yul\":857:886   */\n      swap1\n      pop\n        /* \"#utility.yul\":895:928   */\n      tag_88\n        /* \"#utility.yul\":922:927   */\n      dup2\n        /* \"#utility.yul\":895:928   */\n      tag_89\n      jump\t// in\n    tag_88:\n        /* \"#utility.yul\":847:934   */\n      swap3\n      swap2\n      pop\n      pop\n      jump\t// out\n        /* \"#utility.yul\":940:1202   */\n    tag_17:\n      0x00\n        /* \"#utility.yul\":1048:1050   */\n      0x20\n        /* \"#utility.yul\":1036:1045   */\n      dup3\n        /* \"#utility.yul\":1027:1034   */\n      dup5\n        /* \"#utility.yul\":1023:1046   */\n      sub\n        /* \"#utility.yul\":1019:1051   */\n      slt\n        /* \"#utility.yul\":1016:1018   */\n      iszero\n      tag_91\n      jumpi\n        /* \"#utility.yul\":1064:1065   */\n      0x00\n        /* \"#utility.yul\":1061:1062   */\n      dup1\n        /* \"#utility.yul\":1054:1066   */\n      revert\n        /* \"#utility.yul\":1016:1018   */\n    tag_91:\n        /* \"#utility.yul\":1107:1108   */\n      0x00\n        /* \"#utility.yul\":1132:1185   */\n      tag_92\n        /* \"#utility.yul\":1177:1184   */\n      dup5\n        /* \"#utility.yul\":1168:1174   */\n      dup3\n        /* \"#utility.yul\":1157:1166   */\n      dup6\n        /* \"#utility.yul\":1153:1175   */\n      add\n        /* \"#utility.yul\":1132:1185   */\n      tag_78\n      jump\t// in\n    tag_92:\n        /* \"#utility.yul\":1122:1185   */\n      swap2\n      pop\n        /* \"#utility.yul\":1078:1195   */\n      pop\n        /* \"#utility.yul\":1006:1202   */\n      swap3\n      swap2\n      pop\n      pop\n      jump\t// out\n        /* \"#utility.yul\":1208:1873   */\n    tag_8:\n      0x00\n      dup1\n      0x00\n        /* \"#utility.yul\":1360:1362   */\n      0x60\n        /* \"#utility.yul\":1348:1357   */\n      dup5\n        /* \"#utility.yul\":1339:1346   */\n      dup7\n        /* \"#utility.yul\":1335:1358   */\n      sub\n        /* \"#utility.yul\":1331:1363   */\n      slt\n        /* \"#utility.yul\":1328:1330   */\n      iszero\n      tag_94\n      jumpi\n        /* \"#utility.yul\":1376:1377   */\n      0x00\n        /* \"#utility.yul\":1373:1374   */\n      dup1\n        /* \"#utility.yul\":1366:1378   */\n      revert\n        /* \"#utility.yul\":1328:1330   */\n    tag_94:\n        /* \"#utility.yul\":1447:1448   */\n      0x00\n        /* \"#utility.yul\":1436:1445   */\n      dup5\n        /* \"#utility.yul\":1432:1449   */\n      add\n        /* \"#utility.yul\":1419:1450   */\n      calldataload\n        /* \"#utility.yul\":1477:1495   */\n      0xffffffffffffffff\n        /* \"#utility.yul\":1469:1475   */\n      dup2\n        /* \"#utility.yul\":1466:1496   */\n      gt\n        /* \"#utility.yul\":1463:1465   */\n      iszero\n      tag_95\n      jumpi\n        /* \"#utility.yul\":1509:1510   */\n      0x00\n        /* \"#utility.yul\":1506:1507   */\n      dup1\n        /* \"#utility.yul\":1499:1511   */\n      revert\n        /* \"#utility.yul\":1463:1465   */\n    tag_95:\n        /* \"#utility.yul\":1537:1600   */\n      tag_96\n        /* \"#utility.yul\":1592:1599   */\n      dup7\n        /* \"#utility.yul\":1583:1589   */\n      dup3\n        /* \"#utility.yul\":1572:1581   */\n      dup8\n        /* \"#utility.yul\":1568:1590   */\n      add\n        /* \"#utility.yul\":1537:1600   */\n      tag_82\n      jump\t// in\n    tag_96:\n        /* \"#utility.yul\":1527:1600   */\n      swap4\n      pop\n        /* \"#utility.yul\":1390:1610   */\n      pop\n        /* \"#utility.yul\":1649:1651   */\n      0x20\n        /* \"#utility.yul\":1675:1728   */\n      tag_97\n        /* \"#utility.yul\":1720:1727   */\n      dup7\n        /* \"#utility.yul\":1711:1717   */\n      dup3\n        /* \"#utility.yul\":1700:1709   */\n      dup8\n        /* \"#utility.yul\":1696:1718   */\n      add\n        /* \"#utility.yul\":1675:1728   */\n      tag_86\n      jump\t// in\n    tag_97:\n        /* \"#utility.yul\":1665:1728   */\n      swap3\n      pop\n        /* \"#utility.yul\":1620:1738   */\n      pop\n        /* \"#utility.yul\":1777:1779   */\n      0x40\n        /* \"#utility.yul\":1803:1856   */\n      tag_98\n        /* \"#utility.yul\":1848:1855   */\n      dup7\n        /* \"#utility.yul\":1839:1845   */\n      dup3\n        /* \"#utility.yul\":1828:1837   */\n      dup8\n        /* \"#utility.yul\":1824:1846   */\n      add\n        /* \"#utility.yul\":1803:1856   */\n      tag_86\n      jump\t// in\n    tag_98:\n        /* \"#utility.yul\":1793:1856   */\n      swap2\n      pop\n        /* \"#utility.yul\":1748:1866   */\n      pop\n        /* \"#utility.yul\":1318:1873   */\n      swap3\n      pop\n      swap3\n      pop\n      swap3\n      jump\t// out\n        /* \"#utility.yul\":1879:1988   */\n    tag_99:\n        /* \"#utility.yul\":1960:1981   */\n      tag_101\n        /* \"#utility.yul\":1975:1980   */\n      dup2\n        /* \"#utility.yul\":1960:1981   */\n      tag_102\n      jump\t// in\n    tag_101:\n        /* \"#utility.yul\":1955:1958   */\n      dup3\n        /* \"#utility.yul\":1948:1982   */\n      mstore\n        /* \"#utility.yul\":1938:1988   */\n      pop\n      pop\n      jump\t// out\n        /* \"#utility.yul\":1994:2112   */\n    tag_103:\n        /* \"#utility.yul\":2081:2105   */\n      tag_105\n        /* \"#utility.yul\":2099:2104   */\n      dup2\n        /* \"#utility.yul\":2081:2105   */\n      tag_106\n      jump\t// in\n    tag_105:\n        /* \"#utility.yul\":2076:2079   */\n      dup3\n        /* \"#utility.yul\":2069:2106   */\n      mstore\n        /* \"#utility.yul\":2059:2112   */\n      pop\n      pop\n      jump\t// out\n        /* \"#utility.yul\":2118:2482   */\n    tag_107:\n      0x00\n        /* \"#utility.yul\":2234:2273   */\n      tag_109\n        /* \"#utility.yul\":2267:2272   */\n      dup3\n        /* \"#utility.yul\":2234:2273   */\n      tag_110\n      jump\t// in\n    tag_109:\n        /* \"#utility.yul\":2289:2360   */\n      tag_111\n        /* \"#utility.yul\":2353:2359   */\n      dup2\n        /* \"#utility.yul\":2348:2351   */\n      dup6\n        /* \"#utility.yul\":2289:2360   */\n      tag_112\n      jump\t// in\n    tag_111:\n        /* \"#utility.yul\":2282:2360   */\n      swap4\n      pop\n        /* \"#utility.yul\":2369:2421   */\n      tag_113\n        /* \"#utility.yul\":2414:2420   */\n      dup2\n        /* \"#utility.yul\":2409:2412   */\n      dup6\n        /* \"#utility.yul\":2402:2406   */\n      0x20\n        /* \"#utility.yul\":2395:2400   */\n      dup7\n        /* \"#utility.yul\":2391:2407   */\n      add\n        /* \"#utility.yul\":2369:2421   */\n      tag_114\n      jump\t// in\n    tag_113:\n        /* \"#utility.yul\":2446:2475   */\n      tag_115\n        /* \"#utility.yul\":2468:2474   */\n      dup2\n        /* \"#utility.yul\":2446:2475   */\n      tag_116\n      jump\t// in\n    tag_115:\n        /* \"#utility.yul\":2441:2444   */\n      dup5\n        /* \"#utility.yul\":2437:2476   */\n      add\n        /* \"#utility.yul\":2430:2476   */\n      swap2\n      pop\n        /* \"#utility.yul\":2210:2482   */\n      pop\n      swap3\n      swap2\n      pop\n      pop\n      jump\t// out\n        /* \"#utility.yul\":2488:2865   */\n    tag_117:\n      0x00\n        /* \"#utility.yul\":2622:2661   */\n      tag_119\n        /* \"#utility.yul\":2655:2660   */\n      dup3\n        /* \"#utility.yul\":2622:2661   */\n      tag_110\n      jump\t// in\n    tag_119:\n        /* \"#utility.yul\":2677:2766   */\n      tag_120\n        /* \"#utility.yul\":2759:2765   */\n      dup2\n        /* \"#utility.yul\":2754:2757   */\n      dup6\n        /* \"#utility.yul\":2677:2766   */\n      tag_121\n      jump\t// in\n    tag_120:\n        /* \"#utility.yul\":2670:2766   */\n      swap4\n      pop\n        /* \"#utility.yul\":2775:2827   */\n      tag_122\n        /* \"#utility.yul\":2820:2826   */\n      dup2\n        /* \"#utility.yul\":2815:2818   */\n      dup6\n        /* \"#utility.yul\":2808:2812   */\n      0x20\n        /* \"#utility.yul\":2801:2806   */\n      dup7\n        /* \"#utility.yul\":2797:2813   */\n      add\n        /* \"#utility.yul\":2775:2827   */\n      tag_114\n      jump\t// in\n    tag_122:\n        /* \"#utility.yul\":2852:2858   */\n      dup1\n        /* \"#utility.yul\":2847:2850   */\n      dup5\n        /* \"#utility.yul\":2843:2859   */\n      add\n        /* \"#utility.yul\":2836:2859   */\n      swap2\n      pop\n        /* \"#utility.yul\":2598:2865   */\n      pop\n      swap3\n      swap2\n      pop\n      pop\n      jump\t// out\n        /* \"#utility.yul\":2871:3196   */\n    tag_123:\n      0x00\n        /* \"#utility.yul\":3034:3101   */\n      tag_125\n        /* \"#utility.yul\":3098:3100   */\n      0x1b\n        /* \"#utility.yul\":3093:3096   */\n      dup4\n        /* \"#utility.yul\":3034:3101   */\n      tag_112\n      jump\t// in\n    tag_125:\n        /* \"#utility.yul\":3027:3101   */\n      swap2\n      pop\n        /* \"#utility.yul\":3131:3160   */\n      0x446f63756d656e7420616c726561647920726567697374657265640000000000\n        /* \"#utility.yul\":3127:3128   */\n      0x00\n        /* \"#utility.yul\":3122:3125   */\n      dup4\n        /* \"#utility.yul\":3118:3129   */\n      add\n        /* \"#utility.yul\":3111:3161   */\n      mstore\n        /* \"#utility.yul\":3187:3189   */\n      0x20\n        /* \"#utility.yul\":3182:3185   */\n      dup3\n        /* \"#utility.yul\":3178:3190   */\n      add\n        /* \"#utility.yul\":3171:3190   */\n      swap1\n      pop\n        /* \"#utility.yul\":3017:3196   */\n      swap2\n      swap1\n      pop\n      jump\t// out\n        /* \"#utility.yul\":3202:3574   */\n    tag_126:\n      0x00\n        /* \"#utility.yul\":3365:3432   */\n      tag_128\n        /* \"#utility.yul\":3429:3431   */\n      0x28\n        /* \"#utility.yul\":3424:3427   */\n      dup4\n        /* \"#utility.yul\":3365:3432   */\n      tag_112\n      jump\t// in\n    tag_128:\n        /* \"#utility.yul\":3358:3432   */\n      swap2\n      pop\n        /* \"#utility.yul\":3462:3496   */\n      0x5075626c69636174696f6e20646174652063616e6e6f7420626520696e207468\n        /* \"#utility.yul\":3458:3459   */\n      0x00\n        /* \"#utility.yul\":3453:3456   */\n      dup4\n        /* \"#utility.yul\":3449:3460   */\n      add\n        /* \"#utility.yul\":3442:3497   */\n      mstore\n        /* \"#utility.yul\":3528:3538   */\n      0x6520667574757265000000000000000000000000000000000000000000000000\n        /* \"#utility.yul\":3523:3525   */\n      0x20\n        /* \"#utility.yul\":3518:3521   */\n      dup4\n        /* \"#utility.yul\":3514:3526   */\n      add\n        /* \"#utility.yul\":3507:3539   */\n      mstore\n        /* \"#utility.yul\":3565:3567   */\n      0x40\n        /* \"#utility.yul\":3560:3563   */\n      dup3\n        /* \"#utility.yul\":3556:3568   */\n      add\n        /* \"#utility.yul\":3549:3568   */\n      swap1\n      pop\n        /* \"#utility.yul\":3348:3574   */\n      swap2\n      swap1\n      pop\n      jump\t// out\n        /* \"#utility.yul\":3580:3892   */\n    tag_129:\n      0x00\n        /* \"#utility.yul\":3743:3810   */\n      tag_131\n        /* \"#utility.yul\":3807:3809   */\n      0x0e\n        /* \"#utility.yul\":3802:3805   */\n      dup4\n        /* \"#utility.yul\":3743:3810   */\n      tag_112\n      jump\t// in\n    tag_131:\n        /* \"#utility.yul\":3736:3810   */\n      swap2\n      pop\n        /* \"#utility.yul\":3840:3856   */\n      0x5469746c65207265717569726564000000000000000000000000000000000000\n        /* \"#utility.yul\":3836:3837   */\n      0x00\n        /* \"#utility.yul\":3831:3834   */\n      dup4\n        /* \"#utility.yul\":3827:3838   */\n      add\n        /* \"#utility.yul\":3820:3857   */\n      mstore\n        /* \"#utility.yul\":3883:3885   */\n      0x20\n        /* \"#utility.yul\":3878:3881   */\n      dup3\n        /* \"#utility.yul\":3874:3886   */\n      add\n        /* \"#utility.yul\":3867:3886   */\n      swap1\n      pop\n        /* \"#utility.yul\":3726:3892   */\n      swap2\n      swap1\n      pop\n      jump\t// out\n        /* \"#utility.yul\":3898:4217   */\n    tag_132:\n      0x00\n        /* \"#utility.yul\":4061:4128   */\n      tag_134\n        /* \"#utility.yul\":4125:4127   */\n      0x15\n        /* \"#utility.yul\":4120:4123   */\n      dup4\n        /* \"#utility.yul\":4061:4128   */\n      tag_112\n      jump\t// in\n    tag_134:\n        /* \"#utility.yul\":4054:4128   */\n      swap2\n      pop\n        /* \"#utility.yul\":4158:4181   */\n      0x53697a65206d75737420626520706f7369746976650000000000000000000000\n        /* \"#utility.yul\":4154:4155   */\n      0x00\n        /* \"#utility.yul\":4149:4152   */\n      dup4\n        /* \"#utility.yul\":4145:4156   */\n      add\n        /* \"#utility.yul\":4138:4182   */\n      mstore\n        /* \"#utility.yul\":4208:4210   */\n      0x20\n        /* \"#utility.yul\":4203:4206   */\n      dup3\n        /* \"#utility.yul\":4199:4211   */\n      add\n        /* \"#utility.yul\":4192:4211   */\n      swap1\n      pop\n        /* \"#utility.yul\":4044:4217   */\n      swap2\n      swap1\n      pop\n      jump\t// out\n        /* \"#utility.yul\":4223:4533   */\n    tag_135:\n      0x00\n        /* \"#utility.yul\":4386:4453   */\n      tag_137\n        /* \"#utility.yul\":4450:4452   */\n      0x0c\n        /* \"#utility.yul\":4445:4448   */\n      dup4\n        /* \"#utility.yul\":4386:4453   */\n      tag_112\n      jump\t// in\n    tag_137:\n        /* \"#utility.yul\":4379:4453   */\n      swap2\n      pop\n        /* \"#utility.yul\":4483:4497   */\n      0x496e76616c696420646174650000000000000000000000000000000000000000\n        /* \"#utility.yul\":4479:4480   */\n      0x00\n        /* \"#utility.yul\":4474:4477   */\n      dup4\n        /* \"#utility.yul\":4470:4481   */\n      add\n        /* \"#utility.yul\":4463:4498   */\n      mstore\n        /* \"#utility.yul\":4524:4526   */\n      0x20\n        /* \"#utility.yul\":4519:4522   */\n      dup3\n        /* \"#utility.yul\":4515:4527   */\n      add\n        /* \"#utility.yul\":4508:4527   */\n      swap1\n      pop\n        /* \"#utility.yul\":4369:4533   */\n      swap2\n      swap1\n      pop\n      jump\t// out\n        /* \"#utility.yul\":4539:4657   */\n    tag_138:\n        /* \"#utility.yul\":4626:4650   */\n      tag_140\n        /* \"#utility.yul\":4644:4649   */\n      dup2\n        /* \"#utility.yul\":4626:4650   */\n      tag_141\n      jump\t// in\n    tag_140:\n        /* \"#utility.yul\":4621:4624   */\n      dup3\n        /* \"#utility.yul\":4614:4651   */\n      mstore\n        /* \"#utility.yul\":4604:4657   */\n      pop\n      pop\n      jump\t// out\n        /* \"#utility.yul\":4663:4820   */\n    tag_142:\n        /* \"#utility.yul\":4768:4813   */\n      tag_144\n        /* \"#utility.yul\":4788:4812   */\n      tag_145\n        /* \"#utility.yul\":4806:4811   */\n      dup3\n        /* \"#utility.yul\":4788:4812   */\n      tag_141\n      jump\t// in\n    tag_145:\n        /* \"#utility.yul\":4768:4813   */\n      tag_146\n      jump\t// in\n    tag_144:\n        /* \"#utility.yul\":4763:4766   */\n      dup3\n        /* \"#utility.yul\":4756:4814   */\n      mstore\n        /* \"#utility.yul\":4746:4820   */\n      pop\n      pop\n      jump\t// out\n        /* \"#utility.yul\":4826:5383   */\n    tag_32:\n      0x00\n        /* \"#utility.yul\":5036:5131   */\n      tag_148\n        /* \"#utility.yul\":5127:5130   */\n      dup3\n        /* \"#utility.yul\":5118:5124   */\n      dup7\n        /* \"#utility.yul\":5036:5131   */\n      tag_117\n      jump\t// in\n    tag_148:\n        /* \"#utility.yul\":5029:5131   */\n      swap2\n      pop\n        /* \"#utility.yul\":5141:5216   */\n      tag_149\n        /* \"#utility.yul\":5212:5215   */\n      dup3\n        /* \"#utility.yul\":5203:5209   */\n      dup6\n        /* \"#utility.yul\":5141:5216   */\n      tag_142\n      jump\t// in\n    tag_149:\n        /* \"#utility.yul\":5241:5243   */\n      0x20\n        /* \"#utility.yul\":5236:5239   */\n      dup3\n        /* \"#utility.yul\":5232:5244   */\n      add\n        /* \"#utility.yul\":5225:5244   */\n      swap2\n      pop\n        /* \"#utility.yul\":5254:5329   */\n      tag_150\n        /* \"#utility.yul\":5325:5328   */\n      dup3\n        /* \"#utility.yul\":5316:5322   */\n      dup5\n        /* \"#utility.yul\":5254:5329   */\n      tag_142\n      jump\t// in\n    tag_150:\n        /* \"#utility.yul\":5354:5356   */\n      0x20\n        /* \"#utility.yul\":5349:5352   */\n      dup3\n        /* \"#utility.yul\":5345:5357   */\n      add\n        /* \"#utility.yul\":5338:5357   */\n      swap2\n      pop\n        /* \"#utility.yul\":5374:5377   */\n      dup2\n        /* \"#utility.yul\":5367:5377   */\n      swap1\n      pop\n        /* \"#utility.yul\":5018:5383   */\n      swap5\n      swap4\n      pop\n      pop\n      pop\n      pop\n      jump\t// out\n        /* \"#utility.yul\":5389:5599   */\n    tag_14:\n      0x00\n        /* \"#utility.yul\":5514:5516   */\n      0x20\n        /* \"#utility.yul\":5503:5512   */\n      dup3\n        /* \"#utility.yul\":5499:5517   */\n      add\n        /* \"#utility.yul\":5491:5517   */\n      swap1\n      pop\n        /* \"#utility.yul\":5527:5592   */\n      tag_152\n        /* \"#utility.yul\":5589:5590   */\n      0x00\n        /* \"#utility.yul\":5578:5587   */\n      dup4\n        /* \"#utility.yul\":5574:5591   */\n      add\n        /* \"#utility.yul\":5565:5571   */\n      dup5\n        /* \"#utility.yul\":5527:5592   */\n      tag_99\n      jump\t// in\n    tag_152:\n        /* \"#utility.yul\":5481:5599   */\n      swap3\n      swap2\n      pop\n      pop\n      jump\t// out\n        /* \"#utility.yul\":5605:5918   */\n    tag_39:\n      0x00\n        /* \"#utility.yul\":5756:5758   */\n      0x20\n        /* \"#utility.yul\":5745:5754   */\n      dup3\n        /* \"#utility.yul\":5741:5759   */\n      add\n        /* \"#utility.yul\":5733:5759   */\n      swap1\n      pop\n        /* \"#utility.yul\":5805:5814   */\n      dup2\n        /* \"#utility.yul\":5799:5803   */\n      dup2\n        /* \"#utility.yul\":5795:5815   */\n      sub\n        /* \"#utility.yul\":5791:5792   */\n      0x00\n        /* \"#utility.yul\":5780:5789   */\n      dup4\n        /* \"#utility.yul\":5776:5793   */\n      add\n        /* \"#utility.yul\":5769:5816   */\n      mstore\n        /* \"#utility.yul\":5833:5911   */\n      tag_154\n        /* \"#utility.yul\":5906:5910   */\n      dup2\n        /* \"#utility.yul\":5897:5903   */\n      dup5\n        /* \"#utility.yul\":5833:5911   */\n      tag_107\n      jump\t// in\n    tag_154:\n        /* \"#utility.yul\":5825:5911   */\n      swap1\n      pop\n        /* \"#utility.yul\":5723:5918   */\n      swap3\n      swap2\n      pop\n      pop\n      jump\t// out\n        /* \"#utility.yul\":5924:6568   */\n    tag_20:\n      0x00\n        /* \"#utility.yul\":6159:6162   */\n      0x80\n        /* \"#utility.yul\":6148:6157   */\n      dup3\n        /* \"#utility.yul\":6144:6163   */\n      add\n        /* \"#utility.yul\":6136:6163   */\n      swap1\n      pop\n        /* \"#utility.yul\":6209:6218   */\n      dup2\n        /* \"#utility.yul\":6203:6207   */\n      dup2\n        /* \"#utility.yul\":6199:6219   */\n      sub\n        /* \"#utility.yul\":6195:6196   */\n      0x00\n        /* \"#utility.yul\":6184:6193   */\n      dup4\n        /* \"#utility.yul\":6180:6197   */\n      add\n        /* \"#utility.yul\":6173:6220   */\n      mstore\n        /* \"#utility.yul\":6237:6315   */\n      tag_156\n        /* \"#utility.yul\":6310:6314   */\n      dup2\n        /* \"#utility.yul\":6301:6307   */\n      dup8\n        /* \"#utility.yul\":6237:6315   */\n      tag_107\n      jump\t// in\n    tag_156:\n        /* \"#utility.yul\":6229:6315   */\n      swap1\n      pop\n        /* \"#utility.yul\":6325:6397   */\n      tag_157\n        /* \"#utility.yul\":6393:6395   */\n      0x20\n        /* \"#utility.yul\":6382:6391   */\n      dup4\n        /* \"#utility.yul\":6378:6396   */\n      add\n        /* \"#utility.yul\":6369:6375   */\n      dup7\n        /* \"#utility.yul\":6325:6397   */\n      tag_138\n      jump\t// in\n    tag_157:\n        /* \"#utility.yul\":6407:6479   */\n      tag_158\n        /* \"#utility.yul\":6475:6477   */\n      0x40\n        /* \"#utility.yul\":6464:6473   */\n      dup4\n        /* \"#utility.yul\":6460:6478   */\n      add\n        /* \"#utility.yul\":6451:6457   */\n      dup6\n        /* \"#utility.yul\":6407:6479   */\n      tag_138\n      jump\t// in\n    tag_158:\n        /* \"#utility.yul\":6489:6561   */\n      tag_159\n        /* \"#utility.yul\":6557:6559   */\n      0x60\n        /* \"#utility.yul\":6546:6555   */\n      dup4\n        /* \"#utility.yul\":6542:6560   */\n      add\n        /* \"#utility.yul\":6533:6539   */\n      dup5\n        /* \"#utility.yul\":6489:6561   */\n      tag_103\n      jump\t// in\n    tag_159:\n        /* \"#utility.yul\":6126:6568   */\n      swap6\n      swap5\n      pop\n      pop\n      pop\n      pop\n      pop\n      jump\t// out\n        /* \"#utility.yul\":6574:6993   */\n    tag_35:\n      0x00\n        /* \"#utility.yul\":6778:6780   */\n      0x20\n        /* \"#utility.yul\":6767:6776   */\n      dup3\n        /* \"#utility.yul\":6763:6781   */\n      add\n        /* \"#utility.yul\":6755:6781   */\n      swap1\n      pop\n        /* \"#utility.yul\":6827:6836   */\n      dup2\n        /* \"#utility.yul\":6821:6825   */\n      dup2\n        /* \"#utility.yul\":6817:6837   */\n      sub\n        /* \"#utility.yul\":6813:6814   */\n      0x00\n        /* \"#utility.yul\":6802:6811   */\n      dup4\n        /* \"#utility.yul\":6798:6815   */\n      add\n        /* \"#utility.yul\":6791:6838   */\n      mstore\n        /* \"#utility.yul\":6855:6986   */\n      tag_161\n        /* \"#utility.yul\":6981:6985   */\n      dup2\n        /* \"#utility.yul\":6855:6986   */\n      tag_123\n      jump\t// in\n    tag_161:\n        /* \"#utility.yul\":6847:6986   */\n      swap1\n      pop\n        /* \"#utility.yul\":6745:6993   */\n      swap2\n      swap1\n      pop\n      jump\t// out\n        /* \"#utility.yul\":6999:7418   */\n    tag_49:\n      0x00\n        /* \"#utility.yul\":7203:7205   */\n      0x20\n        /* \"#utility.yul\":7192:7201   */\n      dup3\n        /* \"#utility.yul\":7188:7206   */\n      add\n        /* \"#utility.yul\":7180:7206   */\n      swap1\n      pop\n        /* \"#utility.yul\":7252:7261   */\n      dup2\n        /* \"#utility.yul\":7246:7250   */\n      dup2\n        /* \"#utility.yul\":7242:7262   */\n      sub\n        /* \"#utility.yul\":7238:7239   */\n      0x00\n        /* \"#utility.yul\":7227:7236   */\n      dup4\n        /* \"#utility.yul\":7223:7240   */\n      add\n        /* \"#utility.yul\":7216:7263   */\n      mstore\n        /* \"#utility.yul\":7280:7411   */\n      tag_163\n        /* \"#utility.yul\":7406:7410   */\n      dup2\n        /* \"#utility.yul\":7280:7411   */\n      tag_126\n      jump\t// in\n    tag_163:\n        /* \"#utility.yul\":7272:7411   */\n      swap1\n      pop\n        /* \"#utility.yul\":7170:7418   */\n      swap2\n      swap1\n      pop\n      jump\t// out\n        /* \"#utility.yul\":7424:7843   */\n    tag_24:\n      0x00\n        /* \"#utility.yul\":7628:7630   */\n      0x20\n        /* \"#utility.yul\":7617:7626   */\n      dup3\n        /* \"#utility.yul\":7613:7631   */\n      add\n        /* \"#utility.yul\":7605:7631   */\n      swap1\n      pop\n        /* \"#utility.yul\":7677:7686   */\n      dup2\n        /* \"#utility.yul\":7671:7675   */\n      dup2\n        /* \"#utility.yul\":7667:7687   */\n      sub\n        /* \"#utility.yul\":7663:7664   */\n      0x00\n        /* \"#utility.yul\":7652:7661   */\n      dup4\n        /* \"#utility.yul\":7648:7665   */\n      add\n        /* \"#utility.yul\":7641:7688   */\n      mstore\n        /* \"#utility.yul\":7705:7836   */\n      tag_165\n        /* \"#utility.yul\":7831:7835   */\n      dup2\n        /* \"#utility.yul\":7705:7836   */\n      tag_129\n      jump\t// in\n    tag_165:\n        /* \"#utility.yul\":7697:7836   */\n      swap1\n      pop\n        /* \"#utility.yul\":7595:7843   */\n      swap2\n      swap1\n      pop\n      jump\t// out\n        /* \"#utility.yul\":7849:8268   */\n    tag_27:\n      0x00\n        /* \"#utility.yul\":8053:8055   */\n      0x20\n        /* \"#utility.yul\":8042:8051   */\n      dup3\n        /* \"#utility.yul\":8038:8056   */\n      add\n        /* \"#utility.yul\":8030:8056   */\n      swap1\n      pop\n        /* \"#utility.yul\":8102:8111   */\n      dup2\n        /* \"#utility.yul\":8096:8100   */\n      dup2\n        /* \"#utility.yul\":8092:8112   */\n      sub\n        /* \"#utility.yul\":8088:8089   */\n      0x00\n        /* \"#utility.yul\":8077:8086   */\n      dup4\n        /* \"#utility.yul\":8073:8090   */\n      add\n        /* \"#utility.yul\":8066:8113   */\n      mstore\n        /* \"#utility.yul\":8130:8261   */\n      tag_167\n        /* \"#utility.yul\":8256:8260   */\n      dup2\n        /* \"#utility.yul\":8130:8261   */\n      tag_132\n      jump\t// in\n    tag_167:\n        /* \"#utility.yul\":8122:8261   */\n      swap1\n      pop\n        /* \"#utility.yul\":8020:8268   */\n      swap2\n      swap1\n      pop\n      jump\t// out\n        /* \"#utility.yul\":8274:8693   */\n    tag_30:\n      0x00\n        /* \"#utility.yul\":8478:8480   */\n      0x20\n        /* \"#utility.yul\":8467:8476   */\n      dup3\n        /* \"#utility.yul\":8463:8481   */\n      add\n        /* \"#utility.yul\":8455:8481   */\n      swap1\n      pop\n        /* \"#utility.yul\":8527:8536   */\n      dup2\n        /* \"#utility.yul\":8521:8525   */\n      dup2\n        /* \"#utility.yul\":8517:8537   */\n      sub\n        /* \"#utility.yul\":8513:8514   */\n      0x00\n        /* \"#utility.yul\":8502:8511   */\n      dup4\n        /* \"#utility.yul\":8498:8515   */\n      add\n        /* \"#utility.yul\":8491:8538   */\n      mstore\n        /* \"#utility.yul\":8555:8686   */\n      tag_169\n        /* \"#utility.yul\":8681:8685   */\n      dup2\n        /* \"#utility.yul\":8555:8686   */\n      tag_135\n      jump\t// in\n    tag_169:\n        /* \"#utility.yul\":8547:8686   */\n      swap1\n      pop\n        /* \"#utility.yul\":8445:8693   */\n      swap2\n      swap1\n      pop\n      jump\t// out\n        /* \"#utility.yul\":8699:8982   */\n    tag_74:\n      0x00\n        /* \"#utility.yul\":8765:8767   */\n      0x40\n        /* \"#utility.yul\":8759:8768   */\n      mload\n        /* \"#utility.yul\":8749:8768   */\n      swap1\n      pop\n        /* \"#utility.yul\":8807:8811   */\n      dup2\n        /* \"#utility.yul\":8799:8805   */\n      dup2\n        /* \"#utility.yul\":8795:8812   */\n      add\n        /* \"#utility.yul\":8914:8920   */\n      dup2\n        /* \"#utility.yul\":8902:8912   */\n      dup2\n        /* \"#utility.yul\":8899:8921   */\n      lt\n        /* \"#utility.yul\":8878:8896   */\n      0xffffffffffffffff\n        /* \"#utility.yul\":8866:8876   */\n      dup3\n        /* \"#utility.yul\":8863:8897   */\n      gt\n        /* \"#utility.yul\":8860:8922   */\n      or\n        /* \"#utility.yul\":8857:8859   */\n      iszero\n      tag_171\n      jumpi\n        /* \"#utility.yul\":8925:8943   */\n      tag_172\n      tag_173\n      jump\t// in\n    tag_172:\n        /* \"#utility.yul\":8857:8859   */\n    tag_171:\n        /* \"#utility.yul\":8965:8975   */\n      dup1\n        /* \"#utility.yul\":8961:8963   */\n      0x40\n        /* \"#utility.yul\":8954:8976   */\n      mstore\n        /* \"#utility.yul\":8739:8982   */\n      pop\n      swap2\n      swap1\n      pop\n      jump\t// out\n        /* \"#utility.yul\":8988:9320   */\n    tag_73:\n      0x00\n        /* \"#utility.yul\":9140:9158   */\n      0xffffffffffffffff\n        /* \"#utility.yul\":9132:9138   */\n      dup3\n        /* \"#utility.yul\":9129:9159   */\n      gt\n        /* \"#utility.yul\":9126:9128   */\n      iszero\n      tag_175\n      jumpi\n        /* \"#utility.yul\":9162:9180   */\n      tag_176\n      tag_173\n      jump\t// in\n    tag_176:\n        /* \"#utility.yul\":9126:9128   */\n    tag_175:\n        /* \"#utility.yul\":9247:9251   */\n      0x1f\n        /* \"#utility.yul\":9243:9252   */\n      not\n        /* \"#utility.yul\":9236:9240   */\n      0x1f\n        /* \"#utility.yul\":9228:9234   */\n      dup4\n        /* \"#utility.yul\":9224:9241   */\n      add\n        /* \"#utility.yul\":9220:9253   */\n      and\n        /* \"#utility.yul\":9212:9253   */\n      swap1\n      pop\n        /* \"#utility.yul\":9308:9312   */\n      0x20\n        /* \"#utility.yul\":9302:9306   */\n      dup2\n        /* \"#utility.yul\":9298:9313   */\n      add\n        /* \"#utility.yul\":9290:9313   */\n      swap1\n      pop\n        /* \"#utility.yul\":9055:9320   */\n      swap2\n      swap1\n      pop\n      jump\t// out\n        /* \"#utility.yul\":9326:9425   */\n    tag_110:\n      0x00\n        /* \"#utility.yul\":9412:9417   */\n      dup2\n        /* \"#utility.yul\":9406:9418   */\n      mload\n        /* \"#utility.yul\":9396:9418   */\n      swap1\n      pop\n        /* \"#utility.yul\":9385:9425   */\n      swap2\n      swap1\n      pop\n      jump\t// out\n        /* \"#utility.yul\":9431:9600   */\n    tag_112:\n      0x00\n        /* \"#utility.yul\":9549:9555   */\n      dup3\n        /* \"#utility.yul\":9544:9547   */\n      dup3\n        /* \"#utility.yul\":9537:9556   */\n      mstore\n        /* \"#utility.yul\":9589:9593   */\n      0x20\n        /* \"#utility.yul\":9584:9587   */\n      dup3\n        /* \"#utility.yul\":9580:9594   */\n      add\n        /* \"#utility.yul\":9565:9594   */\n      swap1\n      pop\n        /* \"#utility.yul\":9527:9600   */\n      swap3\n      swap2\n      pop\n      pop\n      jump\t// out\n        /* \"#utility.yul\":9606:9754   */\n    tag_121:\n      0x00\n        /* \"#utility.yul\":9745:9748   */\n      dup2\n        /* \"#utility.yul\":9730:9748   */\n      swap1\n      pop\n        /* \"#utility.yul\":9720:9754   */\n      swap3\n      swap2\n      pop\n      pop\n      jump\t// out\n        /* \"#utility.yul\":9760:9850   */\n    tag_102:\n      0x00\n        /* \"#utility.yul\":9837:9842   */\n      dup2\n        /* \"#utility.yul\":9830:9843   */\n      iszero\n        /* \"#utility.yul\":9823:9844   */\n      iszero\n        /* \"#utility.yul\":9812:9844   */\n      swap1\n      pop\n        /* \"#utility.yul\":9802:9850   */\n      swap2\n      swap1\n      pop\n      jump\t// out\n        /* \"#utility.yul\":9856:9933   */\n    tag_106:\n      0x00\n        /* \"#utility.yul\":9922:9927   */\n      dup2\n        /* \"#utility.yul\":9911:9927   */\n      swap1\n      pop\n        /* \"#utility.yul\":9901:9933   */\n      swap2\n      swap1\n      pop\n      jump\t// out\n        /* \"#utility.yul\":9939:10016   */\n    tag_141:\n      0x00\n        /* \"#utility.yul\":10005:10010   */\n      dup2\n        /* \"#utility.yul\":9994:10010   */\n      swap1\n      pop\n        /* \"#utility.yul\":9984:10016   */\n      swap2\n      swap1\n      pop\n      jump\t// out\n        /* \"#utility.yul\":10022:10176   */\n    tag_77:\n        /* \"#utility.yul\":10106:10112   */\n      dup3\n        /* \"#utility.yul\":10101:10104   */\n      dup2\n        /* \"#utility.yul\":10096:10099   */\n      dup4\n        /* \"#utility.yul\":10083:10113   */\n      calldatacopy\n        /* \"#utility.yul\":10168:10169   */\n      0x00\n        /* \"#utility.yul\":10159:10165   */\n      dup4\n        /* \"#utility.yul\":10154:10157   */\n      dup4\n        /* \"#utility.yul\":10150:10166   */\n      add\n        /* \"#utility.yul\":10143:10170   */\n      mstore\n        /* \"#utility.yul\":10073:10176   */\n      pop\n      pop\n      pop\n      jump\t// out\n        /* \"#utility.yul\":10182:10489   */\n    tag_114:\n        /* \"#utility.yul\":10250:10251   */\n      0x00\n        /* \"#utility.yul\":10260:10373   */\n    tag_185:\n        /* \"#utility.yul\":10274:10280   */\n      dup4\n        /* \"#utility.yul\":10271:10272   */\n      dup2\n        /* \"#utility.yul\":10268:10281   */\n      lt\n        /* \"#utility.yul\":10260:10373   */\n      iszero\n      tag_187\n      jumpi\n        /* \"#utility.yul\":10359:10360   */\n      dup1\n        /* \"#utility.yul\":10354:10357   */\n      dup3\n        /* \"#utility.yul\":10350:10361   */\n      add\n        /* \"#utility.yul\":10344:10362   */\n      mload\n        /* \"#utility.yul\":10340:10341   */\n      dup2\n        /* \"#utility.yul\":10335:10338   */\n      dup5\n        /* \"#utility.yul\":10331:10342   */\n      add\n        /* \"#utility.yul\":10324:10363   */\n      mstore\n        /* \"#utility.yul\":10296:10298   */\n      0x20\n        /* \"#utility.yul\":10293:10294   */\n      dup2\n        /* \"#utility.yul\":10289:10299   */\n      add\n        /* \"#utility.yul\":10284:10299   */\n      swap1\n      pop\n        /* \"#utility.yul\":10260:10373   */\n      jump(tag_185)\n    tag_187:\n        /* \"#utility.yul\":10391:10397   */\n      dup4\n        /* \"#utility.yul\":10388:10389   */\n      dup2\n        /* \"#utility.yul\":10385:10398   */\n      gt\n        /* \"#utility.yul\":10382:10384   */\n      iszero\n      tag_188\n      jumpi\n        /* \"#utility.yul\":10471:10472   */\n      0x00\n        /* \"#utility.yul\":10462:10468   */\n      dup5\n        /* \"#utility.yul\":10457:10460   */\n      dup5\n        /* \"#utility.yul\":10453:10469   */\n      add\n        /* \"#utility.yul\":10446:10473   */\n      mstore\n        /* \"#utility.yul\":10382:10384   */\n    tag_188:\n        /* \"#utility.yul\":10231:10489   */\n      pop\n      pop\n      pop\n      pop\n      jump\t// out\n        /* \"#utility.yul\":10495:10815   */\n    tag_53:\n      0x00\n        /* \"#utility.yul\":10576:10577   */\n      0x02\n        /* \"#utility.yul\":10570:10574   */\n      dup3\n        /* \"#utility.yul\":10566:10578   */\n      div\n        /* \"#utility.yul\":10556:10578   */\n      swap1\n      pop\n        /* \"#utility.yul\":10623:10624   */\n      0x01\n        /* \"#utility.yul\":10617:10621   */\n      dup3\n        /* \"#utility.yul\":10613:10625   */\n      and\n        /* \"#utility.yul\":10644:10662   */\n      dup1\n        /* \"#utility.yul\":10634:10636   */\n      tag_190\n      jumpi\n        /* \"#utility.yul\":10700:10704   */\n      0x7f\n        /* \"#utility.yul\":10692:10698   */\n      dup3\n        /* \"#utility.yul\":10688:10705   */\n      and\n        /* \"#utility.yul\":10678:10705   */\n      swap2\n      pop\n        /* \"#utility.yul\":10634:10636   */\n    tag_190:\n        /* \"#utility.yul\":10762:10764   */\n      0x20\n        /* \"#utility.yul\":10754:10760   */\n      dup3\n        /* \"#utility.yul\":10751:10765   */\n      lt\n        /* \"#utility.yul\":10731:10749   */\n      dup2\n        /* \"#utility.yul\":10728:10766   */\n      eq\n        /* \"#utility.yul\":10725:10727   */\n      iszero\n      tag_191\n      jumpi\n        /* \"#utility.yul\":10781:10799   */\n      tag_192\n      tag_193\n      jump\t// in\n    tag_192:\n        /* \"#utility.yul\":10725:10727   */\n    tag_191:\n        /* \"#utility.yul\":10546:10815   */\n      pop\n      swap2\n      swap1\n      pop\n      jump\t// out\n        /* \"#utility.yul\":10821:10900   */\n    tag_146:\n      0x00\n        /* \"#utility.yul\":10889:10894   */\n      dup2\n        /* \"#utility.yul\":10878:10894   */\n      swap1\n      pop\n        /* \"#utility.yul\":10868:10900   */\n      swap2\n      swap1\n      pop\n      jump\t// out\n        /* \"#utility.yul\":10906:11086   */\n    tag_193:\n        /* \"#utility.yul\":10954:11031   */\n      0x4e487b7100000000000000000000000000000000000000000000000000000000\n        /* \"#utility.yul\":10951:10952   */\n      0x00\n        /* \"#utility.yul\":10944:11032   */\n      mstore\n        /* \"#utility.yul\":11051:11055   */\n      0x22\n        /* \"#utility.yul\":11048:11049   */\n      0x04\n        /* \"#utility.yul\":11041:11056   */\n      mstore\n        /* \"#utility.yul\":11075:11079   */\n      0x24\n        /* \"#utility.yul\":11072:11073   */\n      0x00\n        /* \"#utility.yul\":11065:11080   */\n      revert\n        /* \"#utility.yul\":11092:11272   */\n    tag_173:\n        /* \"#utility.yul\":11140:11217   */\n      0x4e487b7100000000000000000000000000000000000000000000000000000000\n        /* \"#utility.yul\":11137:11138   */\n      0x00\n        /* \"#utility.yul\":11130:11218   */\n      mstore\n        /* \"#utility.yul\":11237:11241   */\n      0x41\n        /* \"#utility.yul\":11234:11235   */\n      0x04\n        /* \"#utility.yul\":11227:11242   */\n      mstore\n        /* \"#utility.yul\":11261:11265   */\n      0x24\n        /* \"#utility.yul\":11258:11259   */\n      0x00\n        /* \"#utility.yul\":11251:11266   */\n      revert\n        /* \"#utility.yul\":11278:11380   */\n    tag_116:\n      0x00\n        /* \"#utility.yul\":11370:11372   */\n      0x1f\n        /* \"#utility.yul\":11366:11373   */\n      not\n        /* \"#utility.yul\":11361:11363   */\n      0x1f\n        /* \"#utility.yul\":11354:11359   */\n      dup4\n        /* \"#utility.yul\":11350:11364   */\n      add\n        /* \"#utility.yul\":11346:11374   */\n      and\n        /* \"#utility.yul\":11336:11374   */\n      swap1\n      pop\n        /* \"#utility.yul\":11326:11380   */\n      swap2\n      swap1\n      pop\n      jump\t// out\n        /* \"#utility.yul\":11386:11508   */\n    tag_81:\n        /* \"#utility.yul\":11459:11483   */\n      tag_199\n        /* \"#utility.yul\":11477:11482   */\n      dup2\n        /* \"#utility.yul\":11459:11483   */\n      tag_106\n      jump\t// in\n    tag_199:\n        /* \"#utility.yul\":11452:11457   */\n      dup2\n        /* \"#utility.yul\":11449:11484   */\n      eq\n        /* \"#utility.yul\":11439:11441   */\n      tag_200\n      jumpi\n        /* \"#utility.yul\":11498:11499   */\n      0x00\n        /* \"#utility.yul\":11495:11496   */\n      dup1\n        /* \"#utility.yul\":11488:11500   */\n      revert\n        /* \"#utility.yul\":11439:11441   */\n    tag_200:\n        /* \"#utility.yul\":11429:11508   */\n      pop\n      jump\t// out\n        /* \"#utility.yul\":11514:11636   */\n    tag_89:\n        /* \"#utility.yul\":11587:11611   */\n      tag_202\n        /* \"#utility.yul\":11605:11610   */\n      dup2\n        /* \"#utility.yul\":11587:11611   */\n      tag_141\n      jump\t// in\n    tag_202:\n        /* \"#utility.yul\":11580:11585   */\n      dup2\n        /* \"#utility.yul\":11577:11612   */\n      eq\n        /* \"#utility.yul\":11567:11569   */\n      tag_203\n      jumpi\n        /* \"#utility.yul\":11626:11627   */\n      0x00\n        /* \"#utility.yul\":11623:11624   */\n      dup1\n        /* \"#utility.yul\":11616:11628   */\n      revert\n        /* \"#utility.yul\":11567:11569   */\n    tag_203:\n        /* \"#utility.yul\":11557:11636   */\n      pop\n      jump\t// out\n\n    auxdata: 0xa26469706673582212200e141c602e241ac443f8de101faf00d9befe9acf3ffbe9b3dce93564deeb4f9264736f6c63430008000033\n}\n",
				"bytecode": {
					"linkReferences": {},
					"object": "608060405234801561001057600080fd5b50610c54806100206000396000f3fe608060405234801561001057600080fd5b50600436106100415760003560e01c8063289ac3ec1461004657806353e1841e14610062578063df6e104d14610092575b600080fd5b610060600480360381019061005b919061067e565b6100c5565b005b61007c6004803603810190610077919061067e565b6102c7565b6040516100899190610932565b60405180910390f35b6100ac60048036038101906100a79190610655565b610468565b6040516100bc949392919061096f565b60405180910390f35b6000835111610109576040517f08c379a0000000000000000000000000000000000000000000000000000000008152600401610100906109fb565b60405180910390fd5b6000821161014c576040517f08c379a000000000000000000000000000000000000000000000000000000000815260040161014390610a1b565b60405180910390fd5b6000811161018f576040517f08c379a000000000000000000000000000000000000000000000000000000000815260040161018690610a3b565b60405180910390fd5b60008383836040516020016101a6939291906108f9565b6040516020818303038152906040528051906020012090506000801b6000808381526020019081526020016000206003015414610218576040517f08c379a000000000000000000000000000000000000000000000000000000000815260040161020f906109bb565b60405180910390fd5b6040518060800160405280858152602001848152602001838152602001828152506000808381526020019081526020016000206000820151816000019080519060200190610267929190610520565b50602082015181600101556040820151816002015560608201518160030155905050807fa4ada3b82f1b3a8134556f3b7ead0975a2e4814f94ea2fb8c50f04848f8e5553856040516102b9919061094d565b60405180910390a250505050565b60008084511161030c576040517f08c379a0000000000000000000000000000000000000000000000000000000008152600401610303906109fb565b60405180910390fd5b6000831161034f576040517f08c379a000000000000000000000000000000000000000000000000000000000815260040161034690610a1b565b60405180910390fd5b60008211610392576040517f08c379a000000000000000000000000000000000000000000000000000000000815260040161038990610a3b565b60405180910390fd5b428211156103d5576040517f08c379a00000000000000000000000000000000000000000000000000000000081526004016103cc906109db565b60405180910390fd5b60008484846040516020016103ec939291906108f9565b60405160208183030381529060405280519060200120905060008060001b6000808481526020019081526020016000206003015414159050817f60c74738e7245c18eb22f19c5721213f5a434f429689bba57898e5860189e92d826040516104549190610932565b60405180910390a280925050509392505050565b600060205280600052604060002060009150905080600001805461048b90610b45565b80601f01602080910402602001604051908101604052809291908181526020018280546104b790610b45565b80156105045780601f106104d957610100808354040283529160200191610504565b820191906000526020600020905b8154815290600101906020018083116104e757829003601f168201915b5050505050908060010154908060020154908060030154905084565b82805461052c90610b45565b90600052602060002090601f01602090048101928261054e5760008555610595565b82601f1061056757805160ff1916838001178555610595565b82800160010185558215610595579182015b82811115610594578251825591602001919060010190610579565b5b5090506105a291906105a6565b5090565b5b808211156105bf5760008160009055506001016105a7565b5090565b60006105d66105d184610a8c565b610a5b565b9050828152602081018484840111156105ee57600080fd5b6105f9848285610b03565b509392505050565b60008135905061061081610bf0565b92915050565b600082601f83011261062757600080fd5b81356106378482602086016105c3565b91505092915050565b60008135905061064f81610c07565b92915050565b60006020828403121561066757600080fd5b600061067584828501610601565b91505092915050565b60008060006060848603121561069357600080fd5b600084013567ffffffffffffffff8111156106ad57600080fd5b6106b986828701610616565b93505060206106ca86828701610640565b92505060406106db86828701610640565b9150509250925092565b6106ee81610ae3565b82525050565b6106fd81610aef565b82525050565b600061070e82610abc565b6107188185610ac7565b9350610728818560208601610b12565b61073181610bdf565b840191505092915050565b600061074782610abc565b6107518185610ad8565b9350610761818560208601610b12565b80840191505092915050565b600061077a601b83610ac7565b91507f446f63756d656e7420616c7265616479207265676973746572656400000000006000830152602082019050919050565b60006107ba602883610ac7565b91507f5075626c69636174696f6e20646174652063616e6e6f7420626520696e20746860008301527f65206675747572650000000000000000000000000000000000000000000000006020830152604082019050919050565b6000610820600e83610ac7565b91507f5469746c652072657175697265640000000000000000000000000000000000006000830152602082019050919050565b6000610860601583610ac7565b91507f53697a65206d75737420626520706f73697469766500000000000000000000006000830152602082019050919050565b60006108a0600c83610ac7565b91507f496e76616c6964206461746500000000000000000000000000000000000000006000830152602082019050919050565b6108dc81610af9565b82525050565b6108f36108ee82610af9565b610b77565b82525050565b6000610905828661073c565b915061091182856108e2565b60208201915061092182846108e2565b602082019150819050949350505050565b600060208201905061094760008301846106e5565b92915050565b600060208201905081810360008301526109678184610703565b905092915050565b600060808201905081810360008301526109898187610703565b905061099860208301866108d3565b6109a560408301856108d3565b6109b260608301846106f4565b95945050505050565b600060208201905081810360008301526109d48161076d565b9050919050565b600060208201905081810360008301526109f4816107ad565b9050919050565b60006020820190508181036000830152610a1481610813565b9050919050565b60006020820190508181036000830152610a3481610853565b9050919050565b60006020820190508181036000830152610a5481610893565b9050919050565b6000604051905081810181811067ffffffffffffffff82111715610a8257610a81610bb0565b5b8060405250919050565b600067ffffffffffffffff821115610aa757610aa6610bb0565b5b601f19601f8301169050602081019050919050565b600081519050919050565b600082825260208201905092915050565b600081905092915050565b60008115159050919050565b6000819050919050565b6000819050919050565b82818337600083830152505050565b60005b83811015610b30578082015181840152602081019050610b15565b83811115610b3f576000848401525b50505050565b60006002820490506001821680610b5d57607f821691505b60208210811415610b7157610b70610b81565b5b50919050565b6000819050919050565b7f4e487b7100000000000000000000000000000000000000000000000000000000600052602260045260246000fd5b7f4e487b7100000000000000000000000000000000000000000000000000000000600052604160045260246000fd5b6000601f19601f8301169050919050565b610bf981610aef565b8114610c0457600080fd5b50565b610c1081610af9565b8114610c1b57600080fd5b5056fea26469706673582212200e141c602e241ac443f8de101faf00d9befe9acf3ffbe9b3dce93564deeb4f9264736f6c63430008000033",
					"opcodes": "PUSH1 0x80 PUSH1 0x40 MSTORE CALLVALUE DUP1 ISZERO PUSH2 0x10 JUMPI PUSH1 0x0 DUP1 REVERT JUMPDEST POP PUSH2 0xC54 DUP1 PUSH2 0x20 PUSH1 0x0 CODECOPY PUSH1 0x0 RETURN INVALID PUSH1 0x80 PUSH1 0x40 MSTORE CALLVALUE DUP1 ISZERO PUSH2 0x10 JUMPI PUSH1 0x0 DUP1 REVERT JUMPDEST POP PUSH1 0x4 CALLDATASIZE LT PUSH2 0x41 JUMPI PUSH1 0x0 CALLDATALOAD PUSH1 0xE0 SHR DUP1 PUSH4 0x289AC3EC EQ PUSH2 0x46 JUMPI DUP1 PUSH4 0x53E1841E EQ PUSH2 0x62 JUMPI DUP1 PUSH4 0xDF6E104D EQ PUSH2 0x92 JUMPI JUMPDEST PUSH1 0x0 DUP1 REVERT JUMPDEST PUSH2 0x60 PUSH1 0x4 DUP1 CALLDATASIZE SUB DUP2 ADD SWAP1 PUSH2 0x5B SWAP2 SWAP1 PUSH2 0x67E JUMP JUMPDEST PUSH2 0xC5 JUMP JUMPDEST STOP JUMPDEST PUSH2 0x7C PUSH1 0x4 DUP1 CALLDATASIZE SUB DUP2 ADD SWAP1 PUSH2 0x77 SWAP2 SWAP1 PUSH2 0x67E JUMP JUMPDEST PUSH2 0x2C7 JUMP JUMPDEST PUSH1 0x40 MLOAD PUSH2 0x89 SWAP2 SWAP1 PUSH2 0x932 JUMP JUMPDEST PUSH1 0x40 MLOAD DUP1 SWAP2 SUB SWAP1 RETURN JUMPDEST PUSH2 0xAC PUSH1 0x4 DUP1 CALLDATASIZE SUB DUP2 ADD SWAP1 PUSH2 0xA7 SWAP2 SWAP1 PUSH2 0x655 JUMP JUMPDEST PUSH2 0x468 JUMP JUMPDEST PUSH1 0x40 MLOAD PUSH2 0xBC SWAP5 SWAP4 SWAP3 SWAP2 SWAP1 PUSH2 0x96F JUMP JUMPDEST PUSH1 0x40 MLOAD DUP1 SWAP2 SUB SWAP1 RETURN JUMPDEST PUSH1 0x0 DUP4 MLOAD GT PUSH2 0x109 JUMPI PUSH1 0x40 MLOAD PUSH32 0x8C379A000000000000000000000000000000000000000000000000000000000 DUP2 MSTORE PUSH1 0x4 ADD PUSH2 0x100 SWAP1 PUSH2 0x9FB JUMP JUMPDEST PUSH1 0x40 MLOAD DUP1 SWAP2 SUB SWAP1 REVERT JUMPDEST PUSH1 0x0 DUP3 GT PUSH2 0x14C JUMPI PUSH1 0x40 MLOAD PUSH32 0x8C379A000000000000000000000000000000000000000000000000000000000 DUP2 MSTORE PUSH1 0x4 ADD PUSH2 0x143 SWAP1 PUSH2 0xA1B JUMP JUMPDEST PUSH1 0x40 MLOAD DUP1 SWAP2 SUB SWAP1 REVERT JUMPDEST PUSH1 0x0 DUP2 GT PUSH2 0x18F JUMPI PUSH1 0x40 MLOAD PUSH32 0x8C379A000000000000000000000000000000000000000000000000000000000 DUP2 MSTORE PUSH1 0x4 ADD PUSH2 0x186 SWAP1 PUSH2 0xA3B JUMP JUMPDEST PUSH1 0x40 MLOAD DUP1 SWAP2 SUB SWAP1 REVERT JUMPDEST PUSH1 0x0 DUP4 DUP4 DUP4 PUSH1 0x40 MLOAD PUSH1 0x20 ADD PUSH2 0x1A6 SWAP4 SWAP3 SWAP2 SWAP1 PUSH2 0x8F9 JUMP JUMPDEST PUSH1 0x40 MLOAD PUSH1 0x20 DUP2 DUP4 SUB SUB DUP2 MSTORE SWAP1 PUSH1 0x40 MSTORE DUP1 MLOAD SWAP1 PUSH1 0x20 ADD KECCAK256 SWAP1 POP PUSH1 0x0 DUP1 SHL PUSH1 0x0 DUP1 DUP4 DUP2 MSTORE PUSH1 0x20 ADD SWAP1 DUP2 MSTORE PUSH1 0x20 ADD PUSH1 0x0 KECCAK256 PUSH1 0x3 ADD SLOAD EQ PUSH2 0x218 JUMPI PUSH1 0x40 MLOAD PUSH32 0x8C379A000000000000000000000000000000000000000000000000000000000 DUP2 MSTORE PUSH1 0x4 ADD PUSH2 0x20F SWAP1 PUSH2 0x9BB JUMP JUMPDEST PUSH1 0x40 MLOAD DUP1 SWAP2 SUB SWAP1 REVERT JUMPDEST PUSH1 0x40 MLOAD DUP1 PUSH1 0x80 ADD PUSH1 0x40 MSTORE DUP1 DUP6 DUP2 MSTORE PUSH1 0x20 ADD DUP5 DUP2 MSTORE PUSH1 0x20 ADD DUP4 DUP2 MSTORE PUSH1 0x20 ADD DUP3 DUP2 MSTORE POP PUSH1 0x0 DUP1 DUP4 DUP2 MSTORE PUSH1 0x20 ADD SWAP1 DUP2 MSTORE PUSH1 0x20 ADD PUSH1 0x0 KECCAK256 PUSH1 0x0 DUP3 ADD MLOAD DUP2 PUSH1 0x0 ADD SWAP1 DUP1 MLOAD SWAP1 PUSH1 0x20 ADD SWAP1 PUSH2 0x267 SWAP3 SWAP2 SWAP1 PUSH2 0x520 JUMP JUMPDEST POP PUSH1 0x20 DUP3 ADD MLOAD DUP2 PUSH1 0x1 ADD SSTORE PUSH1 0x40 DUP3 ADD MLOAD DUP2 PUSH1 0x2 ADD SSTORE PUSH1 0x60 DUP3 ADD MLOAD DUP2 PUSH1 0x3 ADD SSTORE SWAP1 POP POP DUP1 PUSH32 0xA4ADA3B82F1B3A8134556F3B7EAD0975A2E4814F94EA2FB8C50F04848F8E5553 DUP6 PUSH1 0x40 MLOAD PUSH2 0x2B9 SWAP2 SWAP1 PUSH2 0x94D JUMP JUMPDEST PUSH1 0x40 MLOAD DUP1 SWAP2 SUB SWAP1 LOG2 POP POP POP POP JUMP JUMPDEST PUSH1 0x0 DUP1 DUP5 MLOAD GT PUSH2 0x30C JUMPI PUSH1 0x40 MLOAD PUSH32 0x8C379A000000000000000000000000000000000000000000000000000000000 DUP2 MSTORE PUSH1 0x4 ADD PUSH2 0x303 SWAP1 PUSH2 0x9FB JUMP JUMPDEST PUSH1 0x40 MLOAD DUP1 SWAP2 SUB SWAP1 REVERT JUMPDEST PUSH1 0x0 DUP4 GT PUSH2 0x34F JUMPI PUSH1 0x40 MLOAD PUSH32 0x8C379A000000000000000000000000000000000000000000000000000000000 DUP2 MSTORE PUSH1 0x4 ADD PUSH2 0x346 SWAP1 PUSH2 0xA1B JUMP JUMPDEST PUSH1 0x40 MLOAD DUP1 SWAP2 SUB SWAP1 REVERT JUMPDEST PUSH1 0x0 DUP3 GT PUSH2 0x392 JUMPI PUSH1 0x40 MLOAD PUSH32 0x8C379A000000000000000000000000000000000000000000000000000000000 DUP2 MSTORE PUSH1 0x4 ADD PUSH2 0x389 SWAP1 PUSH2 0xA3B JUMP JUMPDEST PUSH1 0x40 MLOAD DUP1 SWAP2 SUB SWAP1 REVERT JUMPDEST TIMESTAMP DUP3 GT ISZERO PUSH2 0x3D5 JUMPI PUSH1 0x40 MLOAD PUSH32 0x8C379A000000000000000000000000000000000000000000000000000000000 DUP2 MSTORE PUSH1 0x4 ADD PUSH2 0x3CC SWAP1 PUSH2 0x9DB JUMP JUMPDEST PUSH1 0x40 MLOAD DUP1 SWAP2 SUB SWAP1 REVERT JUMPDEST PUSH1 0x0 DUP5 DUP5 DUP5 PUSH1 0x40 MLOAD PUSH1 0x20 ADD PUSH2 0x3EC SWAP4 SWAP3 SWAP2 SWAP1 PUSH2 0x8F9 JUMP JUMPDEST PUSH1 0x40 MLOAD PUSH1 0x20 DUP2 DUP4 SUB SUB DUP2 MSTORE SWAP1 PUSH1 0x40 MSTORE DUP1 MLOAD SWAP1 PUSH1 0x20 ADD KECCAK256 SWAP1 POP PUSH1 0x0 DUP1 PUSH1 0x0 SHL PUSH1 0x0 DUP1 DUP5 DUP2 MSTORE PUSH1 0x20 ADD SWAP1 DUP2 MSTORE PUSH1 0x20 ADD PUSH1 0x0 KECCAK256 PUSH1 0x3 ADD SLOAD EQ ISZERO SWAP1 POP DUP2 PUSH32 0x60C74738E7245C18EB22F19C5721213F5A434F429689BBA57898E5860189E92D DUP3 PUSH1 0x40 MLOAD PUSH2 0x454 SWAP2 SWAP1 PUSH2 0x932 JUMP JUMPDEST PUSH1 0x40 MLOAD DUP1 SWAP2 SUB SWAP1 LOG2 DUP1 SWAP3 POP POP POP SWAP4 SWAP3 POP POP POP JUMP JUMPDEST PUSH1 0x0 PUSH1 0x20 MSTORE DUP1 PUSH1 0x0 MSTORE PUSH1 0x40 PUSH1 0x0 KECCAK256 PUSH1 0x0 SWAP2 POP SWAP1 POP DUP1 PUSH1 0x0 ADD DUP1 SLOAD PUSH2 0x48B SWAP1 PUSH2 0xB45 JUMP JUMPDEST DUP1 PUSH1 0x1F ADD PUSH1 0x20 DUP1 SWAP2 DIV MUL PUSH1 0x20 ADD PUSH1 0x40 MLOAD SWAP1 DUP2 ADD PUSH1 0x40 MSTORE DUP1 SWAP3 SWAP2 SWAP1 DUP2 DUP2 MSTORE PUSH1 0x20 ADD DUP3 DUP1 SLOAD PUSH2 0x4B7 SWAP1 PUSH2 0xB45 JUMP JUMPDEST DUP1 ISZERO PUSH2 0x504 JUMPI DUP1 PUSH1 0x1F LT PUSH2 0x4D9 JUMPI PUSH2 0x100 DUP1 DUP4 SLOAD DIV MUL DUP4 MSTORE SWAP2 PUSH1 0x20 ADD SWAP2 PUSH2 0x504 JUMP JUMPDEST DUP3 ADD SWAP2 SWAP1 PUSH1 0x0 MSTORE PUSH1 0x20 PUSH1 0x0 KECCAK256 SWAP1 JUMPDEST DUP2 SLOAD DUP2 MSTORE SWAP1 PUSH1 0x1 ADD SWAP1 PUSH1 0x20 ADD DUP1 DUP4 GT PUSH2 0x4E7 JUMPI DUP3 SWAP1 SUB PUSH1 0x1F AND DUP3 ADD SWAP2 JUMPDEST POP POP POP POP POP SWAP1 DUP1 PUSH1 0x1 ADD SLOAD SWAP1 DUP1 PUSH1 0x2 ADD SLOAD SWAP1 DUP1 PUSH1 0x3 ADD SLOAD SWAP1 POP DUP5 JUMP JUMPDEST DUP3 DUP1 SLOAD PUSH2 0x52C SWAP1 PUSH2 0xB45 JUMP JUMPDEST SWAP1 PUSH1 0x0 MSTORE PUSH1 0x20 PUSH1 0x0 KECCAK256 SWAP1 PUSH1 0x1F ADD PUSH1 0x20 SWAP1 DIV DUP2 ADD SWAP3 DUP3 PUSH2 0x54E JUMPI PUSH1 0x0 DUP6 SSTORE PUSH2 0x595 JUMP JUMPDEST DUP3 PUSH1 0x1F LT PUSH2 0x567 JUMPI DUP1 MLOAD PUSH1 0xFF NOT AND DUP4 DUP1 ADD OR DUP6 SSTORE PUSH2 0x595 JUMP JUMPDEST DUP3 DUP1 ADD PUSH1 0x1 ADD DUP6 SSTORE DUP3 ISZERO PUSH2 0x595 JUMPI SWAP2 DUP3 ADD JUMPDEST DUP3 DUP2 GT ISZERO PUSH2 0x594 JUMPI DUP3 MLOAD DUP3 SSTORE SWAP2 PUSH1 0x20 ADD SWAP2 SWAP1 PUSH1 0x1 ADD SWAP1 PUSH2 0x579 JUMP JUMPDEST JUMPDEST POP SWAP1 POP PUSH2 0x5A2 SWAP2 SWAP1 PUSH2 0x5A6 JUMP JUMPDEST POP SWAP1 JUMP JUMPDEST JUMPDEST DUP1 DUP3 GT ISZERO PUSH2 0x5BF JUMPI PUSH1 0x0 DUP2 PUSH1 0x0 SWAP1 SSTORE POP PUSH1 0x1 ADD PUSH2 0x5A7 JUMP JUMPDEST POP SWAP1 JUMP JUMPDEST PUSH1 0x0 PUSH2 0x5D6 PUSH2 0x5D1 DUP5 PUSH2 0xA8C JUMP JUMPDEST PUSH2 0xA5B JUMP JUMPDEST SWAP1 POP DUP3 DUP2 MSTORE PUSH1 0x20 DUP2 ADD DUP5 DUP5 DUP5 ADD GT ISZERO PUSH2 0x5EE JUMPI PUSH1 0x0 DUP1 REVERT JUMPDEST PUSH2 0x5F9 DUP5 DUP3 DUP6 PUSH2 0xB03 JUMP JUMPDEST POP SWAP4 SWAP3 POP POP POP JUMP JUMPDEST PUSH1 0x0 DUP2 CALLDATALOAD SWAP1 POP PUSH2 0x610 DUP2 PUSH2 0xBF0 JUMP JUMPDEST SWAP3 SWAP2 POP POP JUMP JUMPDEST PUSH1 0x0 DUP3 PUSH1 0x1F DUP4 ADD SLT PUSH2 0x627 JUMPI PUSH1 0x0 DUP1 REVERT JUMPDEST DUP2 CALLDATALOAD PUSH2 0x637 DUP5 DUP3 PUSH1 0x20 DUP7 ADD PUSH2 0x5C3 JUMP JUMPDEST SWAP2 POP POP SWAP3 SWAP2 POP POP JUMP JUMPDEST PUSH1 0x0 DUP2 CALLDATALOAD SWAP1 POP PUSH2 0x64F DUP2 PUSH2 0xC07 JUMP JUMPDEST SWAP3 SWAP2 POP POP JUMP JUMPDEST PUSH1 0x0 PUSH1 0x20 DUP3 DUP5 SUB SLT ISZERO PUSH2 0x667 JUMPI PUSH1 0x0 DUP1 REVERT JUMPDEST PUSH1 0x0 PUSH2 0x675 DUP5 DUP3 DUP6 ADD PUSH2 0x601 JUMP JUMPDEST SWAP2 POP POP SWAP3 SWAP2 POP POP JUMP JUMPDEST PUSH1 0x0 DUP1 PUSH1 0x0 PUSH1 0x60 DUP5 DUP7 SUB SLT ISZERO PUSH2 0x693 JUMPI PUSH1 0x0 DUP1 REVERT JUMPDEST PUSH1 0x0 DUP5 ADD CALLDATALOAD PUSH8 0xFFFFFFFFFFFFFFFF DUP2 GT ISZERO PUSH2 0x6AD JUMPI PUSH1 0x0 DUP1 REVERT JUMPDEST PUSH2 0x6B9 DUP7 DUP3 DUP8 ADD PUSH2 0x616 JUMP JUMPDEST SWAP4 POP POP PUSH1 0x20 PUSH2 0x6CA DUP7 DUP3 DUP8 ADD PUSH2 0x640 JUMP JUMPDEST SWAP3 POP POP PUSH1 0x40 PUSH2 0x6DB DUP7 DUP3 DUP8 ADD PUSH2 0x640 JUMP JUMPDEST SWAP2 POP POP SWAP3 POP SWAP3 POP SWAP3 JUMP JUMPDEST PUSH2 0x6EE DUP2 PUSH2 0xAE3 JUMP JUMPDEST DUP3 MSTORE POP POP JUMP JUMPDEST PUSH2 0x6FD DUP2 PUSH2 0xAEF JUMP JUMPDEST DUP3 MSTORE POP POP JUMP JUMPDEST PUSH1 0x0 PUSH2 0x70E DUP3 PUSH2 0xABC JUMP JUMPDEST PUSH2 0x718 DUP2 DUP6 PUSH2 0xAC7 JUMP JUMPDEST SWAP4 POP PUSH2 0x728 DUP2 DUP6 PUSH1 0x20 DUP7 ADD PUSH2 0xB12 JUMP JUMPDEST PUSH2 0x731 DUP2 PUSH2 0xBDF JUMP JUMPDEST DUP5 ADD SWAP2 POP POP SWAP3 SWAP2 POP POP JUMP JUMPDEST PUSH1 0x0 PUSH2 0x747 DUP3 PUSH2 0xABC JUMP JUMPDEST PUSH2 0x751 DUP2 DUP6 PUSH2 0xAD8 JUMP JUMPDEST SWAP4 POP PUSH2 0x761 DUP2 DUP6 PUSH1 0x20 DUP7 ADD PUSH2 0xB12 JUMP JUMPDEST DUP1 DUP5 ADD SWAP2 POP POP SWAP3 SWAP2 POP POP JUMP JUMPDEST PUSH1 0x0 PUSH2 0x77A PUSH1 0x1B DUP4 PUSH2 0xAC7 JUMP JUMPDEST SWAP2 POP PUSH32 0x446F63756D656E7420616C726561647920726567697374657265640000000000 PUSH1 0x0 DUP4 ADD MSTORE PUSH1 0x20 DUP3 ADD SWAP1 POP SWAP2 SWAP1 POP JUMP JUMPDEST PUSH1 0x0 PUSH2 0x7BA PUSH1 0x28 DUP4 PUSH2 0xAC7 JUMP JUMPDEST SWAP2 POP PUSH32 0x5075626C69636174696F6E20646174652063616E6E6F7420626520696E207468 PUSH1 0x0 DUP4 ADD MSTORE PUSH32 0x6520667574757265000000000000000000000000000000000000000000000000 PUSH1 0x20 DUP4 ADD MSTORE PUSH1 0x40 DUP3 ADD SWAP1 POP SWAP2 SWAP1 POP JUMP JUMPDEST PUSH1 0x0 PUSH2 0x820 PUSH1 0xE DUP4 PUSH2 0xAC7 JUMP JUMPDEST SWAP2 POP PUSH32 0x5469746C65207265717569726564000000000000000000000000000000000000 PUSH1 0x0 DUP4 ADD MSTORE PUSH1 0x20 DUP3 ADD SWAP1 POP SWAP2 SWAP1 POP JUMP JUMPDEST PUSH1 0x0 PUSH2 0x860 PUSH1 0x15 DUP4 PUSH2 0xAC7 JUMP JUMPDEST SWAP2 POP PUSH32 0x53697A65206D75737420626520706F7369746976650000000000000000000000 PUSH1 0x0 DUP4 ADD MSTORE PUSH1 0x20 DUP3 ADD SWAP1 POP SWAP2 SWAP1 POP JUMP JUMPDEST PUSH1 0x0 PUSH2 0x8A0 PUSH1 0xC DUP4 PUSH2 0xAC7 JUMP JUMPDEST SWAP2 POP PUSH32 0x496E76616C696420646174650000000000000000000000000000000000000000 PUSH1 0x0 DUP4 ADD MSTORE PUSH1 0x20 DUP3 ADD SWAP1 POP SWAP2 SWAP1 POP JUMP JUMPDEST PUSH2 0x8DC DUP2 PUSH2 0xAF9 JUMP JUMPDEST DUP3 MSTORE POP POP JUMP JUMPDEST PUSH2 0x8F3 PUSH2 0x8EE DUP3 PUSH2 0xAF9 JUMP JUMPDEST PUSH2 0xB77 JUMP JUMPDEST DUP3 MSTORE POP POP JUMP JUMPDEST PUSH1 0x0 PUSH2 0x905 DUP3 DUP7 PUSH2 0x73C JUMP JUMPDEST SWAP2 POP PUSH2 0x911 DUP3 DUP6 PUSH2 0x8E2 JUMP JUMPDEST PUSH1 0x20 DUP3 ADD SWAP2 POP PUSH2 0x921 DUP3 DUP5 PUSH2 0x8E2 JUMP JUMPDEST PUSH1 0x20 DUP3 ADD SWAP2 POP DUP2 SWAP1 POP SWAP5 SWAP4 POP POP POP POP JUMP JUMPDEST PUSH1 0x0 PUSH1 0x20 DUP3 ADD SWAP1 POP PUSH2 0x947 PUSH1 0x0 DUP4 ADD DUP5 PUSH2 0x6E5 JUMP JUMPDEST SWAP3 SWAP2 POP POP JUMP JUMPDEST PUSH1 0x0 PUSH1 0x20 DUP3 ADD SWAP1 POP DUP2 DUP2 SUB PUSH1 0x0 DUP4 ADD MSTORE PUSH2 0x967 DUP2 DUP5 PUSH2 0x703 JUMP JUMPDEST SWAP1 POP SWAP3 SWAP2 POP POP JUMP JUMPDEST PUSH1 0x0 PUSH1 0x80 DUP3 ADD SWAP1 POP DUP2 DUP2 SUB PUSH1 0x0 DUP4 ADD MSTORE PUSH2 0x989 DUP2 DUP8 PUSH2 0x703 JUMP JUMPDEST SWAP1 POP PUSH2 0x998 PUSH1 0x20 DUP4 ADD DUP7 PUSH2 0x8D3 JUMP JUMPDEST PUSH2 0x9A5 PUSH1 0x40 DUP4 ADD DUP6 PUSH2 0x8D3 JUMP JUMPDEST PUSH2 0x9B2 PUSH1 0x60 DUP4 ADD DUP5 PUSH2 0x6F4 JUMP JUMPDEST SWAP6 SWAP5 POP POP POP POP POP JUMP JUMPDEST PUSH1 0x0 PUSH1 0x20 DUP3 ADD SWAP1 POP DUP2 DUP2 SUB PUSH1 0x0 DUP4 ADD MSTORE PUSH2 0x9D4 DUP2 PUSH2 0x76D JUMP JUMPDEST SWAP1 POP SWAP2 SWAP1 POP JUMP JUMPDEST PUSH1 0x0 PUSH1 0x20 DUP3 ADD SWAP1 POP DUP2 DUP2 SUB PUSH1 0x0 DUP4 ADD MSTORE PUSH2 0x9F4 DUP2 PUSH2 0x7AD JUMP JUMPDEST SWAP1 POP SWAP2 SWAP1 POP JUMP JUMPDEST PUSH1 0x0 PUSH1 0x20 DUP3 ADD SWAP1 POP DUP2 DUP2 SUB PUSH1 0x0 DUP4 ADD MSTORE PUSH2 0xA14 DUP2 PUSH2 0x813 JUMP JUMPDEST SWAP1 POP SWAP2 SWAP1 POP JUMP JUMPDEST PUSH1 0x0 PUSH1 0x20 DUP3 ADD SWAP1 POP DUP2 DUP2 SUB PUSH1 0x0 DUP4 ADD MSTORE PUSH2 0xA34 DUP2 PUSH2 0x853 JUMP JUMPDEST SWAP1 POP SWAP2 SWAP1 POP JUMP JUMPDEST PUSH1 0x0 PUSH1 0x20 DUP3 ADD SWAP1 POP DUP2 DUP2 SUB PUSH1 0x0 DUP4 ADD MSTORE PUSH2 0xA54 DUP2 PUSH2 0x893 JUMP JUMPDEST SWAP1 POP SWAP2 SWAP1 POP JUMP JUMPDEST PUSH1 0x0 PUSH1 0x40 MLOAD SWAP1 POP DUP2 DUP2 ADD DUP2 DUP2 LT PUSH8 0xFFFFFFFFFFFFFFFF DUP3 GT OR ISZERO PUSH2 0xA82 JUMPI PUSH2 0xA81 PUSH2 0xBB0 JUMP JUMPDEST JUMPDEST DUP1 PUSH1 0x40 MSTORE POP SWAP2 SWAP1 POP JUMP JUMPDEST PUSH1 0x0 PUSH8 0xFFFFFFFFFFFFFFFF DUP3 GT ISZERO PUSH2 0xAA7 JUMPI PUSH2 0xAA6 PUSH2 0xBB0 JUMP JUMPDEST JUMPDEST PUSH1 0x1F NOT PUSH1 0x1F DUP4 ADD AND SWAP1 POP PUSH1 0x20 DUP2 ADD SWAP1 POP SWAP2 SWAP1 POP JUMP JUMPDEST PUSH1 0x0 DUP2 MLOAD SWAP1 POP SWAP2 SWAP1 POP JUMP JUMPDEST PUSH1 0x0 DUP3 DUP3 MSTORE PUSH1 0x20 DUP3 ADD SWAP1 POP SWAP3 SWAP2 POP POP JUMP JUMPDEST PUSH1 0x0 DUP2 SWAP1 POP SWAP3 SWAP2 POP POP JUMP JUMPDEST PUSH1 0x0 DUP2 ISZERO ISZERO SWAP1 POP SWAP2 SWAP1 POP JUMP JUMPDEST PUSH1 0x0 DUP2 SWAP1 POP SWAP2 SWAP1 POP JUMP JUMPDEST PUSH1 0x0 DUP2 SWAP1 POP SWAP2 SWAP1 POP JUMP JUMPDEST DUP3 DUP2 DUP4 CALLDATACOPY PUSH1 0x0 DUP4 DUP4 ADD MSTORE POP POP POP JUMP JUMPDEST PUSH1 0x0 JUMPDEST DUP4 DUP2 LT ISZERO PUSH2 0xB30 JUMPI DUP1 DUP3 ADD MLOAD DUP2 DUP5 ADD MSTORE PUSH1 0x20 DUP2 ADD SWAP1 POP PUSH2 0xB15 JUMP JUMPDEST DUP4 DUP2 GT ISZERO PUSH2 0xB3F JUMPI PUSH1 0x0 DUP5 DUP5 ADD MSTORE JUMPDEST POP POP POP POP JUMP JUMPDEST PUSH1 0x0 PUSH1 0x2 DUP3 DIV SWAP1 POP PUSH1 0x1 DUP3 AND DUP1 PUSH2 0xB5D JUMPI PUSH1 0x7F DUP3 AND SWAP2 POP JUMPDEST PUSH1 0x20 DUP3 LT DUP2 EQ ISZERO PUSH2 0xB71 JUMPI PUSH2 0xB70 PUSH2 0xB81 JUMP JUMPDEST JUMPDEST POP SWAP2 SWAP1 POP JUMP JUMPDEST PUSH1 0x0 DUP2 SWAP1 POP SWAP2 SWAP1 POP JUMP JUMPDEST PUSH32 0x4E487B7100000000000000000000000000000000000000000000000000000000 PUSH1 0x0 MSTORE PUSH1 0x22 PUSH1 0x4 MSTORE PUSH1 0x24 PUSH1 0x0 REVERT JUMPDEST PUSH32 0x4E487B7100000000000000000000000000000000000000000000000000000000 PUSH1 0x0 MSTORE PUSH1 0x41 PUSH1 0x4 MSTORE PUSH1 0x24 PUSH1 0x0 REVERT JUMPDEST PUSH1 0x0 PUSH1 0x1F NOT PUSH1 0x1F DUP4 ADD AND SWAP1 POP SWAP2 SWAP1 POP JUMP JUMPDEST PUSH2 0xBF9 DUP2 PUSH2 0xAEF JUMP JUMPDEST DUP2 EQ PUSH2 0xC04 JUMPI PUSH1 0x0 DUP1 REVERT JUMPDEST POP JUMP JUMPDEST PUSH2 0xC10 DUP2 PUSH2 0xAF9 JUMP JUMPDEST DUP2 EQ PUSH2 0xC1B JUMPI PUSH1 0x0 DUP1 REVERT JUMPDEST POP JUMP INVALID LOG2 PUSH5 0x6970667358 0x22 SLT KECCAK256 0xE EQ SHR PUSH1 0x2E 0x24 BYTE 0xC4 NUMBER 0xF8 0xDE LT 0x1F 0xAF STOP 0xD9 0xBE INVALID SWAP11 0xCF EXTCODEHASH 0xFB 0xE9 0xB3 0xDC 0xE9 CALLDATALOAD PUSH5 0xDEEB4F9264 PUSH20 0x6F6C634300080000330000000000000000000000 "
				},
				"gasEstimates": {
					"creation": {
						"codeDepositCost": "631200",
						"executionCost": "664",
						"totalCost": "631864"
					},
					"external": {
						"registerDocument(string,uint256,uint256)": "infinite",
						"registeredDocuments(bytes32)": "infinite",
						"verifyDocument(string,uint256,uint256)": "infinite"
					}
				},
				"methodIdentifiers": {
					"registerDocument(string,uint256,uint256)": "289ac3ec",
					"registeredDocuments(bytes32)": "df6e104d",
					"verifyDocument(string,uint256,uint256)": "53e1841e"
				}
			},
			"storageLayout": {
				"storage": [
					{
						"astId": 15,
						"contract": "contracts/contrat1.sol:DocumentVerifier",
						"label": "registeredDocuments",
						"offset": 0,
						"slot": "0",
						"type": "t_mapping(t_bytes32,t_struct(Document)10_storage)"
					}
				],
				"types": {
					"t_bytes32": {
						"encoding": "inplace",
						"label": "bytes32",
						"numberOfBytes": "32"
					},
					"t_mapping(t_bytes32,t_struct(Document)10_storage)": {
						"encoding": "mapping",
						"key": "t_bytes32",
						"label": "mapping(bytes32 => struct DocumentVerifier.Document)",
						"numberOfBytes": "32",
						"value": "t_struct(Document)10_storage"
					},
					"t_string_storage": {
						"encoding": "bytes",
						"label": "string",
						"numberOfBytes": "32"
					},
					"t_struct(Document)10_storage": {
						"encoding": "inplace",
						"label": "struct DocumentVerifier.Document",
						"members": [
							{
								"astId": 3,
								"contract": "contracts/contrat1.sol:DocumentVerifier",
								"label": "title",
								"offset": 0,
								"slot": "0",
								"type": "t_string_storage"
							},
							{
								"astId": 5,
								"contract": "contracts/contrat1.sol:DocumentVerifier",
								"label": "size",
								"offset": 0,
								"slot": "1",
								"type": "t_uint256"
							},
							{
								"astId": 7,
								"contract": "contracts/contrat1.sol:DocumentVerifier",
								"label": "publicationDate",
								"offset": 0,
								"slot": "2",
								"type": "t_uint256"
							},
							{
								"astId": 9,
								"contract": "contracts/contrat1.sol:DocumentVerifier",
								"label": "hash",
								"offset": 0,
								"slot": "3",
								"type": "t_bytes32"
							}
						],
						"numberOfBytes": "128"
					},
					"t_uint256": {
						"encoding": "inplace",
						"label": "uint256",
						"numberOfBytes": "32"
					}
				}
			},
			"userdoc": {
				"kind": "user",
				"methods": {},
				"version": 1
			}
		}
	}
}